{
	"vulnerabilities.sol": {
		"VulnerabilityRegistry": {
			"abi": [
				{
					"anonymous": false,
					"inputs": [
						{
							"indexed": false,
							"internalType": "string",
							"name": "CVE_ID",
							"type": "string"
						},
						{
							"indexed": false,
							"internalType": "address",
							"name": "addedBy",
							"type": "address"
						},
						{
							"indexed": false,
							"internalType": "uint256",
							"name": "timestamp",
							"type": "uint256"
						}
					],
					"name": "VulnerabilityAdded",
					"type": "event"
				},
				{
					"inputs": [
						{
							"internalType": "string",
							"name": "_CVE_ID",
							"type": "string"
						},
						{
							"internalType": "string",
							"name": "_severity",
							"type": "string"
						},
						{
							"internalType": "string",
							"name": "_description",
							"type": "string"
						},
						{
							"internalType": "string",
							"name": "_patchInfo",
							"type": "string"
						},
						{
							"internalType": "string",
							"name": "_reportHash",
							"type": "string"
						}
					],
					"name": "addVulnerability",
					"outputs": [],
					"stateMutability": "nonpayable",
					"type": "function"
				},
				{
					"inputs": [
						{
							"internalType": "uint256",
							"name": "",
							"type": "uint256"
						}
					],
					"name": "allCVEIDs",
					"outputs": [
						{
							"internalType": "string",
							"name": "",
							"type": "string"
						}
					],
					"stateMutability": "view",
					"type": "function"
				},
				{
					"inputs": [],
					"name": "getAllCVEIDs",
					"outputs": [
						{
							"internalType": "string[]",
							"name": "",
							"type": "string[]"
						}
					],
					"stateMutability": "view",
					"type": "function"
				},
				{
					"inputs": [
						{
							"internalType": "string",
							"name": "_CVE_ID",
							"type": "string"
						}
					],
					"name": "getVulnerability",
					"outputs": [
						{
							"components": [
								{
									"internalType": "string",
									"name": "CVE_ID",
									"type": "string"
								},
								{
									"internalType": "string",
									"name": "severity",
									"type": "string"
								},
								{
									"internalType": "string",
									"name": "description",
									"type": "string"
								},
								{
									"internalType": "string",
									"name": "patchInfo",
									"type": "string"
								},
								{
									"internalType": "string",
									"name": "reportHash",
									"type": "string"
								},
								{
									"internalType": "address",
									"name": "addedBy",
									"type": "address"
								},
								{
									"internalType": "uint256",
									"name": "timestamp",
									"type": "uint256"
								}
							],
							"internalType": "struct VulnerabilityRegistry.Vulnerability",
							"name": "",
							"type": "tuple"
						}
					],
					"stateMutability": "view",
					"type": "function"
				},
				{
					"inputs": [
						{
							"internalType": "string",
							"name": "",
							"type": "string"
						}
					],
					"name": "vulnerabilities",
					"outputs": [
						{
							"internalType": "string",
							"name": "CVE_ID",
							"type": "string"
						},
						{
							"internalType": "string",
							"name": "severity",
							"type": "string"
						},
						{
							"internalType": "string",
							"name": "description",
							"type": "string"
						},
						{
							"internalType": "string",
							"name": "patchInfo",
							"type": "string"
						},
						{
							"internalType": "string",
							"name": "reportHash",
							"type": "string"
						},
						{
							"internalType": "address",
							"name": "addedBy",
							"type": "address"
						},
						{
							"internalType": "uint256",
							"name": "timestamp",
							"type": "uint256"
						}
					],
					"stateMutability": "view",
					"type": "function"
				}
			],
			"devdoc": {
				"kind": "dev",
				"methods": {},
				"version": 1
			},
			"evm": {
				"assembly": "    /* \"vulnerabilities.sol\":62:1767  contract VulnerabilityRegistry {... */\n  mstore(0x40, 0x80)\n  callvalue\n  dup1\n  iszero\n  tag_1\n  jumpi\n  0x00\n  dup1\n  revert\ntag_1:\n  pop\n  dataSize(sub_0)\n  dup1\n  dataOffset(sub_0)\n  0x00\n  codecopy\n  0x00\n  return\nstop\n\nsub_0: assembly {\n        /* \"vulnerabilities.sol\":62:1767  contract VulnerabilityRegistry {... */\n      mstore(0x40, 0x80)\n      callvalue\n      dup1\n      iszero\n      tag_1\n      jumpi\n      0x00\n      dup1\n      revert\n    tag_1:\n      pop\n      jumpi(tag_2, lt(calldatasize, 0x04))\n      shr(0xe0, calldataload(0x00))\n      dup1\n      0x1a23e71f\n      eq\n      tag_3\n      jumpi\n      dup1\n      0x2d51d2e1\n      eq\n      tag_4\n      jumpi\n      dup1\n      0x5967c880\n      eq\n      tag_5\n      jumpi\n      dup1\n      0xa1dab6b4\n      eq\n      tag_6\n      jumpi\n      dup1\n      0xf4df96b9\n      eq\n      tag_7\n      jumpi\n    tag_2:\n      0x00\n      dup1\n      revert\n        /* \"vulnerabilities.sol\":1383:1628  function getVulnerability(string memory _CVE_ID) public view returns (Vulnerability memory) {... */\n    tag_3:\n      tag_8\n      0x04\n      dup1\n      calldatasize\n      sub\n      dup2\n      add\n      swap1\n      tag_9\n      swap2\n      swap1\n      tag_10\n      jump\t// in\n    tag_9:\n      tag_11\n      jump\t// in\n    tag_8:\n      mload(0x40)\n      tag_12\n      swap2\n      swap1\n      tag_13\n      jump\t// in\n    tag_12:\n      mload(0x40)\n      dup1\n      swap2\n      sub\n      swap1\n      return\n        /* \"vulnerabilities.sol\":1667:1764  function getAllCVEIDs() public view returns (string[] memory) {... */\n    tag_4:\n      tag_14\n      tag_15\n      jump\t// in\n    tag_14:\n      mload(0x40)\n      tag_16\n      swap2\n      swap1\n      tag_17\n      jump\t// in\n    tag_16:\n      mload(0x40)\n      dup1\n      swap2\n      sub\n      swap1\n      return\n        /* \"vulnerabilities.sol\":370:425  mapping(string => Vulnerability) public vulnerabilities */\n    tag_5:\n      tag_18\n      0x04\n      dup1\n      calldatasize\n      sub\n      dup2\n      add\n      swap1\n      tag_19\n      swap2\n      swap1\n      tag_10\n      jump\t// in\n    tag_19:\n      tag_20\n      jump\t// in\n    tag_18:\n      mload(0x40)\n      tag_21\n      swap8\n      swap7\n      swap6\n      swap5\n      swap4\n      swap3\n      swap2\n      swap1\n      tag_22\n      jump\t// in\n    tag_21:\n      mload(0x40)\n      dup1\n      swap2\n      sub\n      swap1\n      return\n        /* \"vulnerabilities.sol\":593:1334  function addVulnerability(... */\n    tag_6:\n      tag_23\n      0x04\n      dup1\n      calldatasize\n      sub\n      dup2\n      add\n      swap1\n      tag_24\n      swap2\n      swap1\n      tag_25\n      jump\t// in\n    tag_24:\n      tag_26\n      jump\t// in\n    tag_23:\n      stop\n        /* \"vulnerabilities.sol\":432:457  string[] public allCVEIDs */\n    tag_7:\n      tag_27\n      0x04\n      dup1\n      calldatasize\n      sub\n      dup2\n      add\n      swap1\n      tag_28\n      swap2\n      swap1\n      tag_29\n      jump\t// in\n    tag_28:\n      tag_30\n      jump\t// in\n    tag_27:\n      mload(0x40)\n      tag_31\n      swap2\n      swap1\n      tag_32\n      jump\t// in\n    tag_31:\n      mload(0x40)\n      dup1\n      swap2\n      sub\n      swap1\n      return\n        /* \"vulnerabilities.sol\":1383:1628  function getVulnerability(string memory _CVE_ID) public view returns (Vulnerability memory) {... */\n    tag_11:\n        /* \"vulnerabilities.sol\":1453:1473  Vulnerability memory */\n      tag_33\n      tag_34\n      jump\t// in\n    tag_33:\n        /* \"vulnerabilities.sol\":1543:1544  0 */\n      0x00\n        /* \"vulnerabilities.sol\":1500:1515  vulnerabilities */\n      dup1\n        /* \"vulnerabilities.sol\":1516:1523  _CVE_ID */\n      dup4\n        /* \"vulnerabilities.sol\":1500:1524  vulnerabilities[_CVE_ID] */\n      mload(0x40)\n      tag_36\n      swap2\n      swap1\n      tag_37\n      jump\t// in\n    tag_36:\n      swap1\n      dup2\n      mstore\n      0x20\n      add\n      mload(0x40)\n      dup1\n      swap2\n      sub\n      swap1\n      keccak256\n        /* \"vulnerabilities.sol\":1500:1531  vulnerabilities[_CVE_ID].CVE_ID */\n      0x00\n      add\n        /* \"vulnerabilities.sol\":1494:1539  bytes(vulnerabilities[_CVE_ID].CVE_ID).length */\n      dup1\n      sload\n      tag_38\n      swap1\n      tag_39\n      jump\t// in\n    tag_38:\n      swap1\n      pop\n        /* \"vulnerabilities.sol\":1494:1544  bytes(vulnerabilities[_CVE_ID].CVE_ID).length != 0 */\n      sub\n        /* \"vulnerabilities.sol\":1486:1578  require(bytes(vulnerabilities[_CVE_ID].CVE_ID).length != 0, \"Vulnerability does not exist.\") */\n      tag_40\n      jumpi\n      mload(0x40)\n      0x08c379a000000000000000000000000000000000000000000000000000000000\n      dup2\n      mstore\n      0x04\n      add\n      tag_41\n      swap1\n      tag_42\n      jump\t// in\n    tag_41:\n      mload(0x40)\n      dup1\n      swap2\n      sub\n      swap1\n      revert\n    tag_40:\n        /* \"vulnerabilities.sol\":1596:1611  vulnerabilities */\n      0x00\n        /* \"vulnerabilities.sol\":1612:1619  _CVE_ID */\n      dup3\n        /* \"vulnerabilities.sol\":1596:1620  vulnerabilities[_CVE_ID] */\n      mload(0x40)\n      tag_43\n      swap2\n      swap1\n      tag_37\n      jump\t// in\n    tag_43:\n      swap1\n      dup2\n      mstore\n      0x20\n      add\n      mload(0x40)\n      dup1\n      swap2\n      sub\n      swap1\n      keccak256\n        /* \"vulnerabilities.sol\":1589:1620  return vulnerabilities[_CVE_ID] */\n      mload(0x40)\n      dup1\n      0xe0\n      add\n      0x40\n      mstore\n      swap1\n      dup2\n      0x00\n      dup3\n      add\n      dup1\n      sload\n      tag_44\n      swap1\n      tag_39\n      jump\t// in\n    tag_44:\n      dup1\n      0x1f\n      add\n      0x20\n      dup1\n      swap2\n      div\n      mul\n      0x20\n      add\n      mload(0x40)\n      swap1\n      dup2\n      add\n      0x40\n      mstore\n      dup1\n      swap3\n      swap2\n      swap1\n      dup2\n      dup2\n      mstore\n      0x20\n      add\n      dup3\n      dup1\n      sload\n      tag_45\n      swap1\n      tag_39\n      jump\t// in\n    tag_45:\n      dup1\n      iszero\n      tag_46\n      jumpi\n      dup1\n      0x1f\n      lt\n      tag_47\n      jumpi\n      0x0100\n      dup1\n      dup4\n      sload\n      div\n      mul\n      dup4\n      mstore\n      swap2\n      0x20\n      add\n      swap2\n      jump(tag_46)\n    tag_47:\n      dup3\n      add\n      swap2\n      swap1\n      0x00\n      mstore\n      keccak256(0x00, 0x20)\n      swap1\n    tag_48:\n      dup2\n      sload\n      dup2\n      mstore\n      swap1\n      0x01\n      add\n      swap1\n      0x20\n      add\n      dup1\n      dup4\n      gt\n      tag_48\n      jumpi\n      dup3\n      swap1\n      sub\n      0x1f\n      and\n      dup3\n      add\n      swap2\n    tag_46:\n      pop\n      pop\n      pop\n      pop\n      pop\n      dup2\n      mstore\n      0x20\n      add\n      0x01\n      dup3\n      add\n      dup1\n      sload\n      tag_49\n      swap1\n      tag_39\n      jump\t// in\n    tag_49:\n      dup1\n      0x1f\n      add\n      0x20\n      dup1\n      swap2\n      div\n      mul\n      0x20\n      add\n      mload(0x40)\n      swap1\n      dup2\n      add\n      0x40\n      mstore\n      dup1\n      swap3\n      swap2\n      swap1\n      dup2\n      dup2\n      mstore\n      0x20\n      add\n      dup3\n      dup1\n      sload\n      tag_50\n      swap1\n      tag_39\n      jump\t// in\n    tag_50:\n      dup1\n      iszero\n      tag_51\n      jumpi\n      dup1\n      0x1f\n      lt\n      tag_52\n      jumpi\n      0x0100\n      dup1\n      dup4\n      sload\n      div\n      mul\n      dup4\n      mstore\n      swap2\n      0x20\n      add\n      swap2\n      jump(tag_51)\n    tag_52:\n      dup3\n      add\n      swap2\n      swap1\n      0x00\n      mstore\n      keccak256(0x00, 0x20)\n      swap1\n    tag_53:\n      dup2\n      sload\n      dup2\n      mstore\n      swap1\n      0x01\n      add\n      swap1\n      0x20\n      add\n      dup1\n      dup4\n      gt\n      tag_53\n      jumpi\n      dup3\n      swap1\n      sub\n      0x1f\n      and\n      dup3\n      add\n      swap2\n    tag_51:\n      pop\n      pop\n      pop\n      pop\n      pop\n      dup2\n      mstore\n      0x20\n      add\n      0x02\n      dup3\n      add\n      dup1\n      sload\n      tag_54\n      swap1\n      tag_39\n      jump\t// in\n    tag_54:\n      dup1\n      0x1f\n      add\n      0x20\n      dup1\n      swap2\n      div\n      mul\n      0x20\n      add\n      mload(0x40)\n      swap1\n      dup2\n      add\n      0x40\n      mstore\n      dup1\n      swap3\n      swap2\n      swap1\n      dup2\n      dup2\n      mstore\n      0x20\n      add\n      dup3\n      dup1\n      sload\n      tag_55\n      swap1\n      tag_39\n      jump\t// in\n    tag_55:\n      dup1\n      iszero\n      tag_56\n      jumpi\n      dup1\n      0x1f\n      lt\n      tag_57\n      jumpi\n      0x0100\n      dup1\n      dup4\n      sload\n      div\n      mul\n      dup4\n      mstore\n      swap2\n      0x20\n      add\n      swap2\n      jump(tag_56)\n    tag_57:\n      dup3\n      add\n      swap2\n      swap1\n      0x00\n      mstore\n      keccak256(0x00, 0x20)\n      swap1\n    tag_58:\n      dup2\n      sload\n      dup2\n      mstore\n      swap1\n      0x01\n      add\n      swap1\n      0x20\n      add\n      dup1\n      dup4\n      gt\n      tag_58\n      jumpi\n      dup3\n      swap1\n      sub\n      0x1f\n      and\n      dup3\n      add\n      swap2\n    tag_56:\n      pop\n      pop\n      pop\n      pop\n      pop\n      dup2\n      mstore\n      0x20\n      add\n      0x03\n      dup3\n      add\n      dup1\n      sload\n      tag_59\n      swap1\n      tag_39\n      jump\t// in\n    tag_59:\n      dup1\n      0x1f\n      add\n      0x20\n      dup1\n      swap2\n      div\n      mul\n      0x20\n      add\n      mload(0x40)\n      swap1\n      dup2\n      add\n      0x40\n      mstore\n      dup1\n      swap3\n      swap2\n      swap1\n      dup2\n      dup2\n      mstore\n      0x20\n      add\n      dup3\n      dup1\n      sload\n      tag_60\n      swap1\n      tag_39\n      jump\t// in\n    tag_60:\n      dup1\n      iszero\n      tag_61\n      jumpi\n      dup1\n      0x1f\n      lt\n      tag_62\n      jumpi\n      0x0100\n      dup1\n      dup4\n      sload\n      div\n      mul\n      dup4\n      mstore\n      swap2\n      0x20\n      add\n      swap2\n      jump(tag_61)\n    tag_62:\n      dup3\n      add\n      swap2\n      swap1\n      0x00\n      mstore\n      keccak256(0x00, 0x20)\n      swap1\n    tag_63:\n      dup2\n      sload\n      dup2\n      mstore\n      swap1\n      0x01\n      add\n      swap1\n      0x20\n      add\n      dup1\n      dup4\n      gt\n      tag_63\n      jumpi\n      dup3\n      swap1\n      sub\n      0x1f\n      and\n      dup3\n      add\n      swap2\n    tag_61:\n      pop\n      pop\n      pop\n      pop\n      pop\n      dup2\n      mstore\n      0x20\n      add\n      0x04\n      dup3\n      add\n      dup1\n      sload\n      tag_64\n      swap1\n      tag_39\n      jump\t// in\n    tag_64:\n      dup1\n      0x1f\n      add\n      0x20\n      dup1\n      swap2\n      div\n      mul\n      0x20\n      add\n      mload(0x40)\n      swap1\n      dup2\n      add\n      0x40\n      mstore\n      dup1\n      swap3\n      swap2\n      swap1\n      dup2\n      dup2\n      mstore\n      0x20\n      add\n      dup3\n      dup1\n      sload\n      tag_65\n      swap1\n      tag_39\n      jump\t// in\n    tag_65:\n      dup1\n      iszero\n      tag_66\n      jumpi\n      dup1\n      0x1f\n      lt\n      tag_67\n      jumpi\n      0x0100\n      dup1\n      dup4\n      sload\n      div\n      mul\n      dup4\n      mstore\n      swap2\n      0x20\n      add\n      swap2\n      jump(tag_66)\n    tag_67:\n      dup3\n      add\n      swap2\n      swap1\n      0x00\n      mstore\n      keccak256(0x00, 0x20)\n      swap1\n    tag_68:\n      dup2\n      sload\n      dup2\n      mstore\n      swap1\n      0x01\n      add\n      swap1\n      0x20\n      add\n      dup1\n      dup4\n      gt\n      tag_68\n      jumpi\n      dup3\n      swap1\n      sub\n      0x1f\n      and\n      dup3\n      add\n      swap2\n    tag_66:\n      pop\n      pop\n      pop\n      pop\n      pop\n      dup2\n      mstore\n      0x20\n      add\n      0x05\n      dup3\n      add\n      0x00\n      swap1\n      sload\n      swap1\n      0x0100\n      exp\n      swap1\n      div\n      0xffffffffffffffffffffffffffffffffffffffff\n      and\n      0xffffffffffffffffffffffffffffffffffffffff\n      and\n      0xffffffffffffffffffffffffffffffffffffffff\n      and\n      dup2\n      mstore\n      0x20\n      add\n      0x06\n      dup3\n      add\n      sload\n      dup2\n      mstore\n      pop\n      pop\n      swap1\n      pop\n        /* \"vulnerabilities.sol\":1383:1628  function getVulnerability(string memory _CVE_ID) public view returns (Vulnerability memory) {... */\n      swap2\n      swap1\n      pop\n      jump\t// out\n        /* \"vulnerabilities.sol\":1667:1764  function getAllCVEIDs() public view returns (string[] memory) {... */\n    tag_15:\n        /* \"vulnerabilities.sol\":1712:1727  string[] memory */\n      0x60\n        /* \"vulnerabilities.sol\":1747:1756  allCVEIDs */\n      0x01\n        /* \"vulnerabilities.sol\":1740:1756  return allCVEIDs */\n      dup1\n      sload\n      dup1\n      0x20\n      mul\n      0x20\n      add\n      mload(0x40)\n      swap1\n      dup2\n      add\n      0x40\n      mstore\n      dup1\n      swap3\n      swap2\n      swap1\n      dup2\n      dup2\n      mstore\n      0x20\n      add\n      0x00\n      swap1\n    tag_70:\n      dup3\n      dup3\n      lt\n      iszero\n      tag_71\n      jumpi\n      dup4\n      dup3\n      swap1\n      0x00\n      mstore\n      keccak256(0x00, 0x20)\n      add\n      dup1\n      sload\n      tag_73\n      swap1\n      tag_39\n      jump\t// in\n    tag_73:\n      dup1\n      0x1f\n      add\n      0x20\n      dup1\n      swap2\n      div\n      mul\n      0x20\n      add\n      mload(0x40)\n      swap1\n      dup2\n      add\n      0x40\n      mstore\n      dup1\n      swap3\n      swap2\n      swap1\n      dup2\n      dup2\n      mstore\n      0x20\n      add\n      dup3\n      dup1\n      sload\n      tag_74\n      swap1\n      tag_39\n      jump\t// in\n    tag_74:\n      dup1\n      iszero\n      tag_75\n      jumpi\n      dup1\n      0x1f\n      lt\n      tag_76\n      jumpi\n      0x0100\n      dup1\n      dup4\n      sload\n      div\n      mul\n      dup4\n      mstore\n      swap2\n      0x20\n      add\n      swap2\n      jump(tag_75)\n    tag_76:\n      dup3\n      add\n      swap2\n      swap1\n      0x00\n      mstore\n      keccak256(0x00, 0x20)\n      swap1\n    tag_77:\n      dup2\n      sload\n      dup2\n      mstore\n      swap1\n      0x01\n      add\n      swap1\n      0x20\n      add\n      dup1\n      dup4\n      gt\n      tag_77\n      jumpi\n      dup3\n      swap1\n      sub\n      0x1f\n      and\n      dup3\n      add\n      swap2\n    tag_75:\n      pop\n      pop\n      pop\n      pop\n      pop\n      dup2\n      mstore\n      0x20\n      add\n      swap1\n      0x01\n      add\n      swap1\n      jump(tag_70)\n    tag_71:\n      pop\n      pop\n      pop\n      pop\n      swap1\n      pop\n        /* \"vulnerabilities.sol\":1667:1764  function getAllCVEIDs() public view returns (string[] memory) {... */\n      swap1\n      jump\t// out\n        /* \"vulnerabilities.sol\":370:425  mapping(string => Vulnerability) public vulnerabilities */\n    tag_20:\n      0x00\n      dup2\n      dup1\n      mload\n      0x20\n      dup2\n      add\n      dup3\n      add\n      dup1\n      mload\n      dup5\n      dup3\n      mstore\n      0x20\n      dup4\n      add\n      0x20\n      dup6\n      add\n      keccak256\n      dup2\n      dup4\n      mstore\n      dup1\n      swap6\n      pop\n      pop\n      pop\n      pop\n      pop\n      pop\n      0x00\n      swap2\n      pop\n      swap1\n      pop\n      dup1\n      0x00\n      add\n      dup1\n      sload\n      tag_78\n      swap1\n      tag_39\n      jump\t// in\n    tag_78:\n      dup1\n      0x1f\n      add\n      0x20\n      dup1\n      swap2\n      div\n      mul\n      0x20\n      add\n      mload(0x40)\n      swap1\n      dup2\n      add\n      0x40\n      mstore\n      dup1\n      swap3\n      swap2\n      swap1\n      dup2\n      dup2\n      mstore\n      0x20\n      add\n      dup3\n      dup1\n      sload\n      tag_79\n      swap1\n      tag_39\n      jump\t// in\n    tag_79:\n      dup1\n      iszero\n      tag_80\n      jumpi\n      dup1\n      0x1f\n      lt\n      tag_81\n      jumpi\n      0x0100\n      dup1\n      dup4\n      sload\n      div\n      mul\n      dup4\n      mstore\n      swap2\n      0x20\n      add\n      swap2\n      jump(tag_80)\n    tag_81:\n      dup3\n      add\n      swap2\n      swap1\n      0x00\n      mstore\n      keccak256(0x00, 0x20)\n      swap1\n    tag_82:\n      dup2\n      sload\n      dup2\n      mstore\n      swap1\n      0x01\n      add\n      swap1\n      0x20\n      add\n      dup1\n      dup4\n      gt\n      tag_82\n      jumpi\n      dup3\n      swap1\n      sub\n      0x1f\n      and\n      dup3\n      add\n      swap2\n    tag_80:\n      pop\n      pop\n      pop\n      pop\n      pop\n      swap1\n      dup1\n      0x01\n      add\n      dup1\n      sload\n      tag_83\n      swap1\n      tag_39\n      jump\t// in\n    tag_83:\n      dup1\n      0x1f\n      add\n      0x20\n      dup1\n      swap2\n      div\n      mul\n      0x20\n      add\n      mload(0x40)\n      swap1\n      dup2\n      add\n      0x40\n      mstore\n      dup1\n      swap3\n      swap2\n      swap1\n      dup2\n      dup2\n      mstore\n      0x20\n      add\n      dup3\n      dup1\n      sload\n      tag_84\n      swap1\n      tag_39\n      jump\t// in\n    tag_84:\n      dup1\n      iszero\n      tag_85\n      jumpi\n      dup1\n      0x1f\n      lt\n      tag_86\n      jumpi\n      0x0100\n      dup1\n      dup4\n      sload\n      div\n      mul\n      dup4\n      mstore\n      swap2\n      0x20\n      add\n      swap2\n      jump(tag_85)\n    tag_86:\n      dup3\n      add\n      swap2\n      swap1\n      0x00\n      mstore\n      keccak256(0x00, 0x20)\n      swap1\n    tag_87:\n      dup2\n      sload\n      dup2\n      mstore\n      swap1\n      0x01\n      add\n      swap1\n      0x20\n      add\n      dup1\n      dup4\n      gt\n      tag_87\n      jumpi\n      dup3\n      swap1\n      sub\n      0x1f\n      and\n      dup3\n      add\n      swap2\n    tag_85:\n      pop\n      pop\n      pop\n      pop\n      pop\n      swap1\n      dup1\n      0x02\n      add\n      dup1\n      sload\n      tag_88\n      swap1\n      tag_39\n      jump\t// in\n    tag_88:\n      dup1\n      0x1f\n      add\n      0x20\n      dup1\n      swap2\n      div\n      mul\n      0x20\n      add\n      mload(0x40)\n      swap1\n      dup2\n      add\n      0x40\n      mstore\n      dup1\n      swap3\n      swap2\n      swap1\n      dup2\n      dup2\n      mstore\n      0x20\n      add\n      dup3\n      dup1\n      sload\n      tag_89\n      swap1\n      tag_39\n      jump\t// in\n    tag_89:\n      dup1\n      iszero\n      tag_90\n      jumpi\n      dup1\n      0x1f\n      lt\n      tag_91\n      jumpi\n      0x0100\n      dup1\n      dup4\n      sload\n      div\n      mul\n      dup4\n      mstore\n      swap2\n      0x20\n      add\n      swap2\n      jump(tag_90)\n    tag_91:\n      dup3\n      add\n      swap2\n      swap1\n      0x00\n      mstore\n      keccak256(0x00, 0x20)\n      swap1\n    tag_92:\n      dup2\n      sload\n      dup2\n      mstore\n      swap1\n      0x01\n      add\n      swap1\n      0x20\n      add\n      dup1\n      dup4\n      gt\n      tag_92\n      jumpi\n      dup3\n      swap1\n      sub\n      0x1f\n      and\n      dup3\n      add\n      swap2\n    tag_90:\n      pop\n      pop\n      pop\n      pop\n      pop\n      swap1\n      dup1\n      0x03\n      add\n      dup1\n      sload\n      tag_93\n      swap1\n      tag_39\n      jump\t// in\n    tag_93:\n      dup1\n      0x1f\n      add\n      0x20\n      dup1\n      swap2\n      div\n      mul\n      0x20\n      add\n      mload(0x40)\n      swap1\n      dup2\n      add\n      0x40\n      mstore\n      dup1\n      swap3\n      swap2\n      swap1\n      dup2\n      dup2\n      mstore\n      0x20\n      add\n      dup3\n      dup1\n      sload\n      tag_94\n      swap1\n      tag_39\n      jump\t// in\n    tag_94:\n      dup1\n      iszero\n      tag_95\n      jumpi\n      dup1\n      0x1f\n      lt\n      tag_96\n      jumpi\n      0x0100\n      dup1\n      dup4\n      sload\n      div\n      mul\n      dup4\n      mstore\n      swap2\n      0x20\n      add\n      swap2\n      jump(tag_95)\n    tag_96:\n      dup3\n      add\n      swap2\n      swap1\n      0x00\n      mstore\n      keccak256(0x00, 0x20)\n      swap1\n    tag_97:\n      dup2\n      sload\n      dup2\n      mstore\n      swap1\n      0x01\n      add\n      swap1\n      0x20\n      add\n      dup1\n      dup4\n      gt\n      tag_97\n      jumpi\n      dup3\n      swap1\n      sub\n      0x1f\n      and\n      dup3\n      add\n      swap2\n    tag_95:\n      pop\n      pop\n      pop\n      pop\n      pop\n      swap1\n      dup1\n      0x04\n      add\n      dup1\n      sload\n      tag_98\n      swap1\n      tag_39\n      jump\t// in\n    tag_98:\n      dup1\n      0x1f\n      add\n      0x20\n      dup1\n      swap2\n      div\n      mul\n      0x20\n      add\n      mload(0x40)\n      swap1\n      dup2\n      add\n      0x40\n      mstore\n      dup1\n      swap3\n      swap2\n      swap1\n      dup2\n      dup2\n      mstore\n      0x20\n      add\n      dup3\n      dup1\n      sload\n      tag_99\n      swap1\n      tag_39\n      jump\t// in\n    tag_99:\n      dup1\n      iszero\n      tag_100\n      jumpi\n      dup1\n      0x1f\n      lt\n      tag_101\n      jumpi\n      0x0100\n      dup1\n      dup4\n      sload\n      div\n      mul\n      dup4\n      mstore\n      swap2\n      0x20\n      add\n      swap2\n      jump(tag_100)\n    tag_101:\n      dup3\n      add\n      swap2\n      swap1\n      0x00\n      mstore\n      keccak256(0x00, 0x20)\n      swap1\n    tag_102:\n      dup2\n      sload\n      dup2\n      mstore\n      swap1\n      0x01\n      add\n      swap1\n      0x20\n      add\n      dup1\n      dup4\n      gt\n      tag_102\n      jumpi\n      dup3\n      swap1\n      sub\n      0x1f\n      and\n      dup3\n      add\n      swap2\n    tag_100:\n      pop\n      pop\n      pop\n      pop\n      pop\n      swap1\n      dup1\n      0x05\n      add\n      0x00\n      swap1\n      sload\n      swap1\n      0x0100\n      exp\n      swap1\n      div\n      0xffffffffffffffffffffffffffffffffffffffff\n      and\n      swap1\n      dup1\n      0x06\n      add\n      sload\n      swap1\n      pop\n      dup8\n      jump\t// out\n        /* \"vulnerabilities.sol\":593:1334  function addVulnerability(... */\n    tag_26:\n        /* \"vulnerabilities.sol\":875:876  0 */\n      0x00\n        /* \"vulnerabilities.sol\":832:847  vulnerabilities */\n      dup1\n        /* \"vulnerabilities.sol\":848:855  _CVE_ID */\n      dup7\n        /* \"vulnerabilities.sol\":832:856  vulnerabilities[_CVE_ID] */\n      mload(0x40)\n      tag_104\n      swap2\n      swap1\n      tag_37\n      jump\t// in\n    tag_104:\n      swap1\n      dup2\n      mstore\n      0x20\n      add\n      mload(0x40)\n      dup1\n      swap2\n      sub\n      swap1\n      keccak256\n        /* \"vulnerabilities.sol\":832:863  vulnerabilities[_CVE_ID].CVE_ID */\n      0x00\n      add\n        /* \"vulnerabilities.sol\":826:871  bytes(vulnerabilities[_CVE_ID].CVE_ID).length */\n      dup1\n      sload\n      tag_105\n      swap1\n      tag_39\n      jump\t// in\n    tag_105:\n      swap1\n      pop\n        /* \"vulnerabilities.sol\":826:876  bytes(vulnerabilities[_CVE_ID].CVE_ID).length == 0 */\n      eq\n        /* \"vulnerabilities.sol\":818:910  require(bytes(vulnerabilities[_CVE_ID].CVE_ID).length == 0, \"Vulnerability already exists.\") */\n      tag_106\n      jumpi\n      mload(0x40)\n      0x08c379a000000000000000000000000000000000000000000000000000000000\n      dup2\n      mstore\n      0x04\n      add\n      tag_107\n      swap1\n      tag_108\n      jump\t// in\n    tag_107:\n      mload(0x40)\n      dup1\n      swap2\n      sub\n      swap1\n      revert\n    tag_106:\n        /* \"vulnerabilities.sol\":921:958  Vulnerability memory newVulnerability */\n      0x00\n        /* \"vulnerabilities.sol\":961:1164  Vulnerability(... */\n      mload(0x40)\n      dup1\n      0xe0\n      add\n      0x40\n      mstore\n      dup1\n        /* \"vulnerabilities.sol\":989:996  _CVE_ID */\n      dup8\n        /* \"vulnerabilities.sol\":961:1164  Vulnerability(... */\n      dup2\n      mstore\n      0x20\n      add\n        /* \"vulnerabilities.sol\":1011:1020  _severity */\n      dup7\n        /* \"vulnerabilities.sol\":961:1164  Vulnerability(... */\n      dup2\n      mstore\n      0x20\n      add\n        /* \"vulnerabilities.sol\":1035:1047  _description */\n      dup6\n        /* \"vulnerabilities.sol\":961:1164  Vulnerability(... */\n      dup2\n      mstore\n      0x20\n      add\n        /* \"vulnerabilities.sol\":1062:1072  _patchInfo */\n      dup5\n        /* \"vulnerabilities.sol\":961:1164  Vulnerability(... */\n      dup2\n      mstore\n      0x20\n      add\n        /* \"vulnerabilities.sol\":1087:1098  _reportHash */\n      dup4\n        /* \"vulnerabilities.sol\":961:1164  Vulnerability(... */\n      dup2\n      mstore\n      0x20\n      add\n        /* \"vulnerabilities.sol\":1113:1123  msg.sender */\n      caller\n        /* \"vulnerabilities.sol\":961:1164  Vulnerability(... */\n      0xffffffffffffffffffffffffffffffffffffffff\n      and\n      dup2\n      mstore\n      0x20\n      add\n        /* \"vulnerabilities.sol\":1138:1153  block.timestamp */\n      timestamp\n        /* \"vulnerabilities.sol\":961:1164  Vulnerability(... */\n      dup2\n      mstore\n      pop\n        /* \"vulnerabilities.sol\":921:1164  Vulnerability memory newVulnerability = Vulnerability(... */\n      swap1\n      pop\n        /* \"vulnerabilities.sol\":1202:1218  newVulnerability */\n      dup1\n        /* \"vulnerabilities.sol\":1175:1190  vulnerabilities */\n      0x00\n        /* \"vulnerabilities.sol\":1191:1198  _CVE_ID */\n      dup8\n        /* \"vulnerabilities.sol\":1175:1199  vulnerabilities[_CVE_ID] */\n      mload(0x40)\n      tag_109\n      swap2\n      swap1\n      tag_37\n      jump\t// in\n    tag_109:\n      swap1\n      dup2\n      mstore\n      0x20\n      add\n      mload(0x40)\n      dup1\n      swap2\n      sub\n      swap1\n      keccak256\n        /* \"vulnerabilities.sol\":1175:1218  vulnerabilities[_CVE_ID] = newVulnerability */\n      0x00\n      dup3\n      add\n      mload\n      dup2\n      0x00\n      add\n      swap1\n      dup2\n      tag_110\n      swap2\n      swap1\n      tag_111\n      jump\t// in\n    tag_110:\n      pop\n      0x20\n      dup3\n      add\n      mload\n      dup2\n      0x01\n      add\n      swap1\n      dup2\n      tag_112\n      swap2\n      swap1\n      tag_111\n      jump\t// in\n    tag_112:\n      pop\n      0x40\n      dup3\n      add\n      mload\n      dup2\n      0x02\n      add\n      swap1\n      dup2\n      tag_113\n      swap2\n      swap1\n      tag_111\n      jump\t// in\n    tag_113:\n      pop\n      0x60\n      dup3\n      add\n      mload\n      dup2\n      0x03\n      add\n      swap1\n      dup2\n      tag_114\n      swap2\n      swap1\n      tag_111\n      jump\t// in\n    tag_114:\n      pop\n      0x80\n      dup3\n      add\n      mload\n      dup2\n      0x04\n      add\n      swap1\n      dup2\n      tag_115\n      swap2\n      swap1\n      tag_111\n      jump\t// in\n    tag_115:\n      pop\n      0xa0\n      dup3\n      add\n      mload\n      dup2\n      0x05\n      add\n      exp(0x0100, 0x00)\n      dup2\n      sload\n      dup2\n      0xffffffffffffffffffffffffffffffffffffffff\n      mul\n      not\n      and\n      swap1\n      dup4\n      0xffffffffffffffffffffffffffffffffffffffff\n      and\n      mul\n      or\n      swap1\n      sstore\n      pop\n      0xc0\n      dup3\n      add\n      mload\n      dup2\n      0x06\n      add\n      sstore\n      swap1\n      pop\n      pop\n        /* \"vulnerabilities.sol\":1229:1238  allCVEIDs */\n      0x01\n        /* \"vulnerabilities.sol\":1244:1251  _CVE_ID */\n      dup7\n        /* \"vulnerabilities.sol\":1229:1252  allCVEIDs.push(_CVE_ID) */\n      swap1\n      dup1\n      0x01\n      dup2\n      sload\n      add\n      dup1\n      dup3\n      sstore\n      dup1\n      swap2\n      pop\n      pop\n      0x01\n      swap1\n      sub\n      swap1\n      0x00\n      mstore\n      keccak256(0x00, 0x20)\n      add\n      0x00\n      swap1\n      swap2\n      swap1\n      swap2\n      swap1\n      swap2\n      pop\n      swap1\n      dup2\n      tag_117\n      swap2\n      swap1\n      tag_111\n      jump\t// in\n    tag_117:\n      pop\n        /* \"vulnerabilities.sol\":1270:1326  VulnerabilityAdded(_CVE_ID, msg.sender, block.timestamp) */\n      0x01891033407f19d322d421f531b82efe9c947d2fa516da0379eda66007d2df4d\n        /* \"vulnerabilities.sol\":1289:1296  _CVE_ID */\n      dup7\n        /* \"vulnerabilities.sol\":1298:1308  msg.sender */\n      caller\n        /* \"vulnerabilities.sol\":1310:1325  block.timestamp */\n      timestamp\n        /* \"vulnerabilities.sol\":1270:1326  VulnerabilityAdded(_CVE_ID, msg.sender, block.timestamp) */\n      mload(0x40)\n      tag_118\n      swap4\n      swap3\n      swap2\n      swap1\n      tag_119\n      jump\t// in\n    tag_118:\n      mload(0x40)\n      dup1\n      swap2\n      sub\n      swap1\n      log1\n        /* \"vulnerabilities.sol\":807:1334  {... */\n      pop\n        /* \"vulnerabilities.sol\":593:1334  function addVulnerability(... */\n      pop\n      pop\n      pop\n      pop\n      pop\n      jump\t// out\n        /* \"vulnerabilities.sol\":432:457  string[] public allCVEIDs */\n    tag_30:\n      0x01\n      dup2\n      dup2\n      sload\n      dup2\n      lt\n      tag_120\n      jumpi\n      0x00\n      dup1\n      revert\n    tag_120:\n      swap1\n      0x00\n      mstore\n      keccak256(0x00, 0x20)\n      add\n      0x00\n      swap2\n      pop\n      swap1\n      pop\n      dup1\n      sload\n      tag_122\n      swap1\n      tag_39\n      jump\t// in\n    tag_122:\n      dup1\n      0x1f\n      add\n      0x20\n      dup1\n      swap2\n      div\n      mul\n      0x20\n      add\n      mload(0x40)\n      swap1\n      dup2\n      add\n      0x40\n      mstore\n      dup1\n      swap3\n      swap2\n      swap1\n      dup2\n      dup2\n      mstore\n      0x20\n      add\n      dup3\n      dup1\n      sload\n      tag_123\n      swap1\n      tag_39\n      jump\t// in\n    tag_123:\n      dup1\n      iszero\n      tag_124\n      jumpi\n      dup1\n      0x1f\n      lt\n      tag_125\n      jumpi\n      0x0100\n      dup1\n      dup4\n      sload\n      div\n      mul\n      dup4\n      mstore\n      swap2\n      0x20\n      add\n      swap2\n      jump(tag_124)\n    tag_125:\n      dup3\n      add\n      swap2\n      swap1\n      0x00\n      mstore\n      keccak256(0x00, 0x20)\n      swap1\n    tag_126:\n      dup2\n      sload\n      dup2\n      mstore\n      swap1\n      0x01\n      add\n      swap1\n      0x20\n      add\n      dup1\n      dup4\n      gt\n      tag_126\n      jumpi\n      dup3\n      swap1\n      sub\n      0x1f\n      and\n      dup3\n      add\n      swap2\n    tag_124:\n      pop\n      pop\n      pop\n      pop\n      pop\n      dup2\n      jump\t// out\n    tag_34:\n      mload(0x40)\n      dup1\n      0xe0\n      add\n      0x40\n      mstore\n      dup1\n      0x60\n      dup2\n      mstore\n      0x20\n      add\n      0x60\n      dup2\n      mstore\n      0x20\n      add\n      0x60\n      dup2\n      mstore\n      0x20\n      add\n      0x60\n      dup2\n      mstore\n      0x20\n      add\n      0x60\n      dup2\n      mstore\n      0x20\n      add\n      and(0xffffffffffffffffffffffffffffffffffffffff, 0x00)\n      dup2\n      mstore\n      0x20\n      add\n      0x00\n      dup2\n      mstore\n      pop\n      swap1\n      jump\t// out\n        /* \"#utility.yul\":7:82   */\n    tag_127:\n        /* \"#utility.yul\":40:46   */\n      0x00\n        /* \"#utility.yul\":73:75   */\n      0x40\n        /* \"#utility.yul\":67:76   */\n      mload\n        /* \"#utility.yul\":57:76   */\n      swap1\n      pop\n        /* \"#utility.yul\":7:82   */\n      swap1\n      jump\t// out\n        /* \"#utility.yul\":88:205   */\n    tag_128:\n        /* \"#utility.yul\":197:198   */\n      0x00\n        /* \"#utility.yul\":194:195   */\n      dup1\n        /* \"#utility.yul\":187:199   */\n      revert\n        /* \"#utility.yul\":211:328   */\n    tag_129:\n        /* \"#utility.yul\":320:321   */\n      0x00\n        /* \"#utility.yul\":317:318   */\n      dup1\n        /* \"#utility.yul\":310:322   */\n      revert\n        /* \"#utility.yul\":334:451   */\n    tag_130:\n        /* \"#utility.yul\":443:444   */\n      0x00\n        /* \"#utility.yul\":440:441   */\n      dup1\n        /* \"#utility.yul\":433:445   */\n      revert\n        /* \"#utility.yul\":457:574   */\n    tag_131:\n        /* \"#utility.yul\":566:567   */\n      0x00\n        /* \"#utility.yul\":563:564   */\n      dup1\n        /* \"#utility.yul\":556:568   */\n      revert\n        /* \"#utility.yul\":580:682   */\n    tag_132:\n        /* \"#utility.yul\":621:627   */\n      0x00\n        /* \"#utility.yul\":672:674   */\n      0x1f\n        /* \"#utility.yul\":668:675   */\n      not\n        /* \"#utility.yul\":663:665   */\n      0x1f\n        /* \"#utility.yul\":656:661   */\n      dup4\n        /* \"#utility.yul\":652:666   */\n      add\n        /* \"#utility.yul\":648:676   */\n      and\n        /* \"#utility.yul\":638:676   */\n      swap1\n      pop\n        /* \"#utility.yul\":580:682   */\n      swap2\n      swap1\n      pop\n      jump\t// out\n        /* \"#utility.yul\":688:868   */\n    tag_133:\n        /* \"#utility.yul\":736:813   */\n      0x4e487b7100000000000000000000000000000000000000000000000000000000\n        /* \"#utility.yul\":733:734   */\n      0x00\n        /* \"#utility.yul\":726:814   */\n      mstore\n        /* \"#utility.yul\":833:837   */\n      0x41\n        /* \"#utility.yul\":830:831   */\n      0x04\n        /* \"#utility.yul\":823:838   */\n      mstore\n        /* \"#utility.yul\":857:861   */\n      0x24\n        /* \"#utility.yul\":854:855   */\n      0x00\n        /* \"#utility.yul\":847:862   */\n      revert\n        /* \"#utility.yul\":874:1155   */\n    tag_134:\n        /* \"#utility.yul\":957:984   */\n      tag_193\n        /* \"#utility.yul\":979:983   */\n      dup3\n        /* \"#utility.yul\":957:984   */\n      tag_132\n      jump\t// in\n    tag_193:\n        /* \"#utility.yul\":949:955   */\n      dup2\n        /* \"#utility.yul\":945:985   */\n      add\n        /* \"#utility.yul\":1087:1093   */\n      dup2\n        /* \"#utility.yul\":1075:1085   */\n      dup2\n        /* \"#utility.yul\":1072:1094   */\n      lt\n        /* \"#utility.yul\":1051:1069   */\n      0xffffffffffffffff\n        /* \"#utility.yul\":1039:1049   */\n      dup3\n        /* \"#utility.yul\":1036:1070   */\n      gt\n        /* \"#utility.yul\":1033:1095   */\n      or\n        /* \"#utility.yul\":1030:1118   */\n      iszero\n      tag_194\n      jumpi\n        /* \"#utility.yul\":1098:1116   */\n      tag_195\n      tag_133\n      jump\t// in\n    tag_195:\n        /* \"#utility.yul\":1030:1118   */\n    tag_194:\n        /* \"#utility.yul\":1138:1148   */\n      dup1\n        /* \"#utility.yul\":1134:1136   */\n      0x40\n        /* \"#utility.yul\":1127:1149   */\n      mstore\n        /* \"#utility.yul\":917:1155   */\n      pop\n        /* \"#utility.yul\":874:1155   */\n      pop\n      pop\n      jump\t// out\n        /* \"#utility.yul\":1161:1290   */\n    tag_135:\n        /* \"#utility.yul\":1195:1201   */\n      0x00\n        /* \"#utility.yul\":1222:1242   */\n      tag_197\n      tag_127\n      jump\t// in\n    tag_197:\n        /* \"#utility.yul\":1212:1242   */\n      swap1\n      pop\n        /* \"#utility.yul\":1251:1284   */\n      tag_198\n        /* \"#utility.yul\":1279:1283   */\n      dup3\n        /* \"#utility.yul\":1271:1277   */\n      dup3\n        /* \"#utility.yul\":1251:1284   */\n      tag_134\n      jump\t// in\n    tag_198:\n        /* \"#utility.yul\":1161:1290   */\n      swap2\n      swap1\n      pop\n      jump\t// out\n        /* \"#utility.yul\":1296:1604   */\n    tag_136:\n        /* \"#utility.yul\":1358:1362   */\n      0x00\n        /* \"#utility.yul\":1448:1466   */\n      0xffffffffffffffff\n        /* \"#utility.yul\":1440:1446   */\n      dup3\n        /* \"#utility.yul\":1437:1467   */\n      gt\n        /* \"#utility.yul\":1434:1490   */\n      iszero\n      tag_200\n      jumpi\n        /* \"#utility.yul\":1470:1488   */\n      tag_201\n      tag_133\n      jump\t// in\n    tag_201:\n        /* \"#utility.yul\":1434:1490   */\n    tag_200:\n        /* \"#utility.yul\":1508:1537   */\n      tag_202\n        /* \"#utility.yul\":1530:1536   */\n      dup3\n        /* \"#utility.yul\":1508:1537   */\n      tag_132\n      jump\t// in\n    tag_202:\n        /* \"#utility.yul\":1500:1537   */\n      swap1\n      pop\n        /* \"#utility.yul\":1592:1596   */\n      0x20\n        /* \"#utility.yul\":1586:1590   */\n      dup2\n        /* \"#utility.yul\":1582:1597   */\n      add\n        /* \"#utility.yul\":1574:1597   */\n      swap1\n      pop\n        /* \"#utility.yul\":1296:1604   */\n      swap2\n      swap1\n      pop\n      jump\t// out\n        /* \"#utility.yul\":1610:1758   */\n    tag_137:\n        /* \"#utility.yul\":1708:1714   */\n      dup3\n        /* \"#utility.yul\":1703:1706   */\n      dup2\n        /* \"#utility.yul\":1698:1701   */\n      dup4\n        /* \"#utility.yul\":1685:1715   */\n      calldatacopy\n        /* \"#utility.yul\":1749:1750   */\n      0x00\n        /* \"#utility.yul\":1740:1746   */\n      dup4\n        /* \"#utility.yul\":1735:1738   */\n      dup4\n        /* \"#utility.yul\":1731:1747   */\n      add\n        /* \"#utility.yul\":1724:1751   */\n      mstore\n        /* \"#utility.yul\":1610:1758   */\n      pop\n      pop\n      pop\n      jump\t// out\n        /* \"#utility.yul\":1764:2189   */\n    tag_138:\n        /* \"#utility.yul\":1842:1847   */\n      0x00\n        /* \"#utility.yul\":1867:1933   */\n      tag_205\n        /* \"#utility.yul\":1883:1932   */\n      tag_206\n        /* \"#utility.yul\":1925:1931   */\n      dup5\n        /* \"#utility.yul\":1883:1932   */\n      tag_136\n      jump\t// in\n    tag_206:\n        /* \"#utility.yul\":1867:1933   */\n      tag_135\n      jump\t// in\n    tag_205:\n        /* \"#utility.yul\":1858:1933   */\n      swap1\n      pop\n        /* \"#utility.yul\":1956:1962   */\n      dup3\n        /* \"#utility.yul\":1949:1954   */\n      dup2\n        /* \"#utility.yul\":1942:1963   */\n      mstore\n        /* \"#utility.yul\":1994:1998   */\n      0x20\n        /* \"#utility.yul\":1987:1992   */\n      dup2\n        /* \"#utility.yul\":1983:1999   */\n      add\n        /* \"#utility.yul\":2032:2035   */\n      dup5\n        /* \"#utility.yul\":2023:2029   */\n      dup5\n        /* \"#utility.yul\":2018:2021   */\n      dup5\n        /* \"#utility.yul\":2014:2030   */\n      add\n        /* \"#utility.yul\":2011:2036   */\n      gt\n        /* \"#utility.yul\":2008:2120   */\n      iszero\n      tag_207\n      jumpi\n        /* \"#utility.yul\":2039:2118   */\n      tag_208\n      tag_131\n      jump\t// in\n    tag_208:\n        /* \"#utility.yul\":2008:2120   */\n    tag_207:\n        /* \"#utility.yul\":2129:2183   */\n      tag_209\n        /* \"#utility.yul\":2176:2182   */\n      dup5\n        /* \"#utility.yul\":2171:2174   */\n      dup3\n        /* \"#utility.yul\":2166:2169   */\n      dup6\n        /* \"#utility.yul\":2129:2183   */\n      tag_137\n      jump\t// in\n    tag_209:\n        /* \"#utility.yul\":1848:2189   */\n      pop\n        /* \"#utility.yul\":1764:2189   */\n      swap4\n      swap3\n      pop\n      pop\n      pop\n      jump\t// out\n        /* \"#utility.yul\":2209:2549   */\n    tag_139:\n        /* \"#utility.yul\":2265:2270   */\n      0x00\n        /* \"#utility.yul\":2314:2317   */\n      dup3\n        /* \"#utility.yul\":2307:2311   */\n      0x1f\n        /* \"#utility.yul\":2299:2305   */\n      dup4\n        /* \"#utility.yul\":2295:2312   */\n      add\n        /* \"#utility.yul\":2291:2318   */\n      slt\n        /* \"#utility.yul\":2281:2403   */\n      tag_211\n      jumpi\n        /* \"#utility.yul\":2322:2401   */\n      tag_212\n      tag_130\n      jump\t// in\n    tag_212:\n        /* \"#utility.yul\":2281:2403   */\n    tag_211:\n        /* \"#utility.yul\":2439:2445   */\n      dup2\n        /* \"#utility.yul\":2426:2446   */\n      calldataload\n        /* \"#utility.yul\":2464:2543   */\n      tag_213\n        /* \"#utility.yul\":2539:2542   */\n      dup5\n        /* \"#utility.yul\":2531:2537   */\n      dup3\n        /* \"#utility.yul\":2524:2528   */\n      0x20\n        /* \"#utility.yul\":2516:2522   */\n      dup7\n        /* \"#utility.yul\":2512:2529   */\n      add\n        /* \"#utility.yul\":2464:2543   */\n      tag_138\n      jump\t// in\n    tag_213:\n        /* \"#utility.yul\":2455:2543   */\n      swap2\n      pop\n        /* \"#utility.yul\":2271:2549   */\n      pop\n        /* \"#utility.yul\":2209:2549   */\n      swap3\n      swap2\n      pop\n      pop\n      jump\t// out\n        /* \"#utility.yul\":2555:3064   */\n    tag_10:\n        /* \"#utility.yul\":2624:2630   */\n      0x00\n        /* \"#utility.yul\":2673:2675   */\n      0x20\n        /* \"#utility.yul\":2661:2670   */\n      dup3\n        /* \"#utility.yul\":2652:2659   */\n      dup5\n        /* \"#utility.yul\":2648:2671   */\n      sub\n        /* \"#utility.yul\":2644:2676   */\n      slt\n        /* \"#utility.yul\":2641:2760   */\n      iszero\n      tag_215\n      jumpi\n        /* \"#utility.yul\":2679:2758   */\n      tag_216\n      tag_128\n      jump\t// in\n    tag_216:\n        /* \"#utility.yul\":2641:2760   */\n    tag_215:\n        /* \"#utility.yul\":2827:2828   */\n      0x00\n        /* \"#utility.yul\":2816:2825   */\n      dup3\n        /* \"#utility.yul\":2812:2829   */\n      add\n        /* \"#utility.yul\":2799:2830   */\n      calldataload\n        /* \"#utility.yul\":2857:2875   */\n      0xffffffffffffffff\n        /* \"#utility.yul\":2849:2855   */\n      dup2\n        /* \"#utility.yul\":2846:2876   */\n      gt\n        /* \"#utility.yul\":2843:2960   */\n      iszero\n      tag_217\n      jumpi\n        /* \"#utility.yul\":2879:2958   */\n      tag_218\n      tag_129\n      jump\t// in\n    tag_218:\n        /* \"#utility.yul\":2843:2960   */\n    tag_217:\n        /* \"#utility.yul\":2984:3047   */\n      tag_219\n        /* \"#utility.yul\":3039:3046   */\n      dup5\n        /* \"#utility.yul\":3030:3036   */\n      dup3\n        /* \"#utility.yul\":3019:3028   */\n      dup6\n        /* \"#utility.yul\":3015:3037   */\n      add\n        /* \"#utility.yul\":2984:3047   */\n      tag_139\n      jump\t// in\n    tag_219:\n        /* \"#utility.yul\":2974:3047   */\n      swap2\n      pop\n        /* \"#utility.yul\":2770:3057   */\n      pop\n        /* \"#utility.yul\":2555:3064   */\n      swap3\n      swap2\n      pop\n      pop\n      jump\t// out\n        /* \"#utility.yul\":3070:3169   */\n    tag_140:\n        /* \"#utility.yul\":3122:3128   */\n      0x00\n        /* \"#utility.yul\":3156:3161   */\n      dup2\n        /* \"#utility.yul\":3150:3162   */\n      mload\n        /* \"#utility.yul\":3140:3162   */\n      swap1\n      pop\n        /* \"#utility.yul\":3070:3169   */\n      swap2\n      swap1\n      pop\n      jump\t// out\n        /* \"#utility.yul\":3175:3334   */\n    tag_141:\n        /* \"#utility.yul\":3249:3260   */\n      0x00\n        /* \"#utility.yul\":3283:3289   */\n      dup3\n        /* \"#utility.yul\":3278:3281   */\n      dup3\n        /* \"#utility.yul\":3271:3290   */\n      mstore\n        /* \"#utility.yul\":3323:3327   */\n      0x20\n        /* \"#utility.yul\":3318:3321   */\n      dup3\n        /* \"#utility.yul\":3314:3328   */\n      add\n        /* \"#utility.yul\":3299:3328   */\n      swap1\n      pop\n        /* \"#utility.yul\":3175:3334   */\n      swap3\n      swap2\n      pop\n      pop\n      jump\t// out\n        /* \"#utility.yul\":3340:3479   */\n    tag_142:\n        /* \"#utility.yul\":3429:3435   */\n      dup3\n        /* \"#utility.yul\":3424:3427   */\n      dup2\n        /* \"#utility.yul\":3419:3422   */\n      dup4\n        /* \"#utility.yul\":3413:3436   */\n      mcopy\n        /* \"#utility.yul\":3470:3471   */\n      0x00\n        /* \"#utility.yul\":3461:3467   */\n      dup4\n        /* \"#utility.yul\":3456:3459   */\n      dup4\n        /* \"#utility.yul\":3452:3468   */\n      add\n        /* \"#utility.yul\":3445:3472   */\n      mstore\n        /* \"#utility.yul\":3340:3479   */\n      pop\n      pop\n      pop\n      jump\t// out\n        /* \"#utility.yul\":3485:3842   */\n    tag_143:\n        /* \"#utility.yul\":3563:3566   */\n      0x00\n        /* \"#utility.yul\":3591:3630   */\n      tag_224\n        /* \"#utility.yul\":3624:3629   */\n      dup3\n        /* \"#utility.yul\":3591:3630   */\n      tag_140\n      jump\t// in\n    tag_224:\n        /* \"#utility.yul\":3646:3707   */\n      tag_225\n        /* \"#utility.yul\":3700:3706   */\n      dup2\n        /* \"#utility.yul\":3695:3698   */\n      dup6\n        /* \"#utility.yul\":3646:3707   */\n      tag_141\n      jump\t// in\n    tag_225:\n        /* \"#utility.yul\":3639:3707   */\n      swap4\n      pop\n        /* \"#utility.yul\":3716:3781   */\n      tag_226\n        /* \"#utility.yul\":3774:3780   */\n      dup2\n        /* \"#utility.yul\":3769:3772   */\n      dup6\n        /* \"#utility.yul\":3762:3766   */\n      0x20\n        /* \"#utility.yul\":3755:3760   */\n      dup7\n        /* \"#utility.yul\":3751:3767   */\n      add\n        /* \"#utility.yul\":3716:3781   */\n      tag_142\n      jump\t// in\n    tag_226:\n        /* \"#utility.yul\":3806:3835   */\n      tag_227\n        /* \"#utility.yul\":3828:3834   */\n      dup2\n        /* \"#utility.yul\":3806:3835   */\n      tag_132\n      jump\t// in\n    tag_227:\n        /* \"#utility.yul\":3801:3804   */\n      dup5\n        /* \"#utility.yul\":3797:3836   */\n      add\n        /* \"#utility.yul\":3790:3836   */\n      swap2\n      pop\n        /* \"#utility.yul\":3567:3842   */\n      pop\n        /* \"#utility.yul\":3485:3842   */\n      swap3\n      swap2\n      pop\n      pop\n      jump\t// out\n        /* \"#utility.yul\":3848:3974   */\n    tag_144:\n        /* \"#utility.yul\":3885:3892   */\n      0x00\n        /* \"#utility.yul\":3925:3967   */\n      0xffffffffffffffffffffffffffffffffffffffff\n        /* \"#utility.yul\":3918:3923   */\n      dup3\n        /* \"#utility.yul\":3914:3968   */\n      and\n        /* \"#utility.yul\":3903:3968   */\n      swap1\n      pop\n        /* \"#utility.yul\":3848:3974   */\n      swap2\n      swap1\n      pop\n      jump\t// out\n        /* \"#utility.yul\":3980:4076   */\n    tag_145:\n        /* \"#utility.yul\":4017:4024   */\n      0x00\n        /* \"#utility.yul\":4046:4070   */\n      tag_230\n        /* \"#utility.yul\":4064:4069   */\n      dup3\n        /* \"#utility.yul\":4046:4070   */\n      tag_144\n      jump\t// in\n    tag_230:\n        /* \"#utility.yul\":4035:4070   */\n      swap1\n      pop\n        /* \"#utility.yul\":3980:4076   */\n      swap2\n      swap1\n      pop\n      jump\t// out\n        /* \"#utility.yul\":4082:4190   */\n    tag_146:\n        /* \"#utility.yul\":4159:4183   */\n      tag_232\n        /* \"#utility.yul\":4177:4182   */\n      dup2\n        /* \"#utility.yul\":4159:4183   */\n      tag_145\n      jump\t// in\n    tag_232:\n        /* \"#utility.yul\":4154:4157   */\n      dup3\n        /* \"#utility.yul\":4147:4184   */\n      mstore\n        /* \"#utility.yul\":4082:4190   */\n      pop\n      pop\n      jump\t// out\n        /* \"#utility.yul\":4196:4273   */\n    tag_147:\n        /* \"#utility.yul\":4233:4240   */\n      0x00\n        /* \"#utility.yul\":4262:4267   */\n      dup2\n        /* \"#utility.yul\":4251:4267   */\n      swap1\n      pop\n        /* \"#utility.yul\":4196:4273   */\n      swap2\n      swap1\n      pop\n      jump\t// out\n        /* \"#utility.yul\":4279:4387   */\n    tag_148:\n        /* \"#utility.yul\":4356:4380   */\n      tag_235\n        /* \"#utility.yul\":4374:4379   */\n      dup2\n        /* \"#utility.yul\":4356:4380   */\n      tag_147\n      jump\t// in\n    tag_235:\n        /* \"#utility.yul\":4351:4354   */\n      dup3\n        /* \"#utility.yul\":4344:4381   */\n      mstore\n        /* \"#utility.yul\":4279:4387   */\n      pop\n      pop\n      jump\t// out\n        /* \"#utility.yul\":4489:6289   */\n    tag_149:\n        /* \"#utility.yul\":4616:4619   */\n      0x00\n        /* \"#utility.yul\":4652:4656   */\n      0xe0\n        /* \"#utility.yul\":4647:4650   */\n      dup4\n        /* \"#utility.yul\":4643:4657   */\n      add\n        /* \"#utility.yul\":4741:4745   */\n      0x00\n        /* \"#utility.yul\":4734:4739   */\n      dup4\n        /* \"#utility.yul\":4730:4746   */\n      add\n        /* \"#utility.yul\":4724:4747   */\n      mload\n        /* \"#utility.yul\":4794:4797   */\n      dup5\n        /* \"#utility.yul\":4788:4792   */\n      dup3\n        /* \"#utility.yul\":4784:4798   */\n      sub\n        /* \"#utility.yul\":4777:4781   */\n      0x00\n        /* \"#utility.yul\":4772:4775   */\n      dup7\n        /* \"#utility.yul\":4768:4782   */\n      add\n        /* \"#utility.yul\":4761:4799   */\n      mstore\n        /* \"#utility.yul\":4820:4893   */\n      tag_237\n        /* \"#utility.yul\":4888:4892   */\n      dup3\n        /* \"#utility.yul\":4874:4886   */\n      dup3\n        /* \"#utility.yul\":4820:4893   */\n      tag_143\n      jump\t// in\n    tag_237:\n        /* \"#utility.yul\":4812:4893   */\n      swap2\n      pop\n        /* \"#utility.yul\":4667:4904   */\n      pop\n        /* \"#utility.yul\":4990:4994   */\n      0x20\n        /* \"#utility.yul\":4983:4988   */\n      dup4\n        /* \"#utility.yul\":4979:4995   */\n      add\n        /* \"#utility.yul\":4973:4996   */\n      mload\n        /* \"#utility.yul\":5043:5046   */\n      dup5\n        /* \"#utility.yul\":5037:5041   */\n      dup3\n        /* \"#utility.yul\":5033:5047   */\n      sub\n        /* \"#utility.yul\":5026:5030   */\n      0x20\n        /* \"#utility.yul\":5021:5024   */\n      dup7\n        /* \"#utility.yul\":5017:5031   */\n      add\n        /* \"#utility.yul\":5010:5048   */\n      mstore\n        /* \"#utility.yul\":5069:5142   */\n      tag_238\n        /* \"#utility.yul\":5137:5141   */\n      dup3\n        /* \"#utility.yul\":5123:5135   */\n      dup3\n        /* \"#utility.yul\":5069:5142   */\n      tag_143\n      jump\t// in\n    tag_238:\n        /* \"#utility.yul\":5061:5142   */\n      swap2\n      pop\n        /* \"#utility.yul\":4914:5153   */\n      pop\n        /* \"#utility.yul\":5242:5246   */\n      0x40\n        /* \"#utility.yul\":5235:5240   */\n      dup4\n        /* \"#utility.yul\":5231:5247   */\n      add\n        /* \"#utility.yul\":5225:5248   */\n      mload\n        /* \"#utility.yul\":5295:5298   */\n      dup5\n        /* \"#utility.yul\":5289:5293   */\n      dup3\n        /* \"#utility.yul\":5285:5299   */\n      sub\n        /* \"#utility.yul\":5278:5282   */\n      0x40\n        /* \"#utility.yul\":5273:5276   */\n      dup7\n        /* \"#utility.yul\":5269:5283   */\n      add\n        /* \"#utility.yul\":5262:5300   */\n      mstore\n        /* \"#utility.yul\":5321:5394   */\n      tag_239\n        /* \"#utility.yul\":5389:5393   */\n      dup3\n        /* \"#utility.yul\":5375:5387   */\n      dup3\n        /* \"#utility.yul\":5321:5394   */\n      tag_143\n      jump\t// in\n    tag_239:\n        /* \"#utility.yul\":5313:5394   */\n      swap2\n      pop\n        /* \"#utility.yul\":5163:5405   */\n      pop\n        /* \"#utility.yul\":5492:5496   */\n      0x60\n        /* \"#utility.yul\":5485:5490   */\n      dup4\n        /* \"#utility.yul\":5481:5497   */\n      add\n        /* \"#utility.yul\":5475:5498   */\n      mload\n        /* \"#utility.yul\":5545:5548   */\n      dup5\n        /* \"#utility.yul\":5539:5543   */\n      dup3\n        /* \"#utility.yul\":5535:5549   */\n      sub\n        /* \"#utility.yul\":5528:5532   */\n      0x60\n        /* \"#utility.yul\":5523:5526   */\n      dup7\n        /* \"#utility.yul\":5519:5533   */\n      add\n        /* \"#utility.yul\":5512:5550   */\n      mstore\n        /* \"#utility.yul\":5571:5644   */\n      tag_240\n        /* \"#utility.yul\":5639:5643   */\n      dup3\n        /* \"#utility.yul\":5625:5637   */\n      dup3\n        /* \"#utility.yul\":5571:5644   */\n      tag_143\n      jump\t// in\n    tag_240:\n        /* \"#utility.yul\":5563:5644   */\n      swap2\n      pop\n        /* \"#utility.yul\":5415:5655   */\n      pop\n        /* \"#utility.yul\":5743:5747   */\n      0x80\n        /* \"#utility.yul\":5736:5741   */\n      dup4\n        /* \"#utility.yul\":5732:5748   */\n      add\n        /* \"#utility.yul\":5726:5749   */\n      mload\n        /* \"#utility.yul\":5796:5799   */\n      dup5\n        /* \"#utility.yul\":5790:5794   */\n      dup3\n        /* \"#utility.yul\":5786:5800   */\n      sub\n        /* \"#utility.yul\":5779:5783   */\n      0x80\n        /* \"#utility.yul\":5774:5777   */\n      dup7\n        /* \"#utility.yul\":5770:5784   */\n      add\n        /* \"#utility.yul\":5763:5801   */\n      mstore\n        /* \"#utility.yul\":5822:5895   */\n      tag_241\n        /* \"#utility.yul\":5890:5894   */\n      dup3\n        /* \"#utility.yul\":5876:5888   */\n      dup3\n        /* \"#utility.yul\":5822:5895   */\n      tag_143\n      jump\t// in\n    tag_241:\n        /* \"#utility.yul\":5814:5895   */\n      swap2\n      pop\n        /* \"#utility.yul\":5665:5906   */\n      pop\n        /* \"#utility.yul\":5991:5995   */\n      0xa0\n        /* \"#utility.yul\":5984:5989   */\n      dup4\n        /* \"#utility.yul\":5980:5996   */\n      add\n        /* \"#utility.yul\":5974:5997   */\n      mload\n        /* \"#utility.yul\":6010:6073   */\n      tag_242\n        /* \"#utility.yul\":6067:6071   */\n      0xa0\n        /* \"#utility.yul\":6062:6065   */\n      dup7\n        /* \"#utility.yul\":6058:6072   */\n      add\n        /* \"#utility.yul\":6044:6056   */\n      dup3\n        /* \"#utility.yul\":6010:6073   */\n      tag_146\n      jump\t// in\n    tag_242:\n        /* \"#utility.yul\":5916:6083   */\n      pop\n        /* \"#utility.yul\":6170:6174   */\n      0xc0\n        /* \"#utility.yul\":6163:6168   */\n      dup4\n        /* \"#utility.yul\":6159:6175   */\n      add\n        /* \"#utility.yul\":6153:6176   */\n      mload\n        /* \"#utility.yul\":6189:6252   */\n      tag_243\n        /* \"#utility.yul\":6246:6250   */\n      0xc0\n        /* \"#utility.yul\":6241:6244   */\n      dup7\n        /* \"#utility.yul\":6237:6251   */\n      add\n        /* \"#utility.yul\":6223:6235   */\n      dup3\n        /* \"#utility.yul\":6189:6252   */\n      tag_148\n      jump\t// in\n    tag_243:\n        /* \"#utility.yul\":6093:6262   */\n      pop\n        /* \"#utility.yul\":6279:6283   */\n      dup1\n        /* \"#utility.yul\":6272:6283   */\n      swap2\n      pop\n        /* \"#utility.yul\":4621:6289   */\n      pop\n        /* \"#utility.yul\":4489:6289   */\n      swap3\n      swap2\n      pop\n      pop\n      jump\t// out\n        /* \"#utility.yul\":6295:6684   */\n    tag_13:\n        /* \"#utility.yul\":6446:6450   */\n      0x00\n        /* \"#utility.yul\":6484:6486   */\n      0x20\n        /* \"#utility.yul\":6473:6482   */\n      dup3\n        /* \"#utility.yul\":6469:6487   */\n      add\n        /* \"#utility.yul\":6461:6487   */\n      swap1\n      pop\n        /* \"#utility.yul\":6533:6542   */\n      dup2\n        /* \"#utility.yul\":6527:6531   */\n      dup2\n        /* \"#utility.yul\":6523:6543   */\n      sub\n        /* \"#utility.yul\":6519:6520   */\n      0x00\n        /* \"#utility.yul\":6508:6517   */\n      dup4\n        /* \"#utility.yul\":6504:6521   */\n      add\n        /* \"#utility.yul\":6497:6544   */\n      mstore\n        /* \"#utility.yul\":6561:6677   */\n      tag_245\n        /* \"#utility.yul\":6672:6676   */\n      dup2\n        /* \"#utility.yul\":6663:6669   */\n      dup5\n        /* \"#utility.yul\":6561:6677   */\n      tag_149\n      jump\t// in\n    tag_245:\n        /* \"#utility.yul\":6553:6677   */\n      swap1\n      pop\n        /* \"#utility.yul\":6295:6684   */\n      swap3\n      swap2\n      pop\n      pop\n      jump\t// out\n        /* \"#utility.yul\":6690:6814   */\n    tag_150:\n        /* \"#utility.yul\":6767:6773   */\n      0x00\n        /* \"#utility.yul\":6801:6806   */\n      dup2\n        /* \"#utility.yul\":6795:6807   */\n      mload\n        /* \"#utility.yul\":6785:6807   */\n      swap1\n      pop\n        /* \"#utility.yul\":6690:6814   */\n      swap2\n      swap1\n      pop\n      jump\t// out\n        /* \"#utility.yul\":6820:7014   */\n    tag_151:\n        /* \"#utility.yul\":6929:6940   */\n      0x00\n        /* \"#utility.yul\":6963:6969   */\n      dup3\n        /* \"#utility.yul\":6958:6961   */\n      dup3\n        /* \"#utility.yul\":6951:6970   */\n      mstore\n        /* \"#utility.yul\":7003:7007   */\n      0x20\n        /* \"#utility.yul\":6998:7001   */\n      dup3\n        /* \"#utility.yul\":6994:7008   */\n      add\n        /* \"#utility.yul\":6979:7008   */\n      swap1\n      pop\n        /* \"#utility.yul\":6820:7014   */\n      swap3\n      swap2\n      pop\n      pop\n      jump\t// out\n        /* \"#utility.yul\":7020:7162   */\n    tag_152:\n        /* \"#utility.yul\":7097:7101   */\n      0x00\n        /* \"#utility.yul\":7120:7123   */\n      dup2\n        /* \"#utility.yul\":7112:7123   */\n      swap1\n      pop\n        /* \"#utility.yul\":7150:7154   */\n      0x20\n        /* \"#utility.yul\":7145:7148   */\n      dup3\n        /* \"#utility.yul\":7141:7155   */\n      add\n        /* \"#utility.yul\":7133:7155   */\n      swap1\n      pop\n        /* \"#utility.yul\":7020:7162   */\n      swap2\n      swap1\n      pop\n      jump\t// out\n        /* \"#utility.yul\":7168:7364   */\n    tag_153:\n        /* \"#utility.yul\":7257:7267   */\n      0x00\n        /* \"#utility.yul\":7292:7358   */\n      tag_250\n        /* \"#utility.yul\":7354:7357   */\n      dup4\n        /* \"#utility.yul\":7346:7352   */\n      dup4\n        /* \"#utility.yul\":7292:7358   */\n      tag_143\n      jump\t// in\n    tag_250:\n        /* \"#utility.yul\":7278:7358   */\n      swap1\n      pop\n        /* \"#utility.yul\":7168:7364   */\n      swap3\n      swap2\n      pop\n      pop\n      jump\t// out\n        /* \"#utility.yul\":7370:7493   */\n    tag_154:\n        /* \"#utility.yul\":7450:7454   */\n      0x00\n        /* \"#utility.yul\":7482:7486   */\n      0x20\n        /* \"#utility.yul\":7477:7480   */\n      dup3\n        /* \"#utility.yul\":7473:7487   */\n      add\n        /* \"#utility.yul\":7465:7487   */\n      swap1\n      pop\n        /* \"#utility.yul\":7370:7493   */\n      swap2\n      swap1\n      pop\n      jump\t// out\n        /* \"#utility.yul\":7527:8518   */\n    tag_155:\n        /* \"#utility.yul\":7666:7669   */\n      0x00\n        /* \"#utility.yul\":7695:7759   */\n      tag_253\n        /* \"#utility.yul\":7753:7758   */\n      dup3\n        /* \"#utility.yul\":7695:7759   */\n      tag_150\n      jump\t// in\n    tag_253:\n        /* \"#utility.yul\":7775:7871   */\n      tag_254\n        /* \"#utility.yul\":7864:7870   */\n      dup2\n        /* \"#utility.yul\":7859:7862   */\n      dup6\n        /* \"#utility.yul\":7775:7871   */\n      tag_151\n      jump\t// in\n    tag_254:\n        /* \"#utility.yul\":7768:7871   */\n      swap4\n      pop\n        /* \"#utility.yul\":7897:7900   */\n      dup4\n        /* \"#utility.yul\":7942:7946   */\n      0x20\n        /* \"#utility.yul\":7934:7940   */\n      dup3\n        /* \"#utility.yul\":7930:7947   */\n      mul\n        /* \"#utility.yul\":7925:7928   */\n      dup6\n        /* \"#utility.yul\":7921:7948   */\n      add\n        /* \"#utility.yul\":7972:8038   */\n      tag_255\n        /* \"#utility.yul\":8032:8037   */\n      dup6\n        /* \"#utility.yul\":7972:8038   */\n      tag_152\n      jump\t// in\n    tag_255:\n        /* \"#utility.yul\":8061:8068   */\n      dup1\n        /* \"#utility.yul\":8092:8093   */\n      0x00\n        /* \"#utility.yul\":8077:8473   */\n    tag_256:\n        /* \"#utility.yul\":8102:8108   */\n      dup6\n        /* \"#utility.yul\":8099:8100   */\n      dup2\n        /* \"#utility.yul\":8096:8109   */\n      lt\n        /* \"#utility.yul\":8077:8473   */\n      iszero\n      tag_258\n      jumpi\n        /* \"#utility.yul\":8173:8182   */\n      dup5\n        /* \"#utility.yul\":8167:8171   */\n      dup5\n        /* \"#utility.yul\":8163:8183   */\n      sub\n        /* \"#utility.yul\":8158:8161   */\n      dup10\n        /* \"#utility.yul\":8151:8184   */\n      mstore\n        /* \"#utility.yul\":8224:8230   */\n      dup2\n        /* \"#utility.yul\":8218:8231   */\n      mload\n        /* \"#utility.yul\":8252:8336   */\n      tag_259\n        /* \"#utility.yul\":8331:8335   */\n      dup6\n        /* \"#utility.yul\":8316:8329   */\n      dup3\n        /* \"#utility.yul\":8252:8336   */\n      tag_153\n      jump\t// in\n    tag_259:\n        /* \"#utility.yul\":8244:8336   */\n      swap5\n      pop\n        /* \"#utility.yul\":8359:8429   */\n      tag_260\n        /* \"#utility.yul\":8422:8428   */\n      dup4\n        /* \"#utility.yul\":8359:8429   */\n      tag_154\n      jump\t// in\n    tag_260:\n        /* \"#utility.yul\":8349:8429   */\n      swap3\n      pop\n        /* \"#utility.yul\":8458:8462   */\n      0x20\n        /* \"#utility.yul\":8453:8456   */\n      dup11\n        /* \"#utility.yul\":8449:8463   */\n      add\n        /* \"#utility.yul\":8442:8463   */\n      swap10\n      pop\n        /* \"#utility.yul\":8137:8473   */\n      pop\n        /* \"#utility.yul\":8124:8125   */\n      0x01\n        /* \"#utility.yul\":8121:8122   */\n      dup2\n        /* \"#utility.yul\":8117:8126   */\n      add\n        /* \"#utility.yul\":8112:8126   */\n      swap1\n      pop\n        /* \"#utility.yul\":8077:8473   */\n      jump(tag_256)\n    tag_258:\n        /* \"#utility.yul\":8081:8095   */\n      pop\n        /* \"#utility.yul\":8489:8493   */\n      dup3\n        /* \"#utility.yul\":8482:8493   */\n      swap8\n      pop\n        /* \"#utility.yul\":8509:8512   */\n      dup8\n        /* \"#utility.yul\":8502:8512   */\n      swap6\n      pop\n        /* \"#utility.yul\":7671:8518   */\n      pop\n      pop\n      pop\n      pop\n      pop\n        /* \"#utility.yul\":7527:8518   */\n      swap3\n      swap2\n      pop\n      pop\n      jump\t// out\n        /* \"#utility.yul\":8524:8937   */\n    tag_17:\n        /* \"#utility.yul\":8687:8691   */\n      0x00\n        /* \"#utility.yul\":8725:8727   */\n      0x20\n        /* \"#utility.yul\":8714:8723   */\n      dup3\n        /* \"#utility.yul\":8710:8728   */\n      add\n        /* \"#utility.yul\":8702:8728   */\n      swap1\n      pop\n        /* \"#utility.yul\":8774:8783   */\n      dup2\n        /* \"#utility.yul\":8768:8772   */\n      dup2\n        /* \"#utility.yul\":8764:8784   */\n      sub\n        /* \"#utility.yul\":8760:8761   */\n      0x00\n        /* \"#utility.yul\":8749:8758   */\n      dup4\n        /* \"#utility.yul\":8745:8762   */\n      add\n        /* \"#utility.yul\":8738:8785   */\n      mstore\n        /* \"#utility.yul\":8802:8930   */\n      tag_262\n        /* \"#utility.yul\":8925:8929   */\n      dup2\n        /* \"#utility.yul\":8916:8922   */\n      dup5\n        /* \"#utility.yul\":8802:8930   */\n      tag_155\n      jump\t// in\n    tag_262:\n        /* \"#utility.yul\":8794:8930   */\n      swap1\n      pop\n        /* \"#utility.yul\":8524:8937   */\n      swap3\n      swap2\n      pop\n      pop\n      jump\t// out\n        /* \"#utility.yul\":8943:9112   */\n    tag_156:\n        /* \"#utility.yul\":9027:9038   */\n      0x00\n        /* \"#utility.yul\":9061:9067   */\n      dup3\n        /* \"#utility.yul\":9056:9059   */\n      dup3\n        /* \"#utility.yul\":9049:9068   */\n      mstore\n        /* \"#utility.yul\":9101:9105   */\n      0x20\n        /* \"#utility.yul\":9096:9099   */\n      dup3\n        /* \"#utility.yul\":9092:9106   */\n      add\n        /* \"#utility.yul\":9077:9106   */\n      swap1\n      pop\n        /* \"#utility.yul\":8943:9112   */\n      swap3\n      swap2\n      pop\n      pop\n      jump\t// out\n        /* \"#utility.yul\":9118:9495   */\n    tag_157:\n        /* \"#utility.yul\":9206:9209   */\n      0x00\n        /* \"#utility.yul\":9234:9273   */\n      tag_265\n        /* \"#utility.yul\":9267:9272   */\n      dup3\n        /* \"#utility.yul\":9234:9273   */\n      tag_140\n      jump\t// in\n    tag_265:\n        /* \"#utility.yul\":9289:9360   */\n      tag_266\n        /* \"#utility.yul\":9353:9359   */\n      dup2\n        /* \"#utility.yul\":9348:9351   */\n      dup6\n        /* \"#utility.yul\":9289:9360   */\n      tag_156\n      jump\t// in\n    tag_266:\n        /* \"#utility.yul\":9282:9360   */\n      swap4\n      pop\n        /* \"#utility.yul\":9369:9434   */\n      tag_267\n        /* \"#utility.yul\":9427:9433   */\n      dup2\n        /* \"#utility.yul\":9422:9425   */\n      dup6\n        /* \"#utility.yul\":9415:9419   */\n      0x20\n        /* \"#utility.yul\":9408:9413   */\n      dup7\n        /* \"#utility.yul\":9404:9420   */\n      add\n        /* \"#utility.yul\":9369:9434   */\n      tag_142\n      jump\t// in\n    tag_267:\n        /* \"#utility.yul\":9459:9488   */\n      tag_268\n        /* \"#utility.yul\":9481:9487   */\n      dup2\n        /* \"#utility.yul\":9459:9488   */\n      tag_132\n      jump\t// in\n    tag_268:\n        /* \"#utility.yul\":9454:9457   */\n      dup5\n        /* \"#utility.yul\":9450:9489   */\n      add\n        /* \"#utility.yul\":9443:9489   */\n      swap2\n      pop\n        /* \"#utility.yul\":9210:9495   */\n      pop\n        /* \"#utility.yul\":9118:9495   */\n      swap3\n      swap2\n      pop\n      pop\n      jump\t// out\n        /* \"#utility.yul\":9501:9619   */\n    tag_158:\n        /* \"#utility.yul\":9588:9612   */\n      tag_270\n        /* \"#utility.yul\":9606:9611   */\n      dup2\n        /* \"#utility.yul\":9588:9612   */\n      tag_145\n      jump\t// in\n    tag_270:\n        /* \"#utility.yul\":9583:9586   */\n      dup3\n        /* \"#utility.yul\":9576:9613   */\n      mstore\n        /* \"#utility.yul\":9501:9619   */\n      pop\n      pop\n      jump\t// out\n        /* \"#utility.yul\":9625:9743   */\n    tag_159:\n        /* \"#utility.yul\":9712:9736   */\n      tag_272\n        /* \"#utility.yul\":9730:9735   */\n      dup2\n        /* \"#utility.yul\":9712:9736   */\n      tag_147\n      jump\t// in\n    tag_272:\n        /* \"#utility.yul\":9707:9710   */\n      dup3\n        /* \"#utility.yul\":9700:9737   */\n      mstore\n        /* \"#utility.yul\":9625:9743   */\n      pop\n      pop\n      jump\t// out\n        /* \"#utility.yul\":9749:11090   */\n    tag_22:\n        /* \"#utility.yul\":10110:10114   */\n      0x00\n        /* \"#utility.yul\":10148:10151   */\n      0xe0\n        /* \"#utility.yul\":10137:10146   */\n      dup3\n        /* \"#utility.yul\":10133:10152   */\n      add\n        /* \"#utility.yul\":10125:10152   */\n      swap1\n      pop\n        /* \"#utility.yul\":10198:10207   */\n      dup2\n        /* \"#utility.yul\":10192:10196   */\n      dup2\n        /* \"#utility.yul\":10188:10208   */\n      sub\n        /* \"#utility.yul\":10184:10185   */\n      0x00\n        /* \"#utility.yul\":10173:10182   */\n      dup4\n        /* \"#utility.yul\":10169:10186   */\n      add\n        /* \"#utility.yul\":10162:10209   */\n      mstore\n        /* \"#utility.yul\":10226:10304   */\n      tag_274\n        /* \"#utility.yul\":10299:10303   */\n      dup2\n        /* \"#utility.yul\":10290:10296   */\n      dup11\n        /* \"#utility.yul\":10226:10304   */\n      tag_157\n      jump\t// in\n    tag_274:\n        /* \"#utility.yul\":10218:10304   */\n      swap1\n      pop\n        /* \"#utility.yul\":10351:10360   */\n      dup2\n        /* \"#utility.yul\":10345:10349   */\n      dup2\n        /* \"#utility.yul\":10341:10361   */\n      sub\n        /* \"#utility.yul\":10336:10338   */\n      0x20\n        /* \"#utility.yul\":10325:10334   */\n      dup4\n        /* \"#utility.yul\":10321:10339   */\n      add\n        /* \"#utility.yul\":10314:10362   */\n      mstore\n        /* \"#utility.yul\":10379:10457   */\n      tag_275\n        /* \"#utility.yul\":10452:10456   */\n      dup2\n        /* \"#utility.yul\":10443:10449   */\n      dup10\n        /* \"#utility.yul\":10379:10457   */\n      tag_157\n      jump\t// in\n    tag_275:\n        /* \"#utility.yul\":10371:10457   */\n      swap1\n      pop\n        /* \"#utility.yul\":10504:10513   */\n      dup2\n        /* \"#utility.yul\":10498:10502   */\n      dup2\n        /* \"#utility.yul\":10494:10514   */\n      sub\n        /* \"#utility.yul\":10489:10491   */\n      0x40\n        /* \"#utility.yul\":10478:10487   */\n      dup4\n        /* \"#utility.yul\":10474:10492   */\n      add\n        /* \"#utility.yul\":10467:10515   */\n      mstore\n        /* \"#utility.yul\":10532:10610   */\n      tag_276\n        /* \"#utility.yul\":10605:10609   */\n      dup2\n        /* \"#utility.yul\":10596:10602   */\n      dup9\n        /* \"#utility.yul\":10532:10610   */\n      tag_157\n      jump\t// in\n    tag_276:\n        /* \"#utility.yul\":10524:10610   */\n      swap1\n      pop\n        /* \"#utility.yul\":10657:10666   */\n      dup2\n        /* \"#utility.yul\":10651:10655   */\n      dup2\n        /* \"#utility.yul\":10647:10667   */\n      sub\n        /* \"#utility.yul\":10642:10644   */\n      0x60\n        /* \"#utility.yul\":10631:10640   */\n      dup4\n        /* \"#utility.yul\":10627:10645   */\n      add\n        /* \"#utility.yul\":10620:10668   */\n      mstore\n        /* \"#utility.yul\":10685:10763   */\n      tag_277\n        /* \"#utility.yul\":10758:10762   */\n      dup2\n        /* \"#utility.yul\":10749:10755   */\n      dup8\n        /* \"#utility.yul\":10685:10763   */\n      tag_157\n      jump\t// in\n    tag_277:\n        /* \"#utility.yul\":10677:10763   */\n      swap1\n      pop\n        /* \"#utility.yul\":10811:10820   */\n      dup2\n        /* \"#utility.yul\":10805:10809   */\n      dup2\n        /* \"#utility.yul\":10801:10821   */\n      sub\n        /* \"#utility.yul\":10795:10798   */\n      0x80\n        /* \"#utility.yul\":10784:10793   */\n      dup4\n        /* \"#utility.yul\":10780:10799   */\n      add\n        /* \"#utility.yul\":10773:10822   */\n      mstore\n        /* \"#utility.yul\":10839:10917   */\n      tag_278\n        /* \"#utility.yul\":10912:10916   */\n      dup2\n        /* \"#utility.yul\":10903:10909   */\n      dup7\n        /* \"#utility.yul\":10839:10917   */\n      tag_157\n      jump\t// in\n    tag_278:\n        /* \"#utility.yul\":10831:10917   */\n      swap1\n      pop\n        /* \"#utility.yul\":10927:11000   */\n      tag_279\n        /* \"#utility.yul\":10995:10998   */\n      0xa0\n        /* \"#utility.yul\":10984:10993   */\n      dup4\n        /* \"#utility.yul\":10980:10999   */\n      add\n        /* \"#utility.yul\":10971:10977   */\n      dup6\n        /* \"#utility.yul\":10927:11000   */\n      tag_158\n      jump\t// in\n    tag_279:\n        /* \"#utility.yul\":11010:11083   */\n      tag_280\n        /* \"#utility.yul\":11078:11081   */\n      0xc0\n        /* \"#utility.yul\":11067:11076   */\n      dup4\n        /* \"#utility.yul\":11063:11082   */\n      add\n        /* \"#utility.yul\":11054:11060   */\n      dup5\n        /* \"#utility.yul\":11010:11083   */\n      tag_159\n      jump\t// in\n    tag_280:\n        /* \"#utility.yul\":9749:11090   */\n      swap9\n      swap8\n      pop\n      pop\n      pop\n      pop\n      pop\n      pop\n      pop\n      pop\n      jump\t// out\n        /* \"#utility.yul\":11096:12907   */\n    tag_25:\n        /* \"#utility.yul\":11241:11247   */\n      0x00\n        /* \"#utility.yul\":11249:11255   */\n      dup1\n        /* \"#utility.yul\":11257:11263   */\n      0x00\n        /* \"#utility.yul\":11265:11271   */\n      dup1\n        /* \"#utility.yul\":11273:11279   */\n      0x00\n        /* \"#utility.yul\":11322:11325   */\n      0xa0\n        /* \"#utility.yul\":11310:11319   */\n      dup7\n        /* \"#utility.yul\":11301:11308   */\n      dup9\n        /* \"#utility.yul\":11297:11320   */\n      sub\n        /* \"#utility.yul\":11293:11326   */\n      slt\n        /* \"#utility.yul\":11290:11410   */\n      iszero\n      tag_282\n      jumpi\n        /* \"#utility.yul\":11329:11408   */\n      tag_283\n      tag_128\n      jump\t// in\n    tag_283:\n        /* \"#utility.yul\":11290:11410   */\n    tag_282:\n        /* \"#utility.yul\":11477:11478   */\n      0x00\n        /* \"#utility.yul\":11466:11475   */\n      dup7\n        /* \"#utility.yul\":11462:11479   */\n      add\n        /* \"#utility.yul\":11449:11480   */\n      calldataload\n        /* \"#utility.yul\":11507:11525   */\n      0xffffffffffffffff\n        /* \"#utility.yul\":11499:11505   */\n      dup2\n        /* \"#utility.yul\":11496:11526   */\n      gt\n        /* \"#utility.yul\":11493:11610   */\n      iszero\n      tag_284\n      jumpi\n        /* \"#utility.yul\":11529:11608   */\n      tag_285\n      tag_129\n      jump\t// in\n    tag_285:\n        /* \"#utility.yul\":11493:11610   */\n    tag_284:\n        /* \"#utility.yul\":11634:11697   */\n      tag_286\n        /* \"#utility.yul\":11689:11696   */\n      dup9\n        /* \"#utility.yul\":11680:11686   */\n      dup3\n        /* \"#utility.yul\":11669:11678   */\n      dup10\n        /* \"#utility.yul\":11665:11687   */\n      add\n        /* \"#utility.yul\":11634:11697   */\n      tag_139\n      jump\t// in\n    tag_286:\n        /* \"#utility.yul\":11624:11697   */\n      swap6\n      pop\n        /* \"#utility.yul\":11420:11707   */\n      pop\n        /* \"#utility.yul\":11774:11776   */\n      0x20\n        /* \"#utility.yul\":11763:11772   */\n      dup7\n        /* \"#utility.yul\":11759:11777   */\n      add\n        /* \"#utility.yul\":11746:11778   */\n      calldataload\n        /* \"#utility.yul\":11805:11823   */\n      0xffffffffffffffff\n        /* \"#utility.yul\":11797:11803   */\n      dup2\n        /* \"#utility.yul\":11794:11824   */\n      gt\n        /* \"#utility.yul\":11791:11908   */\n      iszero\n      tag_287\n      jumpi\n        /* \"#utility.yul\":11827:11906   */\n      tag_288\n      tag_129\n      jump\t// in\n    tag_288:\n        /* \"#utility.yul\":11791:11908   */\n    tag_287:\n        /* \"#utility.yul\":11932:11995   */\n      tag_289\n        /* \"#utility.yul\":11987:11994   */\n      dup9\n        /* \"#utility.yul\":11978:11984   */\n      dup3\n        /* \"#utility.yul\":11967:11976   */\n      dup10\n        /* \"#utility.yul\":11963:11985   */\n      add\n        /* \"#utility.yul\":11932:11995   */\n      tag_139\n      jump\t// in\n    tag_289:\n        /* \"#utility.yul\":11922:11995   */\n      swap5\n      pop\n        /* \"#utility.yul\":11717:12005   */\n      pop\n        /* \"#utility.yul\":12072:12074   */\n      0x40\n        /* \"#utility.yul\":12061:12070   */\n      dup7\n        /* \"#utility.yul\":12057:12075   */\n      add\n        /* \"#utility.yul\":12044:12076   */\n      calldataload\n        /* \"#utility.yul\":12103:12121   */\n      0xffffffffffffffff\n        /* \"#utility.yul\":12095:12101   */\n      dup2\n        /* \"#utility.yul\":12092:12122   */\n      gt\n        /* \"#utility.yul\":12089:12206   */\n      iszero\n      tag_290\n      jumpi\n        /* \"#utility.yul\":12125:12204   */\n      tag_291\n      tag_129\n      jump\t// in\n    tag_291:\n        /* \"#utility.yul\":12089:12206   */\n    tag_290:\n        /* \"#utility.yul\":12230:12293   */\n      tag_292\n        /* \"#utility.yul\":12285:12292   */\n      dup9\n        /* \"#utility.yul\":12276:12282   */\n      dup3\n        /* \"#utility.yul\":12265:12274   */\n      dup10\n        /* \"#utility.yul\":12261:12283   */\n      add\n        /* \"#utility.yul\":12230:12293   */\n      tag_139\n      jump\t// in\n    tag_292:\n        /* \"#utility.yul\":12220:12293   */\n      swap4\n      pop\n        /* \"#utility.yul\":12015:12303   */\n      pop\n        /* \"#utility.yul\":12370:12372   */\n      0x60\n        /* \"#utility.yul\":12359:12368   */\n      dup7\n        /* \"#utility.yul\":12355:12373   */\n      add\n        /* \"#utility.yul\":12342:12374   */\n      calldataload\n        /* \"#utility.yul\":12401:12419   */\n      0xffffffffffffffff\n        /* \"#utility.yul\":12393:12399   */\n      dup2\n        /* \"#utility.yul\":12390:12420   */\n      gt\n        /* \"#utility.yul\":12387:12504   */\n      iszero\n      tag_293\n      jumpi\n        /* \"#utility.yul\":12423:12502   */\n      tag_294\n      tag_129\n      jump\t// in\n    tag_294:\n        /* \"#utility.yul\":12387:12504   */\n    tag_293:\n        /* \"#utility.yul\":12528:12591   */\n      tag_295\n        /* \"#utility.yul\":12583:12590   */\n      dup9\n        /* \"#utility.yul\":12574:12580   */\n      dup3\n        /* \"#utility.yul\":12563:12572   */\n      dup10\n        /* \"#utility.yul\":12559:12581   */\n      add\n        /* \"#utility.yul\":12528:12591   */\n      tag_139\n      jump\t// in\n    tag_295:\n        /* \"#utility.yul\":12518:12591   */\n      swap3\n      pop\n        /* \"#utility.yul\":12313:12601   */\n      pop\n        /* \"#utility.yul\":12668:12671   */\n      0x80\n        /* \"#utility.yul\":12657:12666   */\n      dup7\n        /* \"#utility.yul\":12653:12672   */\n      add\n        /* \"#utility.yul\":12640:12673   */\n      calldataload\n        /* \"#utility.yul\":12700:12718   */\n      0xffffffffffffffff\n        /* \"#utility.yul\":12692:12698   */\n      dup2\n        /* \"#utility.yul\":12689:12719   */\n      gt\n        /* \"#utility.yul\":12686:12803   */\n      iszero\n      tag_296\n      jumpi\n        /* \"#utility.yul\":12722:12801   */\n      tag_297\n      tag_129\n      jump\t// in\n    tag_297:\n        /* \"#utility.yul\":12686:12803   */\n    tag_296:\n        /* \"#utility.yul\":12827:12890   */\n      tag_298\n        /* \"#utility.yul\":12882:12889   */\n      dup9\n        /* \"#utility.yul\":12873:12879   */\n      dup3\n        /* \"#utility.yul\":12862:12871   */\n      dup10\n        /* \"#utility.yul\":12858:12880   */\n      add\n        /* \"#utility.yul\":12827:12890   */\n      tag_139\n      jump\t// in\n    tag_298:\n        /* \"#utility.yul\":12817:12890   */\n      swap2\n      pop\n        /* \"#utility.yul\":12611:12900   */\n      pop\n        /* \"#utility.yul\":11096:12907   */\n      swap3\n      swap6\n      pop\n      swap3\n      swap6\n      swap1\n      swap4\n      pop\n      jump\t// out\n        /* \"#utility.yul\":12913:13035   */\n    tag_160:\n        /* \"#utility.yul\":12986:13010   */\n      tag_300\n        /* \"#utility.yul\":13004:13009   */\n      dup2\n        /* \"#utility.yul\":12986:13010   */\n      tag_147\n      jump\t// in\n    tag_300:\n        /* \"#utility.yul\":12979:12984   */\n      dup2\n        /* \"#utility.yul\":12976:13011   */\n      eq\n        /* \"#utility.yul\":12966:13029   */\n      tag_301\n      jumpi\n        /* \"#utility.yul\":13025:13026   */\n      0x00\n        /* \"#utility.yul\":13022:13023   */\n      dup1\n        /* \"#utility.yul\":13015:13027   */\n      revert\n        /* \"#utility.yul\":12966:13029   */\n    tag_301:\n        /* \"#utility.yul\":12913:13035   */\n      pop\n      jump\t// out\n        /* \"#utility.yul\":13041:13180   */\n    tag_161:\n        /* \"#utility.yul\":13087:13092   */\n      0x00\n        /* \"#utility.yul\":13125:13131   */\n      dup2\n        /* \"#utility.yul\":13112:13132   */\n      calldataload\n        /* \"#utility.yul\":13103:13132   */\n      swap1\n      pop\n        /* \"#utility.yul\":13141:13174   */\n      tag_303\n        /* \"#utility.yul\":13168:13173   */\n      dup2\n        /* \"#utility.yul\":13141:13174   */\n      tag_160\n      jump\t// in\n    tag_303:\n        /* \"#utility.yul\":13041:13180   */\n      swap3\n      swap2\n      pop\n      pop\n      jump\t// out\n        /* \"#utility.yul\":13186:13515   */\n    tag_29:\n        /* \"#utility.yul\":13245:13251   */\n      0x00\n        /* \"#utility.yul\":13294:13296   */\n      0x20\n        /* \"#utility.yul\":13282:13291   */\n      dup3\n        /* \"#utility.yul\":13273:13280   */\n      dup5\n        /* \"#utility.yul\":13269:13292   */\n      sub\n        /* \"#utility.yul\":13265:13297   */\n      slt\n        /* \"#utility.yul\":13262:13381   */\n      iszero\n      tag_305\n      jumpi\n        /* \"#utility.yul\":13300:13379   */\n      tag_306\n      tag_128\n      jump\t// in\n    tag_306:\n        /* \"#utility.yul\":13262:13381   */\n    tag_305:\n        /* \"#utility.yul\":13420:13421   */\n      0x00\n        /* \"#utility.yul\":13445:13498   */\n      tag_307\n        /* \"#utility.yul\":13490:13497   */\n      dup5\n        /* \"#utility.yul\":13481:13487   */\n      dup3\n        /* \"#utility.yul\":13470:13479   */\n      dup6\n        /* \"#utility.yul\":13466:13488   */\n      add\n        /* \"#utility.yul\":13445:13498   */\n      tag_161\n      jump\t// in\n    tag_307:\n        /* \"#utility.yul\":13435:13498   */\n      swap2\n      pop\n        /* \"#utility.yul\":13391:13508   */\n      pop\n        /* \"#utility.yul\":13186:13515   */\n      swap3\n      swap2\n      pop\n      pop\n      jump\t// out\n        /* \"#utility.yul\":13521:13834   */\n    tag_32:\n        /* \"#utility.yul\":13634:13638   */\n      0x00\n        /* \"#utility.yul\":13672:13674   */\n      0x20\n        /* \"#utility.yul\":13661:13670   */\n      dup3\n        /* \"#utility.yul\":13657:13675   */\n      add\n        /* \"#utility.yul\":13649:13675   */\n      swap1\n      pop\n        /* \"#utility.yul\":13721:13730   */\n      dup2\n        /* \"#utility.yul\":13715:13719   */\n      dup2\n        /* \"#utility.yul\":13711:13731   */\n      sub\n        /* \"#utility.yul\":13707:13708   */\n      0x00\n        /* \"#utility.yul\":13696:13705   */\n      dup4\n        /* \"#utility.yul\":13692:13709   */\n      add\n        /* \"#utility.yul\":13685:13732   */\n      mstore\n        /* \"#utility.yul\":13749:13827   */\n      tag_309\n        /* \"#utility.yul\":13822:13826   */\n      dup2\n        /* \"#utility.yul\":13813:13819   */\n      dup5\n        /* \"#utility.yul\":13749:13827   */\n      tag_157\n      jump\t// in\n    tag_309:\n        /* \"#utility.yul\":13741:13827   */\n      swap1\n      pop\n        /* \"#utility.yul\":13521:13834   */\n      swap3\n      swap2\n      pop\n      pop\n      jump\t// out\n        /* \"#utility.yul\":13840:13988   */\n    tag_162:\n        /* \"#utility.yul\":13942:13953   */\n      0x00\n        /* \"#utility.yul\":13979:13982   */\n      dup2\n        /* \"#utility.yul\":13964:13982   */\n      swap1\n      pop\n        /* \"#utility.yul\":13840:13988   */\n      swap3\n      swap2\n      pop\n      pop\n      jump\t// out\n        /* \"#utility.yul\":13994:14384   */\n    tag_163:\n        /* \"#utility.yul\":14100:14103   */\n      0x00\n        /* \"#utility.yul\":14128:14167   */\n      tag_312\n        /* \"#utility.yul\":14161:14166   */\n      dup3\n        /* \"#utility.yul\":14128:14167   */\n      tag_140\n      jump\t// in\n    tag_312:\n        /* \"#utility.yul\":14183:14272   */\n      tag_313\n        /* \"#utility.yul\":14265:14271   */\n      dup2\n        /* \"#utility.yul\":14260:14263   */\n      dup6\n        /* \"#utility.yul\":14183:14272   */\n      tag_162\n      jump\t// in\n    tag_313:\n        /* \"#utility.yul\":14176:14272   */\n      swap4\n      pop\n        /* \"#utility.yul\":14281:14346   */\n      tag_314\n        /* \"#utility.yul\":14339:14345   */\n      dup2\n        /* \"#utility.yul\":14334:14337   */\n      dup6\n        /* \"#utility.yul\":14327:14331   */\n      0x20\n        /* \"#utility.yul\":14320:14325   */\n      dup7\n        /* \"#utility.yul\":14316:14332   */\n      add\n        /* \"#utility.yul\":14281:14346   */\n      tag_142\n      jump\t// in\n    tag_314:\n        /* \"#utility.yul\":14371:14377   */\n      dup1\n        /* \"#utility.yul\":14366:14369   */\n      dup5\n        /* \"#utility.yul\":14362:14378   */\n      add\n        /* \"#utility.yul\":14355:14378   */\n      swap2\n      pop\n        /* \"#utility.yul\":14104:14384   */\n      pop\n        /* \"#utility.yul\":13994:14384   */\n      swap3\n      swap2\n      pop\n      pop\n      jump\t// out\n        /* \"#utility.yul\":14390:14665   */\n    tag_37:\n        /* \"#utility.yul\":14522:14525   */\n      0x00\n        /* \"#utility.yul\":14544:14639   */\n      tag_316\n        /* \"#utility.yul\":14635:14638   */\n      dup3\n        /* \"#utility.yul\":14626:14632   */\n      dup5\n        /* \"#utility.yul\":14544:14639   */\n      tag_163\n      jump\t// in\n    tag_316:\n        /* \"#utility.yul\":14537:14639   */\n      swap2\n      pop\n        /* \"#utility.yul\":14656:14659   */\n      dup2\n        /* \"#utility.yul\":14649:14659   */\n      swap1\n      pop\n        /* \"#utility.yul\":14390:14665   */\n      swap3\n      swap2\n      pop\n      pop\n      jump\t// out\n        /* \"#utility.yul\":14671:14851   */\n    tag_164:\n        /* \"#utility.yul\":14719:14796   */\n      0x4e487b7100000000000000000000000000000000000000000000000000000000\n        /* \"#utility.yul\":14716:14717   */\n      0x00\n        /* \"#utility.yul\":14709:14797   */\n      mstore\n        /* \"#utility.yul\":14816:14820   */\n      0x22\n        /* \"#utility.yul\":14813:14814   */\n      0x04\n        /* \"#utility.yul\":14806:14821   */\n      mstore\n        /* \"#utility.yul\":14840:14844   */\n      0x24\n        /* \"#utility.yul\":14837:14838   */\n      0x00\n        /* \"#utility.yul\":14830:14845   */\n      revert\n        /* \"#utility.yul\":14857:15177   */\n    tag_39:\n        /* \"#utility.yul\":14901:14907   */\n      0x00\n        /* \"#utility.yul\":14938:14939   */\n      0x02\n        /* \"#utility.yul\":14932:14936   */\n      dup3\n        /* \"#utility.yul\":14928:14940   */\n      div\n        /* \"#utility.yul\":14918:14940   */\n      swap1\n      pop\n        /* \"#utility.yul\":14985:14986   */\n      0x01\n        /* \"#utility.yul\":14979:14983   */\n      dup3\n        /* \"#utility.yul\":14975:14987   */\n      and\n        /* \"#utility.yul\":15006:15024   */\n      dup1\n        /* \"#utility.yul\":14996:15077   */\n      tag_319\n      jumpi\n        /* \"#utility.yul\":15062:15066   */\n      0x7f\n        /* \"#utility.yul\":15054:15060   */\n      dup3\n        /* \"#utility.yul\":15050:15067   */\n      and\n        /* \"#utility.yul\":15040:15067   */\n      swap2\n      pop\n        /* \"#utility.yul\":14996:15077   */\n    tag_319:\n        /* \"#utility.yul\":15124:15126   */\n      0x20\n        /* \"#utility.yul\":15116:15122   */\n      dup3\n        /* \"#utility.yul\":15113:15127   */\n      lt\n        /* \"#utility.yul\":15093:15111   */\n      dup2\n        /* \"#utility.yul\":15090:15128   */\n      sub\n        /* \"#utility.yul\":15087:15171   */\n      tag_320\n      jumpi\n        /* \"#utility.yul\":15143:15161   */\n      tag_321\n      tag_164\n      jump\t// in\n    tag_321:\n        /* \"#utility.yul\":15087:15171   */\n    tag_320:\n        /* \"#utility.yul\":14908:15177   */\n      pop\n        /* \"#utility.yul\":14857:15177   */\n      swap2\n      swap1\n      pop\n      jump\t// out\n        /* \"#utility.yul\":15183:15362   */\n    tag_165:\n        /* \"#utility.yul\":15323:15354   */\n      0x56756c6e65726162696c69747920646f6573206e6f742065786973742e000000\n        /* \"#utility.yul\":15319:15320   */\n      0x00\n        /* \"#utility.yul\":15311:15317   */\n      dup3\n        /* \"#utility.yul\":15307:15321   */\n      add\n        /* \"#utility.yul\":15300:15355   */\n      mstore\n        /* \"#utility.yul\":15183:15362   */\n      pop\n      jump\t// out\n        /* \"#utility.yul\":15368:15734   */\n    tag_166:\n        /* \"#utility.yul\":15510:15513   */\n      0x00\n        /* \"#utility.yul\":15531:15598   */\n      tag_324\n        /* \"#utility.yul\":15595:15597   */\n      0x1d\n        /* \"#utility.yul\":15590:15593   */\n      dup4\n        /* \"#utility.yul\":15531:15598   */\n      tag_156\n      jump\t// in\n    tag_324:\n        /* \"#utility.yul\":15524:15598   */\n      swap2\n      pop\n        /* \"#utility.yul\":15607:15700   */\n      tag_325\n        /* \"#utility.yul\":15696:15699   */\n      dup3\n        /* \"#utility.yul\":15607:15700   */\n      tag_165\n      jump\t// in\n    tag_325:\n        /* \"#utility.yul\":15725:15727   */\n      0x20\n        /* \"#utility.yul\":15720:15723   */\n      dup3\n        /* \"#utility.yul\":15716:15728   */\n      add\n        /* \"#utility.yul\":15709:15728   */\n      swap1\n      pop\n        /* \"#utility.yul\":15368:15734   */\n      swap2\n      swap1\n      pop\n      jump\t// out\n        /* \"#utility.yul\":15740:16159   */\n    tag_42:\n        /* \"#utility.yul\":15906:15910   */\n      0x00\n        /* \"#utility.yul\":15944:15946   */\n      0x20\n        /* \"#utility.yul\":15933:15942   */\n      dup3\n        /* \"#utility.yul\":15929:15947   */\n      add\n        /* \"#utility.yul\":15921:15947   */\n      swap1\n      pop\n        /* \"#utility.yul\":15993:16002   */\n      dup2\n        /* \"#utility.yul\":15987:15991   */\n      dup2\n        /* \"#utility.yul\":15983:16003   */\n      sub\n        /* \"#utility.yul\":15979:15980   */\n      0x00\n        /* \"#utility.yul\":15968:15977   */\n      dup4\n        /* \"#utility.yul\":15964:15981   */\n      add\n        /* \"#utility.yul\":15957:16004   */\n      mstore\n        /* \"#utility.yul\":16021:16152   */\n      tag_327\n        /* \"#utility.yul\":16147:16151   */\n      dup2\n        /* \"#utility.yul\":16021:16152   */\n      tag_166\n      jump\t// in\n    tag_327:\n        /* \"#utility.yul\":16013:16152   */\n      swap1\n      pop\n        /* \"#utility.yul\":15740:16159   */\n      swap2\n      swap1\n      pop\n      jump\t// out\n        /* \"#utility.yul\":16165:16344   */\n    tag_167:\n        /* \"#utility.yul\":16305:16336   */\n      0x56756c6e65726162696c69747920616c7265616479206578697374732e000000\n        /* \"#utility.yul\":16301:16302   */\n      0x00\n        /* \"#utility.yul\":16293:16299   */\n      dup3\n        /* \"#utility.yul\":16289:16303   */\n      add\n        /* \"#utility.yul\":16282:16337   */\n      mstore\n        /* \"#utility.yul\":16165:16344   */\n      pop\n      jump\t// out\n        /* \"#utility.yul\":16350:16716   */\n    tag_168:\n        /* \"#utility.yul\":16492:16495   */\n      0x00\n        /* \"#utility.yul\":16513:16580   */\n      tag_330\n        /* \"#utility.yul\":16577:16579   */\n      0x1d\n        /* \"#utility.yul\":16572:16575   */\n      dup4\n        /* \"#utility.yul\":16513:16580   */\n      tag_156\n      jump\t// in\n    tag_330:\n        /* \"#utility.yul\":16506:16580   */\n      swap2\n      pop\n        /* \"#utility.yul\":16589:16682   */\n      tag_331\n        /* \"#utility.yul\":16678:16681   */\n      dup3\n        /* \"#utility.yul\":16589:16682   */\n      tag_167\n      jump\t// in\n    tag_331:\n        /* \"#utility.yul\":16707:16709   */\n      0x20\n        /* \"#utility.yul\":16702:16705   */\n      dup3\n        /* \"#utility.yul\":16698:16710   */\n      add\n        /* \"#utility.yul\":16691:16710   */\n      swap1\n      pop\n        /* \"#utility.yul\":16350:16716   */\n      swap2\n      swap1\n      pop\n      jump\t// out\n        /* \"#utility.yul\":16722:17141   */\n    tag_108:\n        /* \"#utility.yul\":16888:16892   */\n      0x00\n        /* \"#utility.yul\":16926:16928   */\n      0x20\n        /* \"#utility.yul\":16915:16924   */\n      dup3\n        /* \"#utility.yul\":16911:16929   */\n      add\n        /* \"#utility.yul\":16903:16929   */\n      swap1\n      pop\n        /* \"#utility.yul\":16975:16984   */\n      dup2\n        /* \"#utility.yul\":16969:16973   */\n      dup2\n        /* \"#utility.yul\":16965:16985   */\n      sub\n        /* \"#utility.yul\":16961:16962   */\n      0x00\n        /* \"#utility.yul\":16950:16959   */\n      dup4\n        /* \"#utility.yul\":16946:16963   */\n      add\n        /* \"#utility.yul\":16939:16986   */\n      mstore\n        /* \"#utility.yul\":17003:17134   */\n      tag_333\n        /* \"#utility.yul\":17129:17133   */\n      dup2\n        /* \"#utility.yul\":17003:17134   */\n      tag_168\n      jump\t// in\n    tag_333:\n        /* \"#utility.yul\":16995:17134   */\n      swap1\n      pop\n        /* \"#utility.yul\":16722:17141   */\n      swap2\n      swap1\n      pop\n      jump\t// out\n        /* \"#utility.yul\":17147:17288   */\n    tag_169:\n        /* \"#utility.yul\":17196:17200   */\n      0x00\n        /* \"#utility.yul\":17219:17222   */\n      dup2\n        /* \"#utility.yul\":17211:17222   */\n      swap1\n      pop\n        /* \"#utility.yul\":17242:17245   */\n      dup2\n        /* \"#utility.yul\":17239:17240   */\n      0x00\n        /* \"#utility.yul\":17232:17246   */\n      mstore\n        /* \"#utility.yul\":17276:17280   */\n      0x20\n        /* \"#utility.yul\":17273:17274   */\n      0x00\n        /* \"#utility.yul\":17263:17281   */\n      keccak256\n        /* \"#utility.yul\":17255:17281   */\n      swap1\n      pop\n        /* \"#utility.yul\":17147:17288   */\n      swap2\n      swap1\n      pop\n      jump\t// out\n        /* \"#utility.yul\":17294:17387   */\n    tag_170:\n        /* \"#utility.yul\":17331:17337   */\n      0x00\n        /* \"#utility.yul\":17378:17380   */\n      0x20\n        /* \"#utility.yul\":17373:17375   */\n      0x1f\n        /* \"#utility.yul\":17366:17371   */\n      dup4\n        /* \"#utility.yul\":17362:17376   */\n      add\n        /* \"#utility.yul\":17358:17381   */\n      div\n        /* \"#utility.yul\":17348:17381   */\n      swap1\n      pop\n        /* \"#utility.yul\":17294:17387   */\n      swap2\n      swap1\n      pop\n      jump\t// out\n        /* \"#utility.yul\":17393:17500   */\n    tag_171:\n        /* \"#utility.yul\":17437:17445   */\n      0x00\n        /* \"#utility.yul\":17487:17492   */\n      dup3\n        /* \"#utility.yul\":17481:17485   */\n      dup3\n        /* \"#utility.yul\":17477:17493   */\n      shl\n        /* \"#utility.yul\":17456:17493   */\n      swap1\n      pop\n        /* \"#utility.yul\":17393:17500   */\n      swap3\n      swap2\n      pop\n      pop\n      jump\t// out\n        /* \"#utility.yul\":17506:17899   */\n    tag_172:\n        /* \"#utility.yul\":17575:17581   */\n      0x00\n        /* \"#utility.yul\":17625:17626   */\n      0x08\n        /* \"#utility.yul\":17613:17623   */\n      dup4\n        /* \"#utility.yul\":17609:17627   */\n      mul\n        /* \"#utility.yul\":17648:17745   */\n      tag_338\n        /* \"#utility.yul\":17678:17744   */\n      0xffffffffffffffffffffffffffffffffffffffffffffffffffffffffffffffff\n        /* \"#utility.yul\":17667:17676   */\n      dup3\n        /* \"#utility.yul\":17648:17745   */\n      tag_171\n      jump\t// in\n    tag_338:\n        /* \"#utility.yul\":17766:17805   */\n      tag_339\n        /* \"#utility.yul\":17796:17804   */\n      dup7\n        /* \"#utility.yul\":17785:17794   */\n      dup4\n        /* \"#utility.yul\":17766:17805   */\n      tag_171\n      jump\t// in\n    tag_339:\n        /* \"#utility.yul\":17754:17805   */\n      swap6\n      pop\n        /* \"#utility.yul\":17838:17842   */\n      dup1\n        /* \"#utility.yul\":17834:17843   */\n      not\n        /* \"#utility.yul\":17827:17832   */\n      dup5\n        /* \"#utility.yul\":17823:17844   */\n      and\n        /* \"#utility.yul\":17814:17844   */\n      swap4\n      pop\n        /* \"#utility.yul\":17887:17891   */\n      dup1\n        /* \"#utility.yul\":17877:17885   */\n      dup7\n        /* \"#utility.yul\":17873:17892   */\n      and\n        /* \"#utility.yul\":17866:17871   */\n      dup5\n        /* \"#utility.yul\":17863:17893   */\n      or\n        /* \"#utility.yul\":17853:17893   */\n      swap3\n      pop\n        /* \"#utility.yul\":17582:17899   */\n      pop\n      pop\n        /* \"#utility.yul\":17506:17899   */\n      swap4\n      swap3\n      pop\n      pop\n      pop\n      jump\t// out\n        /* \"#utility.yul\":17905:17965   */\n    tag_173:\n        /* \"#utility.yul\":17933:17936   */\n      0x00\n        /* \"#utility.yul\":17954:17959   */\n      dup2\n        /* \"#utility.yul\":17947:17959   */\n      swap1\n      pop\n        /* \"#utility.yul\":17905:17965   */\n      swap2\n      swap1\n      pop\n      jump\t// out\n        /* \"#utility.yul\":17971:18113   */\n    tag_174:\n        /* \"#utility.yul\":18021:18030   */\n      0x00\n        /* \"#utility.yul\":18054:18107   */\n      tag_342\n        /* \"#utility.yul\":18072:18106   */\n      tag_343\n        /* \"#utility.yul\":18081:18105   */\n      tag_344\n        /* \"#utility.yul\":18099:18104   */\n      dup5\n        /* \"#utility.yul\":18081:18105   */\n      tag_147\n      jump\t// in\n    tag_344:\n        /* \"#utility.yul\":18072:18106   */\n      tag_173\n      jump\t// in\n    tag_343:\n        /* \"#utility.yul\":18054:18107   */\n      tag_147\n      jump\t// in\n    tag_342:\n        /* \"#utility.yul\":18041:18107   */\n      swap1\n      pop\n        /* \"#utility.yul\":17971:18113   */\n      swap2\n      swap1\n      pop\n      jump\t// out\n        /* \"#utility.yul\":18119:18194   */\n    tag_175:\n        /* \"#utility.yul\":18162:18165   */\n      0x00\n        /* \"#utility.yul\":18183:18188   */\n      dup2\n        /* \"#utility.yul\":18176:18188   */\n      swap1\n      pop\n        /* \"#utility.yul\":18119:18194   */\n      swap2\n      swap1\n      pop\n      jump\t// out\n        /* \"#utility.yul\":18200:18469   */\n    tag_176:\n        /* \"#utility.yul\":18310:18349   */\n      tag_347\n        /* \"#utility.yul\":18341:18348   */\n      dup4\n        /* \"#utility.yul\":18310:18349   */\n      tag_174\n      jump\t// in\n    tag_347:\n        /* \"#utility.yul\":18371:18462   */\n      tag_348\n        /* \"#utility.yul\":18420:18461   */\n      tag_349\n        /* \"#utility.yul\":18444:18460   */\n      dup3\n        /* \"#utility.yul\":18420:18461   */\n      tag_175\n      jump\t// in\n    tag_349:\n        /* \"#utility.yul\":18412:18418   */\n      dup5\n        /* \"#utility.yul\":18405:18409   */\n      dup5\n        /* \"#utility.yul\":18399:18410   */\n      sload\n        /* \"#utility.yul\":18371:18462   */\n      tag_172\n      jump\t// in\n    tag_348:\n        /* \"#utility.yul\":18365:18369   */\n      dup3\n        /* \"#utility.yul\":18358:18463   */\n      sstore\n        /* \"#utility.yul\":18276:18469   */\n      pop\n        /* \"#utility.yul\":18200:18469   */\n      pop\n      pop\n      pop\n      jump\t// out\n        /* \"#utility.yul\":18475:18548   */\n    tag_177:\n        /* \"#utility.yul\":18520:18523   */\n      0x00\n        /* \"#utility.yul\":18475:18548   */\n      swap1\n      jump\t// out\n        /* \"#utility.yul\":18554:18743   */\n    tag_178:\n        /* \"#utility.yul\":18631:18663   */\n      tag_352\n      tag_177\n      jump\t// in\n    tag_352:\n        /* \"#utility.yul\":18672:18737   */\n      tag_353\n        /* \"#utility.yul\":18730:18736   */\n      dup2\n        /* \"#utility.yul\":18722:18728   */\n      dup5\n        /* \"#utility.yul\":18716:18720   */\n      dup5\n        /* \"#utility.yul\":18672:18737   */\n      tag_176\n      jump\t// in\n    tag_353:\n        /* \"#utility.yul\":18607:18743   */\n      pop\n        /* \"#utility.yul\":18554:18743   */\n      pop\n      pop\n      jump\t// out\n        /* \"#utility.yul\":18749:18935   */\n    tag_179:\n        /* \"#utility.yul\":18809:18929   */\n    tag_355:\n        /* \"#utility.yul\":18826:18829   */\n      dup2\n        /* \"#utility.yul\":18819:18824   */\n      dup2\n        /* \"#utility.yul\":18816:18830   */\n      lt\n        /* \"#utility.yul\":18809:18929   */\n      iszero\n      tag_357\n      jumpi\n        /* \"#utility.yul\":18880:18919   */\n      tag_358\n        /* \"#utility.yul\":18917:18918   */\n      0x00\n        /* \"#utility.yul\":18910:18915   */\n      dup3\n        /* \"#utility.yul\":18880:18919   */\n      tag_178\n      jump\t// in\n    tag_358:\n        /* \"#utility.yul\":18853:18854   */\n      0x01\n        /* \"#utility.yul\":18846:18851   */\n      dup2\n        /* \"#utility.yul\":18842:18855   */\n      add\n        /* \"#utility.yul\":18833:18855   */\n      swap1\n      pop\n        /* \"#utility.yul\":18809:18929   */\n      jump(tag_355)\n    tag_357:\n        /* \"#utility.yul\":18749:18935   */\n      pop\n      pop\n      jump\t// out\n        /* \"#utility.yul\":18941:19484   */\n    tag_180:\n        /* \"#utility.yul\":19042:19044   */\n      0x1f\n        /* \"#utility.yul\":19037:19040   */\n      dup3\n        /* \"#utility.yul\":19034:19045   */\n      gt\n        /* \"#utility.yul\":19031:19477   */\n      iszero\n      tag_360\n      jumpi\n        /* \"#utility.yul\":19076:19114   */\n      tag_361\n        /* \"#utility.yul\":19108:19113   */\n      dup2\n        /* \"#utility.yul\":19076:19114   */\n      tag_169\n      jump\t// in\n    tag_361:\n        /* \"#utility.yul\":19160:19189   */\n      tag_362\n        /* \"#utility.yul\":19178:19188   */\n      dup5\n        /* \"#utility.yul\":19160:19189   */\n      tag_170\n      jump\t// in\n    tag_362:\n        /* \"#utility.yul\":19150:19158   */\n      dup2\n        /* \"#utility.yul\":19146:19190   */\n      add\n        /* \"#utility.yul\":19343:19345   */\n      0x20\n        /* \"#utility.yul\":19331:19341   */\n      dup6\n        /* \"#utility.yul\":19328:19346   */\n      lt\n        /* \"#utility.yul\":19325:19374   */\n      iszero\n      tag_363\n      jumpi\n        /* \"#utility.yul\":19364:19372   */\n      dup2\n        /* \"#utility.yul\":19349:19372   */\n      swap1\n      pop\n        /* \"#utility.yul\":19325:19374   */\n    tag_363:\n        /* \"#utility.yul\":19387:19467   */\n      tag_364\n        /* \"#utility.yul\":19443:19465   */\n      tag_365\n        /* \"#utility.yul\":19461:19464   */\n      dup6\n        /* \"#utility.yul\":19443:19465   */\n      tag_170\n      jump\t// in\n    tag_365:\n        /* \"#utility.yul\":19433:19441   */\n      dup4\n        /* \"#utility.yul\":19429:19466   */\n      add\n        /* \"#utility.yul\":19416:19427   */\n      dup3\n        /* \"#utility.yul\":19387:19467   */\n      tag_179\n      jump\t// in\n    tag_364:\n        /* \"#utility.yul\":19046:19477   */\n      pop\n      pop\n        /* \"#utility.yul\":19031:19477   */\n    tag_360:\n        /* \"#utility.yul\":18941:19484   */\n      pop\n      pop\n      pop\n      jump\t// out\n        /* \"#utility.yul\":19490:19607   */\n    tag_181:\n        /* \"#utility.yul\":19544:19552   */\n      0x00\n        /* \"#utility.yul\":19594:19599   */\n      dup3\n        /* \"#utility.yul\":19588:19592   */\n      dup3\n        /* \"#utility.yul\":19584:19600   */\n      shr\n        /* \"#utility.yul\":19563:19600   */\n      swap1\n      pop\n        /* \"#utility.yul\":19490:19607   */\n      swap3\n      swap2\n      pop\n      pop\n      jump\t// out\n        /* \"#utility.yul\":19613:19782   */\n    tag_182:\n        /* \"#utility.yul\":19657:19663   */\n      0x00\n        /* \"#utility.yul\":19690:19741   */\n      tag_368\n        /* \"#utility.yul\":19738:19739   */\n      0x00\n        /* \"#utility.yul\":19734:19740   */\n      not\n        /* \"#utility.yul\":19726:19731   */\n      dup5\n        /* \"#utility.yul\":19723:19724   */\n      0x08\n        /* \"#utility.yul\":19719:19732   */\n      mul\n        /* \"#utility.yul\":19690:19741   */\n      tag_181\n      jump\t// in\n    tag_368:\n        /* \"#utility.yul\":19686:19742   */\n      not\n        /* \"#utility.yul\":19771:19775   */\n      dup1\n        /* \"#utility.yul\":19765:19769   */\n      dup4\n        /* \"#utility.yul\":19761:19776   */\n      and\n        /* \"#utility.yul\":19751:19776   */\n      swap2\n      pop\n        /* \"#utility.yul\":19664:19782   */\n      pop\n        /* \"#utility.yul\":19613:19782   */\n      swap3\n      swap2\n      pop\n      pop\n      jump\t// out\n        /* \"#utility.yul\":19787:20082   */\n    tag_183:\n        /* \"#utility.yul\":19863:19867   */\n      0x00\n        /* \"#utility.yul\":20009:20038   */\n      tag_370\n        /* \"#utility.yul\":20034:20037   */\n      dup4\n        /* \"#utility.yul\":20028:20032   */\n      dup4\n        /* \"#utility.yul\":20009:20038   */\n      tag_182\n      jump\t// in\n    tag_370:\n        /* \"#utility.yul\":20001:20038   */\n      swap2\n      pop\n        /* \"#utility.yul\":20071:20074   */\n      dup3\n        /* \"#utility.yul\":20068:20069   */\n      0x02\n        /* \"#utility.yul\":20064:20075   */\n      mul\n        /* \"#utility.yul\":20058:20062   */\n      dup3\n        /* \"#utility.yul\":20055:20076   */\n      or\n        /* \"#utility.yul\":20047:20076   */\n      swap1\n      pop\n        /* \"#utility.yul\":19787:20082   */\n      swap3\n      swap2\n      pop\n      pop\n      jump\t// out\n        /* \"#utility.yul\":20087:21482   */\n    tag_111:\n        /* \"#utility.yul\":20204:20241   */\n      tag_372\n        /* \"#utility.yul\":20237:20240   */\n      dup3\n        /* \"#utility.yul\":20204:20241   */\n      tag_140\n      jump\t// in\n    tag_372:\n        /* \"#utility.yul\":20306:20324   */\n      0xffffffffffffffff\n        /* \"#utility.yul\":20298:20304   */\n      dup2\n        /* \"#utility.yul\":20295:20325   */\n      gt\n        /* \"#utility.yul\":20292:20348   */\n      iszero\n      tag_373\n      jumpi\n        /* \"#utility.yul\":20328:20346   */\n      tag_374\n      tag_133\n      jump\t// in\n    tag_374:\n        /* \"#utility.yul\":20292:20348   */\n    tag_373:\n        /* \"#utility.yul\":20372:20410   */\n      tag_375\n        /* \"#utility.yul\":20404:20408   */\n      dup3\n        /* \"#utility.yul\":20398:20409   */\n      sload\n        /* \"#utility.yul\":20372:20410   */\n      tag_39\n      jump\t// in\n    tag_375:\n        /* \"#utility.yul\":20457:20524   */\n      tag_376\n        /* \"#utility.yul\":20517:20523   */\n      dup3\n        /* \"#utility.yul\":20509:20515   */\n      dup3\n        /* \"#utility.yul\":20503:20507   */\n      dup6\n        /* \"#utility.yul\":20457:20524   */\n      tag_180\n      jump\t// in\n    tag_376:\n        /* \"#utility.yul\":20551:20552   */\n      0x00\n        /* \"#utility.yul\":20575:20579   */\n      0x20\n        /* \"#utility.yul\":20562:20579   */\n      swap1\n      pop\n        /* \"#utility.yul\":20607:20609   */\n      0x1f\n        /* \"#utility.yul\":20599:20605   */\n      dup4\n        /* \"#utility.yul\":20596:20610   */\n      gt\n        /* \"#utility.yul\":20624:20625   */\n      0x01\n        /* \"#utility.yul\":20619:21237   */\n      dup2\n      eq\n      tag_378\n      jumpi\n        /* \"#utility.yul\":21281:21282   */\n      0x00\n        /* \"#utility.yul\":21298:21304   */\n      dup5\n        /* \"#utility.yul\":21295:21372   */\n      iszero\n      tag_379\n      jumpi\n        /* \"#utility.yul\":21347:21356   */\n      dup3\n        /* \"#utility.yul\":21342:21345   */\n      dup8\n        /* \"#utility.yul\":21338:21357   */\n      add\n        /* \"#utility.yul\":21332:21358   */\n      mload\n        /* \"#utility.yul\":21323:21358   */\n      swap1\n      pop\n        /* \"#utility.yul\":21295:21372   */\n    tag_379:\n        /* \"#utility.yul\":21398:21465   */\n      tag_380\n        /* \"#utility.yul\":21458:21464   */\n      dup6\n        /* \"#utility.yul\":21451:21456   */\n      dup3\n        /* \"#utility.yul\":21398:21465   */\n      tag_183\n      jump\t// in\n    tag_380:\n        /* \"#utility.yul\":21392:21396   */\n      dup7\n        /* \"#utility.yul\":21385:21466   */\n      sstore\n        /* \"#utility.yul\":21254:21476   */\n      pop\n        /* \"#utility.yul\":20589:21476   */\n      jump(tag_377)\n        /* \"#utility.yul\":20619:21237   */\n    tag_378:\n        /* \"#utility.yul\":20671:20675   */\n      0x1f\n        /* \"#utility.yul\":20667:20676   */\n      not\n        /* \"#utility.yul\":20659:20665   */\n      dup5\n        /* \"#utility.yul\":20655:20677   */\n      and\n        /* \"#utility.yul\":20705:20742   */\n      tag_381\n        /* \"#utility.yul\":20737:20741   */\n      dup7\n        /* \"#utility.yul\":20705:20742   */\n      tag_169\n      jump\t// in\n    tag_381:\n        /* \"#utility.yul\":20764:20765   */\n      0x00\n        /* \"#utility.yul\":20778:20986   */\n    tag_382:\n        /* \"#utility.yul\":20792:20799   */\n      dup3\n        /* \"#utility.yul\":20789:20790   */\n      dup2\n        /* \"#utility.yul\":20786:20800   */\n      lt\n        /* \"#utility.yul\":20778:20986   */\n      iszero\n      tag_384\n      jumpi\n        /* \"#utility.yul\":20871:20880   */\n      dup5\n        /* \"#utility.yul\":20866:20869   */\n      dup10\n        /* \"#utility.yul\":20862:20881   */\n      add\n        /* \"#utility.yul\":20856:20882   */\n      mload\n        /* \"#utility.yul\":20848:20854   */\n      dup3\n        /* \"#utility.yul\":20841:20883   */\n      sstore\n        /* \"#utility.yul\":20922:20923   */\n      0x01\n        /* \"#utility.yul\":20914:20920   */\n      dup3\n        /* \"#utility.yul\":20910:20924   */\n      add\n        /* \"#utility.yul\":20900:20924   */\n      swap2\n      pop\n        /* \"#utility.yul\":20969:20971   */\n      0x20\n        /* \"#utility.yul\":20958:20967   */\n      dup6\n        /* \"#utility.yul\":20954:20972   */\n      add\n        /* \"#utility.yul\":20941:20972   */\n      swap5\n      pop\n        /* \"#utility.yul\":20815:20819   */\n      0x20\n        /* \"#utility.yul\":20812:20813   */\n      dup2\n        /* \"#utility.yul\":20808:20820   */\n      add\n        /* \"#utility.yul\":20803:20820   */\n      swap1\n      pop\n        /* \"#utility.yul\":20778:20986   */\n      jump(tag_382)\n    tag_384:\n        /* \"#utility.yul\":21014:21020   */\n      dup7\n        /* \"#utility.yul\":21005:21012   */\n      dup4\n        /* \"#utility.yul\":21002:21021   */\n      lt\n        /* \"#utility.yul\":20999:21178   */\n      iszero\n      tag_385\n      jumpi\n        /* \"#utility.yul\":21072:21081   */\n      dup5\n        /* \"#utility.yul\":21067:21070   */\n      dup10\n        /* \"#utility.yul\":21063:21082   */\n      add\n        /* \"#utility.yul\":21057:21083   */\n      mload\n        /* \"#utility.yul\":21115:21163   */\n      tag_386\n        /* \"#utility.yul\":21157:21161   */\n      0x1f\n        /* \"#utility.yul\":21149:21155   */\n      dup10\n        /* \"#utility.yul\":21145:21162   */\n      and\n        /* \"#utility.yul\":21134:21143   */\n      dup3\n        /* \"#utility.yul\":21115:21163   */\n      tag_182\n      jump\t// in\n    tag_386:\n        /* \"#utility.yul\":21107:21113   */\n      dup4\n        /* \"#utility.yul\":21100:21164   */\n      sstore\n        /* \"#utility.yul\":21022:21178   */\n      pop\n        /* \"#utility.yul\":20999:21178   */\n    tag_385:\n        /* \"#utility.yul\":21224:21225   */\n      0x01\n        /* \"#utility.yul\":21220:21221   */\n      0x02\n        /* \"#utility.yul\":21212:21218   */\n      dup9\n        /* \"#utility.yul\":21208:21222   */\n      mul\n        /* \"#utility.yul\":21204:21226   */\n      add\n        /* \"#utility.yul\":21198:21202   */\n      dup9\n        /* \"#utility.yul\":21191:21227   */\n      sstore\n        /* \"#utility.yul\":20626:21237   */\n      pop\n      pop\n      pop\n        /* \"#utility.yul\":20589:21476   */\n    tag_377:\n      pop\n        /* \"#utility.yul\":20179:21482   */\n      pop\n      pop\n      pop\n        /* \"#utility.yul\":20087:21482   */\n      pop\n      pop\n      jump\t// out\n        /* \"#utility.yul\":21488:22021   */\n    tag_119:\n        /* \"#utility.yul\":21657:21661   */\n      0x00\n        /* \"#utility.yul\":21695:21697   */\n      0x60\n        /* \"#utility.yul\":21684:21693   */\n      dup3\n        /* \"#utility.yul\":21680:21698   */\n      add\n        /* \"#utility.yul\":21672:21698   */\n      swap1\n      pop\n        /* \"#utility.yul\":21744:21753   */\n      dup2\n        /* \"#utility.yul\":21738:21742   */\n      dup2\n        /* \"#utility.yul\":21734:21754   */\n      sub\n        /* \"#utility.yul\":21730:21731   */\n      0x00\n        /* \"#utility.yul\":21719:21728   */\n      dup4\n        /* \"#utility.yul\":21715:21732   */\n      add\n        /* \"#utility.yul\":21708:21755   */\n      mstore\n        /* \"#utility.yul\":21772:21850   */\n      tag_388\n        /* \"#utility.yul\":21845:21849   */\n      dup2\n        /* \"#utility.yul\":21836:21842   */\n      dup7\n        /* \"#utility.yul\":21772:21850   */\n      tag_157\n      jump\t// in\n    tag_388:\n        /* \"#utility.yul\":21764:21850   */\n      swap1\n      pop\n        /* \"#utility.yul\":21860:21932   */\n      tag_389\n        /* \"#utility.yul\":21928:21930   */\n      0x20\n        /* \"#utility.yul\":21917:21926   */\n      dup4\n        /* \"#utility.yul\":21913:21931   */\n      add\n        /* \"#utility.yul\":21904:21910   */\n      dup6\n        /* \"#utility.yul\":21860:21932   */\n      tag_158\n      jump\t// in\n    tag_389:\n        /* \"#utility.yul\":21942:22014   */\n      tag_390\n        /* \"#utility.yul\":22010:22012   */\n      0x40\n        /* \"#utility.yul\":21999:22008   */\n      dup4\n        /* \"#utility.yul\":21995:22013   */\n      add\n        /* \"#utility.yul\":21986:21992   */\n      dup5\n        /* \"#utility.yul\":21942:22014   */\n      tag_159\n      jump\t// in\n    tag_390:\n        /* \"#utility.yul\":21488:22021   */\n      swap5\n      swap4\n      pop\n      pop\n      pop\n      pop\n      jump\t// out\n\n    auxdata: 0xa26469706673582212202df55baf20be3456118d20de635a6d0967f1e2033b1073273b148490ab13644e64736f6c634300081a0033\n}\n",
				"bytecode": {
					"linkReferences": {},
					"object": "6080604052348015600e575f80fd5b506116a78061001c5f395ff3fe608060405234801561000f575f80fd5b5060043610610055575f3560e01c80631a23e71f146100595780632d51d2e1146100895780635967c880146100a7578063a1dab6b4146100dd578063f4df96b9146100f9575b5f80fd5b610073600480360381019061006e9190610d30565b610129565b6040516100809190610ee3565b60405180910390f35b6100916104fb565b60405161009e9190610fbe565b60405180910390f35b6100c160048036038101906100bc9190610d30565b6105cf565b6040516100d49796959493929190611044565b60405180910390f35b6100f760048036038101906100f291906110d4565b6108e1565b005b610113600480360381019061010e9190611201565b610aec565b604051610120919061122c565b60405180910390f35b610131610b92565b5f80836040516101419190611286565b90815260200160405180910390205f01805461015c906112c9565b90500361019e576040517f08c379a000000000000000000000000000000000000000000000000000000000815260040161019590611343565b60405180910390fd5b5f826040516101ad9190611286565b90815260200160405180910390206040518060e00160405290815f820180546101d5906112c9565b80601f0160208091040260200160405190810160405280929190818152602001828054610201906112c9565b801561024c5780601f106102235761010080835404028352916020019161024c565b820191905f5260205f20905b81548152906001019060200180831161022f57829003601f168201915b50505050508152602001600182018054610265906112c9565b80601f0160208091040260200160405190810160405280929190818152602001828054610291906112c9565b80156102dc5780601f106102b3576101008083540402835291602001916102dc565b820191905f5260205f20905b8154815290600101906020018083116102bf57829003601f168201915b505050505081526020016002820180546102f5906112c9565b80601f0160208091040260200160405190810160405280929190818152602001828054610321906112c9565b801561036c5780601f106103435761010080835404028352916020019161036c565b820191905f5260205f20905b81548152906001019060200180831161034f57829003601f168201915b50505050508152602001600382018054610385906112c9565b80601f01602080910402602001604051908101604052809291908181526020018280546103b1906112c9565b80156103fc5780601f106103d3576101008083540402835291602001916103fc565b820191905f5260205f20905b8154815290600101906020018083116103df57829003601f168201915b50505050508152602001600482018054610415906112c9565b80601f0160208091040260200160405190810160405280929190818152602001828054610441906112c9565b801561048c5780601f106104635761010080835404028352916020019161048c565b820191905f5260205f20905b81548152906001019060200180831161046f57829003601f168201915b50505050508152602001600582015f9054906101000a900473ffffffffffffffffffffffffffffffffffffffff1673ffffffffffffffffffffffffffffffffffffffff1673ffffffffffffffffffffffffffffffffffffffff1681526020016006820154815250509050919050565b60606001805480602002602001604051908101604052809291908181526020015f905b828210156105c6578382905f5260205f2001805461053b906112c9565b80601f0160208091040260200160405190810160405280929190818152602001828054610567906112c9565b80156105b25780601f10610589576101008083540402835291602001916105b2565b820191905f5260205f20905b81548152906001019060200180831161059557829003601f168201915b50505050508152602001906001019061051e565b50505050905090565b5f818051602081018201805184825260208301602085012081835280955050505050505f91509050805f018054610605906112c9565b80601f0160208091040260200160405190810160405280929190818152602001828054610631906112c9565b801561067c5780601f106106535761010080835404028352916020019161067c565b820191905f5260205f20905b81548152906001019060200180831161065f57829003601f168201915b505050505090806001018054610691906112c9565b80601f01602080910402602001604051908101604052809291908181526020018280546106bd906112c9565b80156107085780601f106106df57610100808354040283529160200191610708565b820191905f5260205f20905b8154815290600101906020018083116106eb57829003601f168201915b50505050509080600201805461071d906112c9565b80601f0160208091040260200160405190810160405280929190818152602001828054610749906112c9565b80156107945780601f1061076b57610100808354040283529160200191610794565b820191905f5260205f20905b81548152906001019060200180831161077757829003601f168201915b5050505050908060030180546107a9906112c9565b80601f01602080910402602001604051908101604052809291908181526020018280546107d5906112c9565b80156108205780601f106107f757610100808354040283529160200191610820565b820191905f5260205f20905b81548152906001019060200180831161080357829003601f168201915b505050505090806004018054610835906112c9565b80601f0160208091040260200160405190810160405280929190818152602001828054610861906112c9565b80156108ac5780601f10610883576101008083540402835291602001916108ac565b820191905f5260205f20905b81548152906001019060200180831161088f57829003601f168201915b505050505090806005015f9054906101000a900473ffffffffffffffffffffffffffffffffffffffff16908060060154905087565b5f80866040516108f19190611286565b90815260200160405180910390205f01805461090c906112c9565b90501461094e576040517f08c379a0000000000000000000000000000000000000000000000000000000008152600401610945906113ab565b60405180910390fd5b5f6040518060e001604052808781526020018681526020018581526020018481526020018381526020013373ffffffffffffffffffffffffffffffffffffffff168152602001428152509050805f876040516109aa9190611286565b90815260200160405180910390205f820151815f0190816109cb9190611566565b5060208201518160010190816109e19190611566565b5060408201518160020190816109f79190611566565b506060820151816003019081610a0d9190611566565b506080820151816004019081610a239190611566565b5060a0820151816005015f6101000a81548173ffffffffffffffffffffffffffffffffffffffff021916908373ffffffffffffffffffffffffffffffffffffffff16021790555060c08201518160060155905050600186908060018154018082558091505060019003905f5260205f20015f909190919091509081610aa89190611566565b507f01891033407f19d322d421f531b82efe9c947d2fa516da0379eda66007d2df4d863342604051610adc93929190611635565b60405180910390a1505050505050565b60018181548110610afb575f80fd5b905f5260205f20015f915090508054610b13906112c9565b80601f0160208091040260200160405190810160405280929190818152602001828054610b3f906112c9565b8015610b8a5780601f10610b6157610100808354040283529160200191610b8a565b820191905f5260205f20905b815481529060010190602001808311610b6d57829003601f168201915b505050505081565b6040518060e0016040528060608152602001606081526020016060815260200160608152602001606081526020015f73ffffffffffffffffffffffffffffffffffffffff1681526020015f81525090565b5f604051905090565b5f80fd5b5f80fd5b5f80fd5b5f80fd5b5f601f19601f8301169050919050565b7f4e487b71000000000000000000000000000000000000000000000000000000005f52604160045260245ffd5b610c4282610bfc565b810181811067ffffffffffffffff82111715610c6157610c60610c0c565b5b80604052505050565b5f610c73610be3565b9050610c7f8282610c39565b919050565b5f67ffffffffffffffff821115610c9e57610c9d610c0c565b5b610ca782610bfc565b9050602081019050919050565b828183375f83830152505050565b5f610cd4610ccf84610c84565b610c6a565b905082815260208101848484011115610cf057610cef610bf8565b5b610cfb848285610cb4565b509392505050565b5f82601f830112610d1757610d16610bf4565b5b8135610d27848260208601610cc2565b91505092915050565b5f60208284031215610d4557610d44610bec565b5b5f82013567ffffffffffffffff811115610d6257610d61610bf0565b5b610d6e84828501610d03565b91505092915050565b5f81519050919050565b5f82825260208201905092915050565b8281835e5f83830152505050565b5f610da982610d77565b610db38185610d81565b9350610dc3818560208601610d91565b610dcc81610bfc565b840191505092915050565b5f73ffffffffffffffffffffffffffffffffffffffff82169050919050565b5f610e0082610dd7565b9050919050565b610e1081610df6565b82525050565b5f819050919050565b610e2881610e16565b82525050565b5f60e083015f8301518482035f860152610e488282610d9f565b91505060208301518482036020860152610e628282610d9f565b91505060408301518482036040860152610e7c8282610d9f565b91505060608301518482036060860152610e968282610d9f565b91505060808301518482036080860152610eb08282610d9f565b91505060a0830151610ec560a0860182610e07565b5060c0830151610ed860c0860182610e1f565b508091505092915050565b5f6020820190508181035f830152610efb8184610e2e565b905092915050565b5f81519050919050565b5f82825260208201905092915050565b5f819050602082019050919050565b5f610f378383610d9f565b905092915050565b5f602082019050919050565b5f610f5582610f03565b610f5f8185610f0d565b935083602082028501610f7185610f1d565b805f5b85811015610fac5784840389528151610f8d8582610f2c565b9450610f9883610f3f565b925060208a01995050600181019050610f74565b50829750879550505050505092915050565b5f6020820190508181035f830152610fd68184610f4b565b905092915050565b5f82825260208201905092915050565b5f610ff882610d77565b6110028185610fde565b9350611012818560208601610d91565b61101b81610bfc565b840191505092915050565b61102f81610df6565b82525050565b61103e81610e16565b82525050565b5f60e0820190508181035f83015261105c818a610fee565b905081810360208301526110708189610fee565b905081810360408301526110848188610fee565b905081810360608301526110988187610fee565b905081810360808301526110ac8186610fee565b90506110bb60a0830185611026565b6110c860c0830184611035565b98975050505050505050565b5f805f805f60a086880312156110ed576110ec610bec565b5b5f86013567ffffffffffffffff81111561110a57611109610bf0565b5b61111688828901610d03565b955050602086013567ffffffffffffffff81111561113757611136610bf0565b5b61114388828901610d03565b945050604086013567ffffffffffffffff81111561116457611163610bf0565b5b61117088828901610d03565b935050606086013567ffffffffffffffff81111561119157611190610bf0565b5b61119d88828901610d03565b925050608086013567ffffffffffffffff8111156111be576111bd610bf0565b5b6111ca88828901610d03565b9150509295509295909350565b6111e081610e16565b81146111ea575f80fd5b50565b5f813590506111fb816111d7565b92915050565b5f6020828403121561121657611215610bec565b5b5f611223848285016111ed565b91505092915050565b5f6020820190508181035f8301526112448184610fee565b905092915050565b5f81905092915050565b5f61126082610d77565b61126a818561124c565b935061127a818560208601610d91565b80840191505092915050565b5f6112918284611256565b915081905092915050565b7f4e487b71000000000000000000000000000000000000000000000000000000005f52602260045260245ffd5b5f60028204905060018216806112e057607f821691505b6020821081036112f3576112f261129c565b5b50919050565b7f56756c6e65726162696c69747920646f6573206e6f742065786973742e0000005f82015250565b5f61132d601d83610fde565b9150611338826112f9565b602082019050919050565b5f6020820190508181035f83015261135a81611321565b9050919050565b7f56756c6e65726162696c69747920616c7265616479206578697374732e0000005f82015250565b5f611395601d83610fde565b91506113a082611361565b602082019050919050565b5f6020820190508181035f8301526113c281611389565b9050919050565b5f819050815f5260205f209050919050565b5f6020601f8301049050919050565b5f82821b905092915050565b5f600883026114257fffffffffffffffffffffffffffffffffffffffffffffffffffffffffffffffff826113ea565b61142f86836113ea565b95508019841693508086168417925050509392505050565b5f819050919050565b5f61146a61146561146084610e16565b611447565b610e16565b9050919050565b5f819050919050565b61148383611450565b61149761148f82611471565b8484546113f6565b825550505050565b5f90565b6114ab61149f565b6114b681848461147a565b505050565b5b818110156114d9576114ce5f826114a3565b6001810190506114bc565b5050565b601f82111561151e576114ef816113c9565b6114f8846113db565b81016020851015611507578190505b61151b611513856113db565b8301826114bb565b50505b505050565b5f82821c905092915050565b5f61153e5f1984600802611523565b1980831691505092915050565b5f611556838361152f565b9150826002028217905092915050565b61156f82610d77565b67ffffffffffffffff81111561158857611587610c0c565b5b61159282546112c9565b61159d8282856114dd565b5f60209050601f8311600181146115ce575f84156115bc578287015190505b6115c6858261154b565b86555061162d565b601f1984166115dc866113c9565b5f5b82811015611603578489015182556001820191506020850194506020810190506115de565b86831015611620578489015161161c601f89168261152f565b8355505b6001600288020188555050505b505050505050565b5f6060820190508181035f83015261164d8186610fee565b905061165c6020830185611026565b6116696040830184611035565b94935050505056fea26469706673582212202df55baf20be3456118d20de635a6d0967f1e2033b1073273b148490ab13644e64736f6c634300081a0033",
					"opcodes": "PUSH1 0x80 PUSH1 0x40 MSTORE CALLVALUE DUP1 ISZERO PUSH1 0xE JUMPI PUSH0 DUP1 REVERT JUMPDEST POP PUSH2 0x16A7 DUP1 PUSH2 0x1C PUSH0 CODECOPY PUSH0 RETURN INVALID PUSH1 0x80 PUSH1 0x40 MSTORE CALLVALUE DUP1 ISZERO PUSH2 0xF JUMPI PUSH0 DUP1 REVERT JUMPDEST POP PUSH1 0x4 CALLDATASIZE LT PUSH2 0x55 JUMPI PUSH0 CALLDATALOAD PUSH1 0xE0 SHR DUP1 PUSH4 0x1A23E71F EQ PUSH2 0x59 JUMPI DUP1 PUSH4 0x2D51D2E1 EQ PUSH2 0x89 JUMPI DUP1 PUSH4 0x5967C880 EQ PUSH2 0xA7 JUMPI DUP1 PUSH4 0xA1DAB6B4 EQ PUSH2 0xDD JUMPI DUP1 PUSH4 0xF4DF96B9 EQ PUSH2 0xF9 JUMPI JUMPDEST PUSH0 DUP1 REVERT JUMPDEST PUSH2 0x73 PUSH1 0x4 DUP1 CALLDATASIZE SUB DUP2 ADD SWAP1 PUSH2 0x6E SWAP2 SWAP1 PUSH2 0xD30 JUMP JUMPDEST PUSH2 0x129 JUMP JUMPDEST PUSH1 0x40 MLOAD PUSH2 0x80 SWAP2 SWAP1 PUSH2 0xEE3 JUMP JUMPDEST PUSH1 0x40 MLOAD DUP1 SWAP2 SUB SWAP1 RETURN JUMPDEST PUSH2 0x91 PUSH2 0x4FB JUMP JUMPDEST PUSH1 0x40 MLOAD PUSH2 0x9E SWAP2 SWAP1 PUSH2 0xFBE JUMP JUMPDEST PUSH1 0x40 MLOAD DUP1 SWAP2 SUB SWAP1 RETURN JUMPDEST PUSH2 0xC1 PUSH1 0x4 DUP1 CALLDATASIZE SUB DUP2 ADD SWAP1 PUSH2 0xBC SWAP2 SWAP1 PUSH2 0xD30 JUMP JUMPDEST PUSH2 0x5CF JUMP JUMPDEST PUSH1 0x40 MLOAD PUSH2 0xD4 SWAP8 SWAP7 SWAP6 SWAP5 SWAP4 SWAP3 SWAP2 SWAP1 PUSH2 0x1044 JUMP JUMPDEST PUSH1 0x40 MLOAD DUP1 SWAP2 SUB SWAP1 RETURN JUMPDEST PUSH2 0xF7 PUSH1 0x4 DUP1 CALLDATASIZE SUB DUP2 ADD SWAP1 PUSH2 0xF2 SWAP2 SWAP1 PUSH2 0x10D4 JUMP JUMPDEST PUSH2 0x8E1 JUMP JUMPDEST STOP JUMPDEST PUSH2 0x113 PUSH1 0x4 DUP1 CALLDATASIZE SUB DUP2 ADD SWAP1 PUSH2 0x10E SWAP2 SWAP1 PUSH2 0x1201 JUMP JUMPDEST PUSH2 0xAEC JUMP JUMPDEST PUSH1 0x40 MLOAD PUSH2 0x120 SWAP2 SWAP1 PUSH2 0x122C JUMP JUMPDEST PUSH1 0x40 MLOAD DUP1 SWAP2 SUB SWAP1 RETURN JUMPDEST PUSH2 0x131 PUSH2 0xB92 JUMP JUMPDEST PUSH0 DUP1 DUP4 PUSH1 0x40 MLOAD PUSH2 0x141 SWAP2 SWAP1 PUSH2 0x1286 JUMP JUMPDEST SWAP1 DUP2 MSTORE PUSH1 0x20 ADD PUSH1 0x40 MLOAD DUP1 SWAP2 SUB SWAP1 KECCAK256 PUSH0 ADD DUP1 SLOAD PUSH2 0x15C SWAP1 PUSH2 0x12C9 JUMP JUMPDEST SWAP1 POP SUB PUSH2 0x19E JUMPI PUSH1 0x40 MLOAD PUSH32 0x8C379A000000000000000000000000000000000000000000000000000000000 DUP2 MSTORE PUSH1 0x4 ADD PUSH2 0x195 SWAP1 PUSH2 0x1343 JUMP JUMPDEST PUSH1 0x40 MLOAD DUP1 SWAP2 SUB SWAP1 REVERT JUMPDEST PUSH0 DUP3 PUSH1 0x40 MLOAD PUSH2 0x1AD SWAP2 SWAP1 PUSH2 0x1286 JUMP JUMPDEST SWAP1 DUP2 MSTORE PUSH1 0x20 ADD PUSH1 0x40 MLOAD DUP1 SWAP2 SUB SWAP1 KECCAK256 PUSH1 0x40 MLOAD DUP1 PUSH1 0xE0 ADD PUSH1 0x40 MSTORE SWAP1 DUP2 PUSH0 DUP3 ADD DUP1 SLOAD PUSH2 0x1D5 SWAP1 PUSH2 0x12C9 JUMP JUMPDEST DUP1 PUSH1 0x1F ADD PUSH1 0x20 DUP1 SWAP2 DIV MUL PUSH1 0x20 ADD PUSH1 0x40 MLOAD SWAP1 DUP2 ADD PUSH1 0x40 MSTORE DUP1 SWAP3 SWAP2 SWAP1 DUP2 DUP2 MSTORE PUSH1 0x20 ADD DUP3 DUP1 SLOAD PUSH2 0x201 SWAP1 PUSH2 0x12C9 JUMP JUMPDEST DUP1 ISZERO PUSH2 0x24C JUMPI DUP1 PUSH1 0x1F LT PUSH2 0x223 JUMPI PUSH2 0x100 DUP1 DUP4 SLOAD DIV MUL DUP4 MSTORE SWAP2 PUSH1 0x20 ADD SWAP2 PUSH2 0x24C JUMP JUMPDEST DUP3 ADD SWAP2 SWAP1 PUSH0 MSTORE PUSH1 0x20 PUSH0 KECCAK256 SWAP1 JUMPDEST DUP2 SLOAD DUP2 MSTORE SWAP1 PUSH1 0x1 ADD SWAP1 PUSH1 0x20 ADD DUP1 DUP4 GT PUSH2 0x22F JUMPI DUP3 SWAP1 SUB PUSH1 0x1F AND DUP3 ADD SWAP2 JUMPDEST POP POP POP POP POP DUP2 MSTORE PUSH1 0x20 ADD PUSH1 0x1 DUP3 ADD DUP1 SLOAD PUSH2 0x265 SWAP1 PUSH2 0x12C9 JUMP JUMPDEST DUP1 PUSH1 0x1F ADD PUSH1 0x20 DUP1 SWAP2 DIV MUL PUSH1 0x20 ADD PUSH1 0x40 MLOAD SWAP1 DUP2 ADD PUSH1 0x40 MSTORE DUP1 SWAP3 SWAP2 SWAP1 DUP2 DUP2 MSTORE PUSH1 0x20 ADD DUP3 DUP1 SLOAD PUSH2 0x291 SWAP1 PUSH2 0x12C9 JUMP JUMPDEST DUP1 ISZERO PUSH2 0x2DC JUMPI DUP1 PUSH1 0x1F LT PUSH2 0x2B3 JUMPI PUSH2 0x100 DUP1 DUP4 SLOAD DIV MUL DUP4 MSTORE SWAP2 PUSH1 0x20 ADD SWAP2 PUSH2 0x2DC JUMP JUMPDEST DUP3 ADD SWAP2 SWAP1 PUSH0 MSTORE PUSH1 0x20 PUSH0 KECCAK256 SWAP1 JUMPDEST DUP2 SLOAD DUP2 MSTORE SWAP1 PUSH1 0x1 ADD SWAP1 PUSH1 0x20 ADD DUP1 DUP4 GT PUSH2 0x2BF JUMPI DUP3 SWAP1 SUB PUSH1 0x1F AND DUP3 ADD SWAP2 JUMPDEST POP POP POP POP POP DUP2 MSTORE PUSH1 0x20 ADD PUSH1 0x2 DUP3 ADD DUP1 SLOAD PUSH2 0x2F5 SWAP1 PUSH2 0x12C9 JUMP JUMPDEST DUP1 PUSH1 0x1F ADD PUSH1 0x20 DUP1 SWAP2 DIV MUL PUSH1 0x20 ADD PUSH1 0x40 MLOAD SWAP1 DUP2 ADD PUSH1 0x40 MSTORE DUP1 SWAP3 SWAP2 SWAP1 DUP2 DUP2 MSTORE PUSH1 0x20 ADD DUP3 DUP1 SLOAD PUSH2 0x321 SWAP1 PUSH2 0x12C9 JUMP JUMPDEST DUP1 ISZERO PUSH2 0x36C JUMPI DUP1 PUSH1 0x1F LT PUSH2 0x343 JUMPI PUSH2 0x100 DUP1 DUP4 SLOAD DIV MUL DUP4 MSTORE SWAP2 PUSH1 0x20 ADD SWAP2 PUSH2 0x36C JUMP JUMPDEST DUP3 ADD SWAP2 SWAP1 PUSH0 MSTORE PUSH1 0x20 PUSH0 KECCAK256 SWAP1 JUMPDEST DUP2 SLOAD DUP2 MSTORE SWAP1 PUSH1 0x1 ADD SWAP1 PUSH1 0x20 ADD DUP1 DUP4 GT PUSH2 0x34F JUMPI DUP3 SWAP1 SUB PUSH1 0x1F AND DUP3 ADD SWAP2 JUMPDEST POP POP POP POP POP DUP2 MSTORE PUSH1 0x20 ADD PUSH1 0x3 DUP3 ADD DUP1 SLOAD PUSH2 0x385 SWAP1 PUSH2 0x12C9 JUMP JUMPDEST DUP1 PUSH1 0x1F ADD PUSH1 0x20 DUP1 SWAP2 DIV MUL PUSH1 0x20 ADD PUSH1 0x40 MLOAD SWAP1 DUP2 ADD PUSH1 0x40 MSTORE DUP1 SWAP3 SWAP2 SWAP1 DUP2 DUP2 MSTORE PUSH1 0x20 ADD DUP3 DUP1 SLOAD PUSH2 0x3B1 SWAP1 PUSH2 0x12C9 JUMP JUMPDEST DUP1 ISZERO PUSH2 0x3FC JUMPI DUP1 PUSH1 0x1F LT PUSH2 0x3D3 JUMPI PUSH2 0x100 DUP1 DUP4 SLOAD DIV MUL DUP4 MSTORE SWAP2 PUSH1 0x20 ADD SWAP2 PUSH2 0x3FC JUMP JUMPDEST DUP3 ADD SWAP2 SWAP1 PUSH0 MSTORE PUSH1 0x20 PUSH0 KECCAK256 SWAP1 JUMPDEST DUP2 SLOAD DUP2 MSTORE SWAP1 PUSH1 0x1 ADD SWAP1 PUSH1 0x20 ADD DUP1 DUP4 GT PUSH2 0x3DF JUMPI DUP3 SWAP1 SUB PUSH1 0x1F AND DUP3 ADD SWAP2 JUMPDEST POP POP POP POP POP DUP2 MSTORE PUSH1 0x20 ADD PUSH1 0x4 DUP3 ADD DUP1 SLOAD PUSH2 0x415 SWAP1 PUSH2 0x12C9 JUMP JUMPDEST DUP1 PUSH1 0x1F ADD PUSH1 0x20 DUP1 SWAP2 DIV MUL PUSH1 0x20 ADD PUSH1 0x40 MLOAD SWAP1 DUP2 ADD PUSH1 0x40 MSTORE DUP1 SWAP3 SWAP2 SWAP1 DUP2 DUP2 MSTORE PUSH1 0x20 ADD DUP3 DUP1 SLOAD PUSH2 0x441 SWAP1 PUSH2 0x12C9 JUMP JUMPDEST DUP1 ISZERO PUSH2 0x48C JUMPI DUP1 PUSH1 0x1F LT PUSH2 0x463 JUMPI PUSH2 0x100 DUP1 DUP4 SLOAD DIV MUL DUP4 MSTORE SWAP2 PUSH1 0x20 ADD SWAP2 PUSH2 0x48C JUMP JUMPDEST DUP3 ADD SWAP2 SWAP1 PUSH0 MSTORE PUSH1 0x20 PUSH0 KECCAK256 SWAP1 JUMPDEST DUP2 SLOAD DUP2 MSTORE SWAP1 PUSH1 0x1 ADD SWAP1 PUSH1 0x20 ADD DUP1 DUP4 GT PUSH2 0x46F JUMPI DUP3 SWAP1 SUB PUSH1 0x1F AND DUP3 ADD SWAP2 JUMPDEST POP POP POP POP POP DUP2 MSTORE PUSH1 0x20 ADD PUSH1 0x5 DUP3 ADD PUSH0 SWAP1 SLOAD SWAP1 PUSH2 0x100 EXP SWAP1 DIV PUSH20 0xFFFFFFFFFFFFFFFFFFFFFFFFFFFFFFFFFFFFFFFF AND PUSH20 0xFFFFFFFFFFFFFFFFFFFFFFFFFFFFFFFFFFFFFFFF AND PUSH20 0xFFFFFFFFFFFFFFFFFFFFFFFFFFFFFFFFFFFFFFFF AND DUP2 MSTORE PUSH1 0x20 ADD PUSH1 0x6 DUP3 ADD SLOAD DUP2 MSTORE POP POP SWAP1 POP SWAP2 SWAP1 POP JUMP JUMPDEST PUSH1 0x60 PUSH1 0x1 DUP1 SLOAD DUP1 PUSH1 0x20 MUL PUSH1 0x20 ADD PUSH1 0x40 MLOAD SWAP1 DUP2 ADD PUSH1 0x40 MSTORE DUP1 SWAP3 SWAP2 SWAP1 DUP2 DUP2 MSTORE PUSH1 0x20 ADD PUSH0 SWAP1 JUMPDEST DUP3 DUP3 LT ISZERO PUSH2 0x5C6 JUMPI DUP4 DUP3 SWAP1 PUSH0 MSTORE PUSH1 0x20 PUSH0 KECCAK256 ADD DUP1 SLOAD PUSH2 0x53B SWAP1 PUSH2 0x12C9 JUMP JUMPDEST DUP1 PUSH1 0x1F ADD PUSH1 0x20 DUP1 SWAP2 DIV MUL PUSH1 0x20 ADD PUSH1 0x40 MLOAD SWAP1 DUP2 ADD PUSH1 0x40 MSTORE DUP1 SWAP3 SWAP2 SWAP1 DUP2 DUP2 MSTORE PUSH1 0x20 ADD DUP3 DUP1 SLOAD PUSH2 0x567 SWAP1 PUSH2 0x12C9 JUMP JUMPDEST DUP1 ISZERO PUSH2 0x5B2 JUMPI DUP1 PUSH1 0x1F LT PUSH2 0x589 JUMPI PUSH2 0x100 DUP1 DUP4 SLOAD DIV MUL DUP4 MSTORE SWAP2 PUSH1 0x20 ADD SWAP2 PUSH2 0x5B2 JUMP JUMPDEST DUP3 ADD SWAP2 SWAP1 PUSH0 MSTORE PUSH1 0x20 PUSH0 KECCAK256 SWAP1 JUMPDEST DUP2 SLOAD DUP2 MSTORE SWAP1 PUSH1 0x1 ADD SWAP1 PUSH1 0x20 ADD DUP1 DUP4 GT PUSH2 0x595 JUMPI DUP3 SWAP1 SUB PUSH1 0x1F AND DUP3 ADD SWAP2 JUMPDEST POP POP POP POP POP DUP2 MSTORE PUSH1 0x20 ADD SWAP1 PUSH1 0x1 ADD SWAP1 PUSH2 0x51E JUMP JUMPDEST POP POP POP POP SWAP1 POP SWAP1 JUMP JUMPDEST PUSH0 DUP2 DUP1 MLOAD PUSH1 0x20 DUP2 ADD DUP3 ADD DUP1 MLOAD DUP5 DUP3 MSTORE PUSH1 0x20 DUP4 ADD PUSH1 0x20 DUP6 ADD KECCAK256 DUP2 DUP4 MSTORE DUP1 SWAP6 POP POP POP POP POP POP PUSH0 SWAP2 POP SWAP1 POP DUP1 PUSH0 ADD DUP1 SLOAD PUSH2 0x605 SWAP1 PUSH2 0x12C9 JUMP JUMPDEST DUP1 PUSH1 0x1F ADD PUSH1 0x20 DUP1 SWAP2 DIV MUL PUSH1 0x20 ADD PUSH1 0x40 MLOAD SWAP1 DUP2 ADD PUSH1 0x40 MSTORE DUP1 SWAP3 SWAP2 SWAP1 DUP2 DUP2 MSTORE PUSH1 0x20 ADD DUP3 DUP1 SLOAD PUSH2 0x631 SWAP1 PUSH2 0x12C9 JUMP JUMPDEST DUP1 ISZERO PUSH2 0x67C JUMPI DUP1 PUSH1 0x1F LT PUSH2 0x653 JUMPI PUSH2 0x100 DUP1 DUP4 SLOAD DIV MUL DUP4 MSTORE SWAP2 PUSH1 0x20 ADD SWAP2 PUSH2 0x67C JUMP JUMPDEST DUP3 ADD SWAP2 SWAP1 PUSH0 MSTORE PUSH1 0x20 PUSH0 KECCAK256 SWAP1 JUMPDEST DUP2 SLOAD DUP2 MSTORE SWAP1 PUSH1 0x1 ADD SWAP1 PUSH1 0x20 ADD DUP1 DUP4 GT PUSH2 0x65F JUMPI DUP3 SWAP1 SUB PUSH1 0x1F AND DUP3 ADD SWAP2 JUMPDEST POP POP POP POP POP SWAP1 DUP1 PUSH1 0x1 ADD DUP1 SLOAD PUSH2 0x691 SWAP1 PUSH2 0x12C9 JUMP JUMPDEST DUP1 PUSH1 0x1F ADD PUSH1 0x20 DUP1 SWAP2 DIV MUL PUSH1 0x20 ADD PUSH1 0x40 MLOAD SWAP1 DUP2 ADD PUSH1 0x40 MSTORE DUP1 SWAP3 SWAP2 SWAP1 DUP2 DUP2 MSTORE PUSH1 0x20 ADD DUP3 DUP1 SLOAD PUSH2 0x6BD SWAP1 PUSH2 0x12C9 JUMP JUMPDEST DUP1 ISZERO PUSH2 0x708 JUMPI DUP1 PUSH1 0x1F LT PUSH2 0x6DF JUMPI PUSH2 0x100 DUP1 DUP4 SLOAD DIV MUL DUP4 MSTORE SWAP2 PUSH1 0x20 ADD SWAP2 PUSH2 0x708 JUMP JUMPDEST DUP3 ADD SWAP2 SWAP1 PUSH0 MSTORE PUSH1 0x20 PUSH0 KECCAK256 SWAP1 JUMPDEST DUP2 SLOAD DUP2 MSTORE SWAP1 PUSH1 0x1 ADD SWAP1 PUSH1 0x20 ADD DUP1 DUP4 GT PUSH2 0x6EB JUMPI DUP3 SWAP1 SUB PUSH1 0x1F AND DUP3 ADD SWAP2 JUMPDEST POP POP POP POP POP SWAP1 DUP1 PUSH1 0x2 ADD DUP1 SLOAD PUSH2 0x71D SWAP1 PUSH2 0x12C9 JUMP JUMPDEST DUP1 PUSH1 0x1F ADD PUSH1 0x20 DUP1 SWAP2 DIV MUL PUSH1 0x20 ADD PUSH1 0x40 MLOAD SWAP1 DUP2 ADD PUSH1 0x40 MSTORE DUP1 SWAP3 SWAP2 SWAP1 DUP2 DUP2 MSTORE PUSH1 0x20 ADD DUP3 DUP1 SLOAD PUSH2 0x749 SWAP1 PUSH2 0x12C9 JUMP JUMPDEST DUP1 ISZERO PUSH2 0x794 JUMPI DUP1 PUSH1 0x1F LT PUSH2 0x76B JUMPI PUSH2 0x100 DUP1 DUP4 SLOAD DIV MUL DUP4 MSTORE SWAP2 PUSH1 0x20 ADD SWAP2 PUSH2 0x794 JUMP JUMPDEST DUP3 ADD SWAP2 SWAP1 PUSH0 MSTORE PUSH1 0x20 PUSH0 KECCAK256 SWAP1 JUMPDEST DUP2 SLOAD DUP2 MSTORE SWAP1 PUSH1 0x1 ADD SWAP1 PUSH1 0x20 ADD DUP1 DUP4 GT PUSH2 0x777 JUMPI DUP3 SWAP1 SUB PUSH1 0x1F AND DUP3 ADD SWAP2 JUMPDEST POP POP POP POP POP SWAP1 DUP1 PUSH1 0x3 ADD DUP1 SLOAD PUSH2 0x7A9 SWAP1 PUSH2 0x12C9 JUMP JUMPDEST DUP1 PUSH1 0x1F ADD PUSH1 0x20 DUP1 SWAP2 DIV MUL PUSH1 0x20 ADD PUSH1 0x40 MLOAD SWAP1 DUP2 ADD PUSH1 0x40 MSTORE DUP1 SWAP3 SWAP2 SWAP1 DUP2 DUP2 MSTORE PUSH1 0x20 ADD DUP3 DUP1 SLOAD PUSH2 0x7D5 SWAP1 PUSH2 0x12C9 JUMP JUMPDEST DUP1 ISZERO PUSH2 0x820 JUMPI DUP1 PUSH1 0x1F LT PUSH2 0x7F7 JUMPI PUSH2 0x100 DUP1 DUP4 SLOAD DIV MUL DUP4 MSTORE SWAP2 PUSH1 0x20 ADD SWAP2 PUSH2 0x820 JUMP JUMPDEST DUP3 ADD SWAP2 SWAP1 PUSH0 MSTORE PUSH1 0x20 PUSH0 KECCAK256 SWAP1 JUMPDEST DUP2 SLOAD DUP2 MSTORE SWAP1 PUSH1 0x1 ADD SWAP1 PUSH1 0x20 ADD DUP1 DUP4 GT PUSH2 0x803 JUMPI DUP3 SWAP1 SUB PUSH1 0x1F AND DUP3 ADD SWAP2 JUMPDEST POP POP POP POP POP SWAP1 DUP1 PUSH1 0x4 ADD DUP1 SLOAD PUSH2 0x835 SWAP1 PUSH2 0x12C9 JUMP JUMPDEST DUP1 PUSH1 0x1F ADD PUSH1 0x20 DUP1 SWAP2 DIV MUL PUSH1 0x20 ADD PUSH1 0x40 MLOAD SWAP1 DUP2 ADD PUSH1 0x40 MSTORE DUP1 SWAP3 SWAP2 SWAP1 DUP2 DUP2 MSTORE PUSH1 0x20 ADD DUP3 DUP1 SLOAD PUSH2 0x861 SWAP1 PUSH2 0x12C9 JUMP JUMPDEST DUP1 ISZERO PUSH2 0x8AC JUMPI DUP1 PUSH1 0x1F LT PUSH2 0x883 JUMPI PUSH2 0x100 DUP1 DUP4 SLOAD DIV MUL DUP4 MSTORE SWAP2 PUSH1 0x20 ADD SWAP2 PUSH2 0x8AC JUMP JUMPDEST DUP3 ADD SWAP2 SWAP1 PUSH0 MSTORE PUSH1 0x20 PUSH0 KECCAK256 SWAP1 JUMPDEST DUP2 SLOAD DUP2 MSTORE SWAP1 PUSH1 0x1 ADD SWAP1 PUSH1 0x20 ADD DUP1 DUP4 GT PUSH2 0x88F JUMPI DUP3 SWAP1 SUB PUSH1 0x1F AND DUP3 ADD SWAP2 JUMPDEST POP POP POP POP POP SWAP1 DUP1 PUSH1 0x5 ADD PUSH0 SWAP1 SLOAD SWAP1 PUSH2 0x100 EXP SWAP1 DIV PUSH20 0xFFFFFFFFFFFFFFFFFFFFFFFFFFFFFFFFFFFFFFFF AND SWAP1 DUP1 PUSH1 0x6 ADD SLOAD SWAP1 POP DUP8 JUMP JUMPDEST PUSH0 DUP1 DUP7 PUSH1 0x40 MLOAD PUSH2 0x8F1 SWAP2 SWAP1 PUSH2 0x1286 JUMP JUMPDEST SWAP1 DUP2 MSTORE PUSH1 0x20 ADD PUSH1 0x40 MLOAD DUP1 SWAP2 SUB SWAP1 KECCAK256 PUSH0 ADD DUP1 SLOAD PUSH2 0x90C SWAP1 PUSH2 0x12C9 JUMP JUMPDEST SWAP1 POP EQ PUSH2 0x94E JUMPI PUSH1 0x40 MLOAD PUSH32 0x8C379A000000000000000000000000000000000000000000000000000000000 DUP2 MSTORE PUSH1 0x4 ADD PUSH2 0x945 SWAP1 PUSH2 0x13AB JUMP JUMPDEST PUSH1 0x40 MLOAD DUP1 SWAP2 SUB SWAP1 REVERT JUMPDEST PUSH0 PUSH1 0x40 MLOAD DUP1 PUSH1 0xE0 ADD PUSH1 0x40 MSTORE DUP1 DUP8 DUP2 MSTORE PUSH1 0x20 ADD DUP7 DUP2 MSTORE PUSH1 0x20 ADD DUP6 DUP2 MSTORE PUSH1 0x20 ADD DUP5 DUP2 MSTORE PUSH1 0x20 ADD DUP4 DUP2 MSTORE PUSH1 0x20 ADD CALLER PUSH20 0xFFFFFFFFFFFFFFFFFFFFFFFFFFFFFFFFFFFFFFFF AND DUP2 MSTORE PUSH1 0x20 ADD TIMESTAMP DUP2 MSTORE POP SWAP1 POP DUP1 PUSH0 DUP8 PUSH1 0x40 MLOAD PUSH2 0x9AA SWAP2 SWAP1 PUSH2 0x1286 JUMP JUMPDEST SWAP1 DUP2 MSTORE PUSH1 0x20 ADD PUSH1 0x40 MLOAD DUP1 SWAP2 SUB SWAP1 KECCAK256 PUSH0 DUP3 ADD MLOAD DUP2 PUSH0 ADD SWAP1 DUP2 PUSH2 0x9CB SWAP2 SWAP1 PUSH2 0x1566 JUMP JUMPDEST POP PUSH1 0x20 DUP3 ADD MLOAD DUP2 PUSH1 0x1 ADD SWAP1 DUP2 PUSH2 0x9E1 SWAP2 SWAP1 PUSH2 0x1566 JUMP JUMPDEST POP PUSH1 0x40 DUP3 ADD MLOAD DUP2 PUSH1 0x2 ADD SWAP1 DUP2 PUSH2 0x9F7 SWAP2 SWAP1 PUSH2 0x1566 JUMP JUMPDEST POP PUSH1 0x60 DUP3 ADD MLOAD DUP2 PUSH1 0x3 ADD SWAP1 DUP2 PUSH2 0xA0D SWAP2 SWAP1 PUSH2 0x1566 JUMP JUMPDEST POP PUSH1 0x80 DUP3 ADD MLOAD DUP2 PUSH1 0x4 ADD SWAP1 DUP2 PUSH2 0xA23 SWAP2 SWAP1 PUSH2 0x1566 JUMP JUMPDEST POP PUSH1 0xA0 DUP3 ADD MLOAD DUP2 PUSH1 0x5 ADD PUSH0 PUSH2 0x100 EXP DUP2 SLOAD DUP2 PUSH20 0xFFFFFFFFFFFFFFFFFFFFFFFFFFFFFFFFFFFFFFFF MUL NOT AND SWAP1 DUP4 PUSH20 0xFFFFFFFFFFFFFFFFFFFFFFFFFFFFFFFFFFFFFFFF AND MUL OR SWAP1 SSTORE POP PUSH1 0xC0 DUP3 ADD MLOAD DUP2 PUSH1 0x6 ADD SSTORE SWAP1 POP POP PUSH1 0x1 DUP7 SWAP1 DUP1 PUSH1 0x1 DUP2 SLOAD ADD DUP1 DUP3 SSTORE DUP1 SWAP2 POP POP PUSH1 0x1 SWAP1 SUB SWAP1 PUSH0 MSTORE PUSH1 0x20 PUSH0 KECCAK256 ADD PUSH0 SWAP1 SWAP2 SWAP1 SWAP2 SWAP1 SWAP2 POP SWAP1 DUP2 PUSH2 0xAA8 SWAP2 SWAP1 PUSH2 0x1566 JUMP JUMPDEST POP PUSH32 0x1891033407F19D322D421F531B82EFE9C947D2FA516DA0379EDA66007D2DF4D DUP7 CALLER TIMESTAMP PUSH1 0x40 MLOAD PUSH2 0xADC SWAP4 SWAP3 SWAP2 SWAP1 PUSH2 0x1635 JUMP JUMPDEST PUSH1 0x40 MLOAD DUP1 SWAP2 SUB SWAP1 LOG1 POP POP POP POP POP POP JUMP JUMPDEST PUSH1 0x1 DUP2 DUP2 SLOAD DUP2 LT PUSH2 0xAFB JUMPI PUSH0 DUP1 REVERT JUMPDEST SWAP1 PUSH0 MSTORE PUSH1 0x20 PUSH0 KECCAK256 ADD PUSH0 SWAP2 POP SWAP1 POP DUP1 SLOAD PUSH2 0xB13 SWAP1 PUSH2 0x12C9 JUMP JUMPDEST DUP1 PUSH1 0x1F ADD PUSH1 0x20 DUP1 SWAP2 DIV MUL PUSH1 0x20 ADD PUSH1 0x40 MLOAD SWAP1 DUP2 ADD PUSH1 0x40 MSTORE DUP1 SWAP3 SWAP2 SWAP1 DUP2 DUP2 MSTORE PUSH1 0x20 ADD DUP3 DUP1 SLOAD PUSH2 0xB3F SWAP1 PUSH2 0x12C9 JUMP JUMPDEST DUP1 ISZERO PUSH2 0xB8A JUMPI DUP1 PUSH1 0x1F LT PUSH2 0xB61 JUMPI PUSH2 0x100 DUP1 DUP4 SLOAD DIV MUL DUP4 MSTORE SWAP2 PUSH1 0x20 ADD SWAP2 PUSH2 0xB8A JUMP JUMPDEST DUP3 ADD SWAP2 SWAP1 PUSH0 MSTORE PUSH1 0x20 PUSH0 KECCAK256 SWAP1 JUMPDEST DUP2 SLOAD DUP2 MSTORE SWAP1 PUSH1 0x1 ADD SWAP1 PUSH1 0x20 ADD DUP1 DUP4 GT PUSH2 0xB6D JUMPI DUP3 SWAP1 SUB PUSH1 0x1F AND DUP3 ADD SWAP2 JUMPDEST POP POP POP POP POP DUP2 JUMP JUMPDEST PUSH1 0x40 MLOAD DUP1 PUSH1 0xE0 ADD PUSH1 0x40 MSTORE DUP1 PUSH1 0x60 DUP2 MSTORE PUSH1 0x20 ADD PUSH1 0x60 DUP2 MSTORE PUSH1 0x20 ADD PUSH1 0x60 DUP2 MSTORE PUSH1 0x20 ADD PUSH1 0x60 DUP2 MSTORE PUSH1 0x20 ADD PUSH1 0x60 DUP2 MSTORE PUSH1 0x20 ADD PUSH0 PUSH20 0xFFFFFFFFFFFFFFFFFFFFFFFFFFFFFFFFFFFFFFFF AND DUP2 MSTORE PUSH1 0x20 ADD PUSH0 DUP2 MSTORE POP SWAP1 JUMP JUMPDEST PUSH0 PUSH1 0x40 MLOAD SWAP1 POP SWAP1 JUMP JUMPDEST PUSH0 DUP1 REVERT JUMPDEST PUSH0 DUP1 REVERT JUMPDEST PUSH0 DUP1 REVERT JUMPDEST PUSH0 DUP1 REVERT JUMPDEST PUSH0 PUSH1 0x1F NOT PUSH1 0x1F DUP4 ADD AND SWAP1 POP SWAP2 SWAP1 POP JUMP JUMPDEST PUSH32 0x4E487B7100000000000000000000000000000000000000000000000000000000 PUSH0 MSTORE PUSH1 0x41 PUSH1 0x4 MSTORE PUSH1 0x24 PUSH0 REVERT JUMPDEST PUSH2 0xC42 DUP3 PUSH2 0xBFC JUMP JUMPDEST DUP2 ADD DUP2 DUP2 LT PUSH8 0xFFFFFFFFFFFFFFFF DUP3 GT OR ISZERO PUSH2 0xC61 JUMPI PUSH2 0xC60 PUSH2 0xC0C JUMP JUMPDEST JUMPDEST DUP1 PUSH1 0x40 MSTORE POP POP POP JUMP JUMPDEST PUSH0 PUSH2 0xC73 PUSH2 0xBE3 JUMP JUMPDEST SWAP1 POP PUSH2 0xC7F DUP3 DUP3 PUSH2 0xC39 JUMP JUMPDEST SWAP2 SWAP1 POP JUMP JUMPDEST PUSH0 PUSH8 0xFFFFFFFFFFFFFFFF DUP3 GT ISZERO PUSH2 0xC9E JUMPI PUSH2 0xC9D PUSH2 0xC0C JUMP JUMPDEST JUMPDEST PUSH2 0xCA7 DUP3 PUSH2 0xBFC JUMP JUMPDEST SWAP1 POP PUSH1 0x20 DUP2 ADD SWAP1 POP SWAP2 SWAP1 POP JUMP JUMPDEST DUP3 DUP2 DUP4 CALLDATACOPY PUSH0 DUP4 DUP4 ADD MSTORE POP POP POP JUMP JUMPDEST PUSH0 PUSH2 0xCD4 PUSH2 0xCCF DUP5 PUSH2 0xC84 JUMP JUMPDEST PUSH2 0xC6A JUMP JUMPDEST SWAP1 POP DUP3 DUP2 MSTORE PUSH1 0x20 DUP2 ADD DUP5 DUP5 DUP5 ADD GT ISZERO PUSH2 0xCF0 JUMPI PUSH2 0xCEF PUSH2 0xBF8 JUMP JUMPDEST JUMPDEST PUSH2 0xCFB DUP5 DUP3 DUP6 PUSH2 0xCB4 JUMP JUMPDEST POP SWAP4 SWAP3 POP POP POP JUMP JUMPDEST PUSH0 DUP3 PUSH1 0x1F DUP4 ADD SLT PUSH2 0xD17 JUMPI PUSH2 0xD16 PUSH2 0xBF4 JUMP JUMPDEST JUMPDEST DUP2 CALLDATALOAD PUSH2 0xD27 DUP5 DUP3 PUSH1 0x20 DUP7 ADD PUSH2 0xCC2 JUMP JUMPDEST SWAP2 POP POP SWAP3 SWAP2 POP POP JUMP JUMPDEST PUSH0 PUSH1 0x20 DUP3 DUP5 SUB SLT ISZERO PUSH2 0xD45 JUMPI PUSH2 0xD44 PUSH2 0xBEC JUMP JUMPDEST JUMPDEST PUSH0 DUP3 ADD CALLDATALOAD PUSH8 0xFFFFFFFFFFFFFFFF DUP2 GT ISZERO PUSH2 0xD62 JUMPI PUSH2 0xD61 PUSH2 0xBF0 JUMP JUMPDEST JUMPDEST PUSH2 0xD6E DUP5 DUP3 DUP6 ADD PUSH2 0xD03 JUMP JUMPDEST SWAP2 POP POP SWAP3 SWAP2 POP POP JUMP JUMPDEST PUSH0 DUP2 MLOAD SWAP1 POP SWAP2 SWAP1 POP JUMP JUMPDEST PUSH0 DUP3 DUP3 MSTORE PUSH1 0x20 DUP3 ADD SWAP1 POP SWAP3 SWAP2 POP POP JUMP JUMPDEST DUP3 DUP2 DUP4 MCOPY PUSH0 DUP4 DUP4 ADD MSTORE POP POP POP JUMP JUMPDEST PUSH0 PUSH2 0xDA9 DUP3 PUSH2 0xD77 JUMP JUMPDEST PUSH2 0xDB3 DUP2 DUP6 PUSH2 0xD81 JUMP JUMPDEST SWAP4 POP PUSH2 0xDC3 DUP2 DUP6 PUSH1 0x20 DUP7 ADD PUSH2 0xD91 JUMP JUMPDEST PUSH2 0xDCC DUP2 PUSH2 0xBFC JUMP JUMPDEST DUP5 ADD SWAP2 POP POP SWAP3 SWAP2 POP POP JUMP JUMPDEST PUSH0 PUSH20 0xFFFFFFFFFFFFFFFFFFFFFFFFFFFFFFFFFFFFFFFF DUP3 AND SWAP1 POP SWAP2 SWAP1 POP JUMP JUMPDEST PUSH0 PUSH2 0xE00 DUP3 PUSH2 0xDD7 JUMP JUMPDEST SWAP1 POP SWAP2 SWAP1 POP JUMP JUMPDEST PUSH2 0xE10 DUP2 PUSH2 0xDF6 JUMP JUMPDEST DUP3 MSTORE POP POP JUMP JUMPDEST PUSH0 DUP2 SWAP1 POP SWAP2 SWAP1 POP JUMP JUMPDEST PUSH2 0xE28 DUP2 PUSH2 0xE16 JUMP JUMPDEST DUP3 MSTORE POP POP JUMP JUMPDEST PUSH0 PUSH1 0xE0 DUP4 ADD PUSH0 DUP4 ADD MLOAD DUP5 DUP3 SUB PUSH0 DUP7 ADD MSTORE PUSH2 0xE48 DUP3 DUP3 PUSH2 0xD9F JUMP JUMPDEST SWAP2 POP POP PUSH1 0x20 DUP4 ADD MLOAD DUP5 DUP3 SUB PUSH1 0x20 DUP7 ADD MSTORE PUSH2 0xE62 DUP3 DUP3 PUSH2 0xD9F JUMP JUMPDEST SWAP2 POP POP PUSH1 0x40 DUP4 ADD MLOAD DUP5 DUP3 SUB PUSH1 0x40 DUP7 ADD MSTORE PUSH2 0xE7C DUP3 DUP3 PUSH2 0xD9F JUMP JUMPDEST SWAP2 POP POP PUSH1 0x60 DUP4 ADD MLOAD DUP5 DUP3 SUB PUSH1 0x60 DUP7 ADD MSTORE PUSH2 0xE96 DUP3 DUP3 PUSH2 0xD9F JUMP JUMPDEST SWAP2 POP POP PUSH1 0x80 DUP4 ADD MLOAD DUP5 DUP3 SUB PUSH1 0x80 DUP7 ADD MSTORE PUSH2 0xEB0 DUP3 DUP3 PUSH2 0xD9F JUMP JUMPDEST SWAP2 POP POP PUSH1 0xA0 DUP4 ADD MLOAD PUSH2 0xEC5 PUSH1 0xA0 DUP7 ADD DUP3 PUSH2 0xE07 JUMP JUMPDEST POP PUSH1 0xC0 DUP4 ADD MLOAD PUSH2 0xED8 PUSH1 0xC0 DUP7 ADD DUP3 PUSH2 0xE1F JUMP JUMPDEST POP DUP1 SWAP2 POP POP SWAP3 SWAP2 POP POP JUMP JUMPDEST PUSH0 PUSH1 0x20 DUP3 ADD SWAP1 POP DUP2 DUP2 SUB PUSH0 DUP4 ADD MSTORE PUSH2 0xEFB DUP2 DUP5 PUSH2 0xE2E JUMP JUMPDEST SWAP1 POP SWAP3 SWAP2 POP POP JUMP JUMPDEST PUSH0 DUP2 MLOAD SWAP1 POP SWAP2 SWAP1 POP JUMP JUMPDEST PUSH0 DUP3 DUP3 MSTORE PUSH1 0x20 DUP3 ADD SWAP1 POP SWAP3 SWAP2 POP POP JUMP JUMPDEST PUSH0 DUP2 SWAP1 POP PUSH1 0x20 DUP3 ADD SWAP1 POP SWAP2 SWAP1 POP JUMP JUMPDEST PUSH0 PUSH2 0xF37 DUP4 DUP4 PUSH2 0xD9F JUMP JUMPDEST SWAP1 POP SWAP3 SWAP2 POP POP JUMP JUMPDEST PUSH0 PUSH1 0x20 DUP3 ADD SWAP1 POP SWAP2 SWAP1 POP JUMP JUMPDEST PUSH0 PUSH2 0xF55 DUP3 PUSH2 0xF03 JUMP JUMPDEST PUSH2 0xF5F DUP2 DUP6 PUSH2 0xF0D JUMP JUMPDEST SWAP4 POP DUP4 PUSH1 0x20 DUP3 MUL DUP6 ADD PUSH2 0xF71 DUP6 PUSH2 0xF1D JUMP JUMPDEST DUP1 PUSH0 JUMPDEST DUP6 DUP2 LT ISZERO PUSH2 0xFAC JUMPI DUP5 DUP5 SUB DUP10 MSTORE DUP2 MLOAD PUSH2 0xF8D DUP6 DUP3 PUSH2 0xF2C JUMP JUMPDEST SWAP5 POP PUSH2 0xF98 DUP4 PUSH2 0xF3F JUMP JUMPDEST SWAP3 POP PUSH1 0x20 DUP11 ADD SWAP10 POP POP PUSH1 0x1 DUP2 ADD SWAP1 POP PUSH2 0xF74 JUMP JUMPDEST POP DUP3 SWAP8 POP DUP8 SWAP6 POP POP POP POP POP POP SWAP3 SWAP2 POP POP JUMP JUMPDEST PUSH0 PUSH1 0x20 DUP3 ADD SWAP1 POP DUP2 DUP2 SUB PUSH0 DUP4 ADD MSTORE PUSH2 0xFD6 DUP2 DUP5 PUSH2 0xF4B JUMP JUMPDEST SWAP1 POP SWAP3 SWAP2 POP POP JUMP JUMPDEST PUSH0 DUP3 DUP3 MSTORE PUSH1 0x20 DUP3 ADD SWAP1 POP SWAP3 SWAP2 POP POP JUMP JUMPDEST PUSH0 PUSH2 0xFF8 DUP3 PUSH2 0xD77 JUMP JUMPDEST PUSH2 0x1002 DUP2 DUP6 PUSH2 0xFDE JUMP JUMPDEST SWAP4 POP PUSH2 0x1012 DUP2 DUP6 PUSH1 0x20 DUP7 ADD PUSH2 0xD91 JUMP JUMPDEST PUSH2 0x101B DUP2 PUSH2 0xBFC JUMP JUMPDEST DUP5 ADD SWAP2 POP POP SWAP3 SWAP2 POP POP JUMP JUMPDEST PUSH2 0x102F DUP2 PUSH2 0xDF6 JUMP JUMPDEST DUP3 MSTORE POP POP JUMP JUMPDEST PUSH2 0x103E DUP2 PUSH2 0xE16 JUMP JUMPDEST DUP3 MSTORE POP POP JUMP JUMPDEST PUSH0 PUSH1 0xE0 DUP3 ADD SWAP1 POP DUP2 DUP2 SUB PUSH0 DUP4 ADD MSTORE PUSH2 0x105C DUP2 DUP11 PUSH2 0xFEE JUMP JUMPDEST SWAP1 POP DUP2 DUP2 SUB PUSH1 0x20 DUP4 ADD MSTORE PUSH2 0x1070 DUP2 DUP10 PUSH2 0xFEE JUMP JUMPDEST SWAP1 POP DUP2 DUP2 SUB PUSH1 0x40 DUP4 ADD MSTORE PUSH2 0x1084 DUP2 DUP9 PUSH2 0xFEE JUMP JUMPDEST SWAP1 POP DUP2 DUP2 SUB PUSH1 0x60 DUP4 ADD MSTORE PUSH2 0x1098 DUP2 DUP8 PUSH2 0xFEE JUMP JUMPDEST SWAP1 POP DUP2 DUP2 SUB PUSH1 0x80 DUP4 ADD MSTORE PUSH2 0x10AC DUP2 DUP7 PUSH2 0xFEE JUMP JUMPDEST SWAP1 POP PUSH2 0x10BB PUSH1 0xA0 DUP4 ADD DUP6 PUSH2 0x1026 JUMP JUMPDEST PUSH2 0x10C8 PUSH1 0xC0 DUP4 ADD DUP5 PUSH2 0x1035 JUMP JUMPDEST SWAP9 SWAP8 POP POP POP POP POP POP POP POP JUMP JUMPDEST PUSH0 DUP1 PUSH0 DUP1 PUSH0 PUSH1 0xA0 DUP7 DUP9 SUB SLT ISZERO PUSH2 0x10ED JUMPI PUSH2 0x10EC PUSH2 0xBEC JUMP JUMPDEST JUMPDEST PUSH0 DUP7 ADD CALLDATALOAD PUSH8 0xFFFFFFFFFFFFFFFF DUP2 GT ISZERO PUSH2 0x110A JUMPI PUSH2 0x1109 PUSH2 0xBF0 JUMP JUMPDEST JUMPDEST PUSH2 0x1116 DUP9 DUP3 DUP10 ADD PUSH2 0xD03 JUMP JUMPDEST SWAP6 POP POP PUSH1 0x20 DUP7 ADD CALLDATALOAD PUSH8 0xFFFFFFFFFFFFFFFF DUP2 GT ISZERO PUSH2 0x1137 JUMPI PUSH2 0x1136 PUSH2 0xBF0 JUMP JUMPDEST JUMPDEST PUSH2 0x1143 DUP9 DUP3 DUP10 ADD PUSH2 0xD03 JUMP JUMPDEST SWAP5 POP POP PUSH1 0x40 DUP7 ADD CALLDATALOAD PUSH8 0xFFFFFFFFFFFFFFFF DUP2 GT ISZERO PUSH2 0x1164 JUMPI PUSH2 0x1163 PUSH2 0xBF0 JUMP JUMPDEST JUMPDEST PUSH2 0x1170 DUP9 DUP3 DUP10 ADD PUSH2 0xD03 JUMP JUMPDEST SWAP4 POP POP PUSH1 0x60 DUP7 ADD CALLDATALOAD PUSH8 0xFFFFFFFFFFFFFFFF DUP2 GT ISZERO PUSH2 0x1191 JUMPI PUSH2 0x1190 PUSH2 0xBF0 JUMP JUMPDEST JUMPDEST PUSH2 0x119D DUP9 DUP3 DUP10 ADD PUSH2 0xD03 JUMP JUMPDEST SWAP3 POP POP PUSH1 0x80 DUP7 ADD CALLDATALOAD PUSH8 0xFFFFFFFFFFFFFFFF DUP2 GT ISZERO PUSH2 0x11BE JUMPI PUSH2 0x11BD PUSH2 0xBF0 JUMP JUMPDEST JUMPDEST PUSH2 0x11CA DUP9 DUP3 DUP10 ADD PUSH2 0xD03 JUMP JUMPDEST SWAP2 POP POP SWAP3 SWAP6 POP SWAP3 SWAP6 SWAP1 SWAP4 POP JUMP JUMPDEST PUSH2 0x11E0 DUP2 PUSH2 0xE16 JUMP JUMPDEST DUP2 EQ PUSH2 0x11EA JUMPI PUSH0 DUP1 REVERT JUMPDEST POP JUMP JUMPDEST PUSH0 DUP2 CALLDATALOAD SWAP1 POP PUSH2 0x11FB DUP2 PUSH2 0x11D7 JUMP JUMPDEST SWAP3 SWAP2 POP POP JUMP JUMPDEST PUSH0 PUSH1 0x20 DUP3 DUP5 SUB SLT ISZERO PUSH2 0x1216 JUMPI PUSH2 0x1215 PUSH2 0xBEC JUMP JUMPDEST JUMPDEST PUSH0 PUSH2 0x1223 DUP5 DUP3 DUP6 ADD PUSH2 0x11ED JUMP JUMPDEST SWAP2 POP POP SWAP3 SWAP2 POP POP JUMP JUMPDEST PUSH0 PUSH1 0x20 DUP3 ADD SWAP1 POP DUP2 DUP2 SUB PUSH0 DUP4 ADD MSTORE PUSH2 0x1244 DUP2 DUP5 PUSH2 0xFEE JUMP JUMPDEST SWAP1 POP SWAP3 SWAP2 POP POP JUMP JUMPDEST PUSH0 DUP2 SWAP1 POP SWAP3 SWAP2 POP POP JUMP JUMPDEST PUSH0 PUSH2 0x1260 DUP3 PUSH2 0xD77 JUMP JUMPDEST PUSH2 0x126A DUP2 DUP6 PUSH2 0x124C JUMP JUMPDEST SWAP4 POP PUSH2 0x127A DUP2 DUP6 PUSH1 0x20 DUP7 ADD PUSH2 0xD91 JUMP JUMPDEST DUP1 DUP5 ADD SWAP2 POP POP SWAP3 SWAP2 POP POP JUMP JUMPDEST PUSH0 PUSH2 0x1291 DUP3 DUP5 PUSH2 0x1256 JUMP JUMPDEST SWAP2 POP DUP2 SWAP1 POP SWAP3 SWAP2 POP POP JUMP JUMPDEST PUSH32 0x4E487B7100000000000000000000000000000000000000000000000000000000 PUSH0 MSTORE PUSH1 0x22 PUSH1 0x4 MSTORE PUSH1 0x24 PUSH0 REVERT JUMPDEST PUSH0 PUSH1 0x2 DUP3 DIV SWAP1 POP PUSH1 0x1 DUP3 AND DUP1 PUSH2 0x12E0 JUMPI PUSH1 0x7F DUP3 AND SWAP2 POP JUMPDEST PUSH1 0x20 DUP3 LT DUP2 SUB PUSH2 0x12F3 JUMPI PUSH2 0x12F2 PUSH2 0x129C JUMP JUMPDEST JUMPDEST POP SWAP2 SWAP1 POP JUMP JUMPDEST PUSH32 0x56756C6E65726162696C69747920646F6573206E6F742065786973742E000000 PUSH0 DUP3 ADD MSTORE POP JUMP JUMPDEST PUSH0 PUSH2 0x132D PUSH1 0x1D DUP4 PUSH2 0xFDE JUMP JUMPDEST SWAP2 POP PUSH2 0x1338 DUP3 PUSH2 0x12F9 JUMP JUMPDEST PUSH1 0x20 DUP3 ADD SWAP1 POP SWAP2 SWAP1 POP JUMP JUMPDEST PUSH0 PUSH1 0x20 DUP3 ADD SWAP1 POP DUP2 DUP2 SUB PUSH0 DUP4 ADD MSTORE PUSH2 0x135A DUP2 PUSH2 0x1321 JUMP JUMPDEST SWAP1 POP SWAP2 SWAP1 POP JUMP JUMPDEST PUSH32 0x56756C6E65726162696C69747920616C7265616479206578697374732E000000 PUSH0 DUP3 ADD MSTORE POP JUMP JUMPDEST PUSH0 PUSH2 0x1395 PUSH1 0x1D DUP4 PUSH2 0xFDE JUMP JUMPDEST SWAP2 POP PUSH2 0x13A0 DUP3 PUSH2 0x1361 JUMP JUMPDEST PUSH1 0x20 DUP3 ADD SWAP1 POP SWAP2 SWAP1 POP JUMP JUMPDEST PUSH0 PUSH1 0x20 DUP3 ADD SWAP1 POP DUP2 DUP2 SUB PUSH0 DUP4 ADD MSTORE PUSH2 0x13C2 DUP2 PUSH2 0x1389 JUMP JUMPDEST SWAP1 POP SWAP2 SWAP1 POP JUMP JUMPDEST PUSH0 DUP2 SWAP1 POP DUP2 PUSH0 MSTORE PUSH1 0x20 PUSH0 KECCAK256 SWAP1 POP SWAP2 SWAP1 POP JUMP JUMPDEST PUSH0 PUSH1 0x20 PUSH1 0x1F DUP4 ADD DIV SWAP1 POP SWAP2 SWAP1 POP JUMP JUMPDEST PUSH0 DUP3 DUP3 SHL SWAP1 POP SWAP3 SWAP2 POP POP JUMP JUMPDEST PUSH0 PUSH1 0x8 DUP4 MUL PUSH2 0x1425 PUSH32 0xFFFFFFFFFFFFFFFFFFFFFFFFFFFFFFFFFFFFFFFFFFFFFFFFFFFFFFFFFFFFFFFF DUP3 PUSH2 0x13EA JUMP JUMPDEST PUSH2 0x142F DUP7 DUP4 PUSH2 0x13EA JUMP JUMPDEST SWAP6 POP DUP1 NOT DUP5 AND SWAP4 POP DUP1 DUP7 AND DUP5 OR SWAP3 POP POP POP SWAP4 SWAP3 POP POP POP JUMP JUMPDEST PUSH0 DUP2 SWAP1 POP SWAP2 SWAP1 POP JUMP JUMPDEST PUSH0 PUSH2 0x146A PUSH2 0x1465 PUSH2 0x1460 DUP5 PUSH2 0xE16 JUMP JUMPDEST PUSH2 0x1447 JUMP JUMPDEST PUSH2 0xE16 JUMP JUMPDEST SWAP1 POP SWAP2 SWAP1 POP JUMP JUMPDEST PUSH0 DUP2 SWAP1 POP SWAP2 SWAP1 POP JUMP JUMPDEST PUSH2 0x1483 DUP4 PUSH2 0x1450 JUMP JUMPDEST PUSH2 0x1497 PUSH2 0x148F DUP3 PUSH2 0x1471 JUMP JUMPDEST DUP5 DUP5 SLOAD PUSH2 0x13F6 JUMP JUMPDEST DUP3 SSTORE POP POP POP POP JUMP JUMPDEST PUSH0 SWAP1 JUMP JUMPDEST PUSH2 0x14AB PUSH2 0x149F JUMP JUMPDEST PUSH2 0x14B6 DUP2 DUP5 DUP5 PUSH2 0x147A JUMP JUMPDEST POP POP POP JUMP JUMPDEST JUMPDEST DUP2 DUP2 LT ISZERO PUSH2 0x14D9 JUMPI PUSH2 0x14CE PUSH0 DUP3 PUSH2 0x14A3 JUMP JUMPDEST PUSH1 0x1 DUP2 ADD SWAP1 POP PUSH2 0x14BC JUMP JUMPDEST POP POP JUMP JUMPDEST PUSH1 0x1F DUP3 GT ISZERO PUSH2 0x151E JUMPI PUSH2 0x14EF DUP2 PUSH2 0x13C9 JUMP JUMPDEST PUSH2 0x14F8 DUP5 PUSH2 0x13DB JUMP JUMPDEST DUP2 ADD PUSH1 0x20 DUP6 LT ISZERO PUSH2 0x1507 JUMPI DUP2 SWAP1 POP JUMPDEST PUSH2 0x151B PUSH2 0x1513 DUP6 PUSH2 0x13DB JUMP JUMPDEST DUP4 ADD DUP3 PUSH2 0x14BB JUMP JUMPDEST POP POP JUMPDEST POP POP POP JUMP JUMPDEST PUSH0 DUP3 DUP3 SHR SWAP1 POP SWAP3 SWAP2 POP POP JUMP JUMPDEST PUSH0 PUSH2 0x153E PUSH0 NOT DUP5 PUSH1 0x8 MUL PUSH2 0x1523 JUMP JUMPDEST NOT DUP1 DUP4 AND SWAP2 POP POP SWAP3 SWAP2 POP POP JUMP JUMPDEST PUSH0 PUSH2 0x1556 DUP4 DUP4 PUSH2 0x152F JUMP JUMPDEST SWAP2 POP DUP3 PUSH1 0x2 MUL DUP3 OR SWAP1 POP SWAP3 SWAP2 POP POP JUMP JUMPDEST PUSH2 0x156F DUP3 PUSH2 0xD77 JUMP JUMPDEST PUSH8 0xFFFFFFFFFFFFFFFF DUP2 GT ISZERO PUSH2 0x1588 JUMPI PUSH2 0x1587 PUSH2 0xC0C JUMP JUMPDEST JUMPDEST PUSH2 0x1592 DUP3 SLOAD PUSH2 0x12C9 JUMP JUMPDEST PUSH2 0x159D DUP3 DUP3 DUP6 PUSH2 0x14DD JUMP JUMPDEST PUSH0 PUSH1 0x20 SWAP1 POP PUSH1 0x1F DUP4 GT PUSH1 0x1 DUP2 EQ PUSH2 0x15CE JUMPI PUSH0 DUP5 ISZERO PUSH2 0x15BC JUMPI DUP3 DUP8 ADD MLOAD SWAP1 POP JUMPDEST PUSH2 0x15C6 DUP6 DUP3 PUSH2 0x154B JUMP JUMPDEST DUP7 SSTORE POP PUSH2 0x162D JUMP JUMPDEST PUSH1 0x1F NOT DUP5 AND PUSH2 0x15DC DUP7 PUSH2 0x13C9 JUMP JUMPDEST PUSH0 JUMPDEST DUP3 DUP2 LT ISZERO PUSH2 0x1603 JUMPI DUP5 DUP10 ADD MLOAD DUP3 SSTORE PUSH1 0x1 DUP3 ADD SWAP2 POP PUSH1 0x20 DUP6 ADD SWAP5 POP PUSH1 0x20 DUP2 ADD SWAP1 POP PUSH2 0x15DE JUMP JUMPDEST DUP7 DUP4 LT ISZERO PUSH2 0x1620 JUMPI DUP5 DUP10 ADD MLOAD PUSH2 0x161C PUSH1 0x1F DUP10 AND DUP3 PUSH2 0x152F JUMP JUMPDEST DUP4 SSTORE POP JUMPDEST PUSH1 0x1 PUSH1 0x2 DUP9 MUL ADD DUP9 SSTORE POP POP POP JUMPDEST POP POP POP POP POP POP JUMP JUMPDEST PUSH0 PUSH1 0x60 DUP3 ADD SWAP1 POP DUP2 DUP2 SUB PUSH0 DUP4 ADD MSTORE PUSH2 0x164D DUP2 DUP7 PUSH2 0xFEE JUMP JUMPDEST SWAP1 POP PUSH2 0x165C PUSH1 0x20 DUP4 ADD DUP6 PUSH2 0x1026 JUMP JUMPDEST PUSH2 0x1669 PUSH1 0x40 DUP4 ADD DUP5 PUSH2 0x1035 JUMP JUMPDEST SWAP5 SWAP4 POP POP POP POP JUMP INVALID LOG2 PUSH5 0x6970667358 0x22 SLT KECCAK256 0x2D CREATE2 JUMPDEST 0xAF KECCAK256 0xBE CALLVALUE JUMP GT DUP14 KECCAK256 0xDE PUSH4 0x5A6D0967 CALL 0xE2 SUB EXTCODESIZE LT PUSH20 0x273B148490AB13644E64736F6C634300081A0033 "
				},
				"gasEstimates": {
					"creation": {
						"codeDepositCost": "1159800",
						"executionCost": "1205",
						"totalCost": "1161005"
					},
					"external": {
						"addVulnerability(string,string,string,string,string)": "infinite",
						"allCVEIDs(uint256)": "infinite",
						"getAllCVEIDs()": "infinite",
						"getVulnerability(string)": "infinite",
						"vulnerabilities(string)": "infinite"
					}
				},
				"methodIdentifiers": {
					"addVulnerability(string,string,string,string,string)": "a1dab6b4",
					"allCVEIDs(uint256)": "f4df96b9",
					"getAllCVEIDs()": "2d51d2e1",
					"getVulnerability(string)": "1a23e71f",
					"vulnerabilities(string)": "5967c880"
				}
			},
			"storageLayout": {
				"storage": [
					{
						"astId": 21,
						"contract": "vulnerabilities.sol:VulnerabilityRegistry",
						"label": "vulnerabilities",
						"offset": 0,
						"slot": "0",
						"type": "t_mapping(t_string_memory_ptr,t_struct(Vulnerability)16_storage)"
					},
					{
						"astId": 24,
						"contract": "vulnerabilities.sol:VulnerabilityRegistry",
						"label": "allCVEIDs",
						"offset": 0,
						"slot": "1",
						"type": "t_array(t_string_storage)dyn_storage"
					}
				],
				"types": {
					"t_address": {
						"encoding": "inplace",
						"label": "address",
						"numberOfBytes": "20"
					},
					"t_array(t_string_storage)dyn_storage": {
						"base": "t_string_storage",
						"encoding": "dynamic_array",
						"label": "string[]",
						"numberOfBytes": "32"
					},
					"t_mapping(t_string_memory_ptr,t_struct(Vulnerability)16_storage)": {
						"encoding": "mapping",
						"key": "t_string_memory_ptr",
						"label": "mapping(string => struct VulnerabilityRegistry.Vulnerability)",
						"numberOfBytes": "32",
						"value": "t_struct(Vulnerability)16_storage"
					},
					"t_string_memory_ptr": {
						"encoding": "bytes",
						"label": "string",
						"numberOfBytes": "32"
					},
					"t_string_storage": {
						"encoding": "bytes",
						"label": "string",
						"numberOfBytes": "32"
					},
					"t_struct(Vulnerability)16_storage": {
						"encoding": "inplace",
						"label": "struct VulnerabilityRegistry.Vulnerability",
						"members": [
							{
								"astId": 3,
								"contract": "vulnerabilities.sol:VulnerabilityRegistry",
								"label": "CVE_ID",
								"offset": 0,
								"slot": "0",
								"type": "t_string_storage"
							},
							{
								"astId": 5,
								"contract": "vulnerabilities.sol:VulnerabilityRegistry",
								"label": "severity",
								"offset": 0,
								"slot": "1",
								"type": "t_string_storage"
							},
							{
								"astId": 7,
								"contract": "vulnerabilities.sol:VulnerabilityRegistry",
								"label": "description",
								"offset": 0,
								"slot": "2",
								"type": "t_string_storage"
							},
							{
								"astId": 9,
								"contract": "vulnerabilities.sol:VulnerabilityRegistry",
								"label": "patchInfo",
								"offset": 0,
								"slot": "3",
								"type": "t_string_storage"
							},
							{
								"astId": 11,
								"contract": "vulnerabilities.sol:VulnerabilityRegistry",
								"label": "reportHash",
								"offset": 0,
								"slot": "4",
								"type": "t_string_storage"
							},
							{
								"astId": 13,
								"contract": "vulnerabilities.sol:VulnerabilityRegistry",
								"label": "addedBy",
								"offset": 0,
								"slot": "5",
								"type": "t_address"
							},
							{
								"astId": 15,
								"contract": "vulnerabilities.sol:VulnerabilityRegistry",
								"label": "timestamp",
								"offset": 0,
								"slot": "6",
								"type": "t_uint256"
							}
						],
						"numberOfBytes": "224"
					},
					"t_uint256": {
						"encoding": "inplace",
						"label": "uint256",
						"numberOfBytes": "32"
					}
				}
			},
			"userdoc": {
				"kind": "user",
				"methods": {},
				"version": 1
			}
		}
	}
}